{
  "contractName": "AnastasisOpenEdition",
  "abi": [
    {
      "inputs": [],
      "stateMutability": "nonpayable",
      "type": "constructor"
    },
    {
      "inputs": [],
      "name": "_anastasisAct2Address",
      "outputs": [
        {
          "internalType": "address",
          "name": "",
          "type": "address"
        }
      ],
      "stateMutability": "view",
      "type": "function"
    },
    {
      "inputs": [],
      "name": "_ashAddress",
      "outputs": [
        {
          "internalType": "address",
          "name": "",
          "type": "address"
        }
      ],
      "stateMutability": "view",
      "type": "function"
    },
    {
      "inputs": [],
      "name": "_ashPrice",
      "outputs": [
        {
          "internalType": "uint256",
          "name": "",
          "type": "uint256"
        }
      ],
      "stateMutability": "view",
      "type": "function"
    },
    {
      "inputs": [
        {
          "internalType": "address",
          "name": "",
          "type": "address"
        }
      ],
      "name": "_bidders",
      "outputs": [
        {
          "internalType": "bool",
          "name": "",
          "type": "bool"
        }
      ],
      "stateMutability": "view",
      "type": "function"
    },
    {
      "inputs": [],
      "name": "_fomoverseAddress",
      "outputs": [
        {
          "internalType": "address",
          "name": "",
          "type": "address"
        }
      ],
      "stateMutability": "view",
      "type": "function"
    },
    {
      "inputs": [],
      "name": "_holderPrice",
      "outputs": [
        {
          "internalType": "uint256",
          "name": "",
          "type": "uint256"
        }
      ],
      "stateMutability": "view",
      "type": "function"
    },
    {
      "inputs": [],
      "name": "_publicPrice",
      "outputs": [
        {
          "internalType": "uint256",
          "name": "",
          "type": "uint256"
        }
      ],
      "stateMutability": "view",
      "type": "function"
    },
    {
      "inputs": [
        {
          "internalType": "address",
          "name": "fundSplitAddress",
          "type": "address"
        }
      ],
      "name": "setFundSplitAddress",
      "outputs": [],
      "stateMutability": "nonpayable",
      "type": "function"
    },
    {
      "inputs": [
        {
          "internalType": "address",
          "name": "ashAddress",
          "type": "address"
        }
      ],
      "name": "setAshAddress",
      "outputs": [],
      "stateMutability": "nonpayable",
      "type": "function"
    },
    {
      "inputs": [
        {
          "internalType": "address",
          "name": "FOMOAddress",
          "type": "address"
        }
      ],
      "name": "setFOMOAddress",
      "outputs": [],
      "stateMutability": "nonpayable",
      "type": "function"
    },
    {
      "inputs": [
        {
          "internalType": "address",
          "name": "anastasisAct2Address",
          "type": "address"
        }
      ],
      "name": "setAnastasisAct2Address",
      "outputs": [],
      "stateMutability": "nonpayable",
      "type": "function"
    },
    {
      "inputs": [
        {
          "internalType": "address",
          "name": "newAdmin",
          "type": "address"
        }
      ],
      "name": "approveAdmin",
      "outputs": [],
      "stateMutability": "nonpayable",
      "type": "function"
    },
    {
      "inputs": [
        {
          "internalType": "address",
          "name": "exAdmin",
          "type": "address"
        }
      ],
      "name": "removeAdmin",
      "outputs": [],
      "stateMutability": "nonpayable",
      "type": "function"
    },
    {
      "inputs": [],
      "name": "toggleMintOpened",
      "outputs": [],
      "stateMutability": "nonpayable",
      "type": "function"
    },
    {
      "inputs": [
        {
          "internalType": "address",
          "name": "signer",
          "type": "address"
        }
      ],
      "name": "setSigner",
      "outputs": [],
      "stateMutability": "nonpayable",
      "type": "function"
    },
    {
      "inputs": [
        {
          "internalType": "bool",
          "name": "payInEth",
          "type": "bool"
        },
        {
          "internalType": "uint256",
          "name": "quantity",
          "type": "uint256"
        }
      ],
      "name": "mint",
      "outputs": [],
      "stateMutability": "payable",
      "type": "function"
    },
    {
      "inputs": [
        {
          "internalType": "uint8",
          "name": "v",
          "type": "uint8"
        },
        {
          "internalType": "bytes32",
          "name": "r",
          "type": "bytes32"
        },
        {
          "internalType": "bytes32",
          "name": "s",
          "type": "bytes32"
        }
      ],
      "name": "getFreeMint",
      "outputs": [],
      "stateMutability": "nonpayable",
      "type": "function"
    }
  ],
  "bytecode": "0x608060405266354a6ba7a1800060005566470de4df8200006001556801158e460913d000006002557364d91f12ece7362f91a6f8e7940cd55f05060b92600360006101000a81548173ffffffffffffffffffffffffffffffffffffffff021916908373ffffffffffffffffffffffffffffffffffffffff1602179055507374bb71a4210e33256885def483fd4227b7f9d88f600460006101000a81548173ffffffffffffffffffffffffffffffffffffffff021916908373ffffffffffffffffffffffffffffffffffffffff1602179055507364d91f12ece7362f91a6f8e7940cd55f05060b92600560006101000a81548173ffffffffffffffffffffffffffffffffffffffff021916908373ffffffffffffffffffffffffffffffffffffffff16021790555034801561013257600080fd5b506001600860003373ffffffffffffffffffffffffffffffffffffffff1673ffffffffffffffffffffffffffffffffffffffff16815260200190815260200160002060006101000a81548160ff021916908315150217905550611e258061019a6000396000f3fe6080604052600436106100fe5760003560e01c8063932796ce11610095578063aecd2cd011610064578063aecd2cd0146102f9578063d750037314610324578063dccee69b14610361578063dfefc77614610378578063ed1e80c614610394576100fe565b8063932796ce14610251578063988890581461027a578063a4b7f705146102a5578063abffaf4a146102d0576100fe565b80636d73e669116100d15780636d73e669146101a9578063724bfed6146101d257806374ef3962146101fd57806382e02c3014610226576100fe565b80631785f53c146101035780635c3716721461012c578063678ea70a146101575780636c19e78314610180575b600080fd5b34801561010f57600080fd5b5061012a600480360381019061012591906113d8565b6103bd565b005b34801561013857600080fd5b5061014161046e565b60405161014e919061141e565b60405180910390f35b34801561016357600080fd5b5061017e600480360381019061017991906114a8565b610474565b005b34801561018c57600080fd5b506101a760048036038101906101a291906113d8565b6106d3565b005b3480156101b557600080fd5b506101d060048036038101906101cb91906113d8565b6107a3565b005b3480156101de57600080fd5b506101e7610854565b6040516101f4919061150a565b60405180910390f35b34801561020957600080fd5b50610224600480360381019061021f91906113d8565b61087a565b005b34801561023257600080fd5b5061023b610914565b604051610248919061150a565b60405180910390f35b34801561025d57600080fd5b50610278600480360381019061027391906113d8565b61093a565b005b34801561028657600080fd5b5061028f6109d4565b60405161029c919061141e565b60405180910390f35b3480156102b157600080fd5b506102ba6109da565b6040516102c7919061141e565b60405180910390f35b3480156102dc57600080fd5b506102f760048036038101906102f291906113d8565b6109e0565b005b34801561030557600080fd5b5061030e610a7a565b60405161031b919061150a565b60405180910390f35b34801561033057600080fd5b5061034b600480360381019061034691906113d8565b610aa0565b6040516103589190611540565b60405180910390f35b34801561036d57600080fd5b50610376610ac0565b005b610392600480360381019061038d91906115b3565b610b42565b005b3480156103a057600080fd5b506103bb60048036038101906103b691906113d8565b611162565b005b600860003373ffffffffffffffffffffffffffffffffffffffff1673ffffffffffffffffffffffffffffffffffffffff16815260200190815260200160002060009054906101000a900460ff1661041357600080fd5b6000600860008373ffffffffffffffffffffffffffffffffffffffff1673ffffffffffffffffffffffffffffffffffffffff16815260200190815260200160002060006101000a81548160ff02191690831515021790555050565b60025481565b600760149054906101000a900460ff166104c3576040517f08c379a00000000000000000000000000000000000000000000000000000000081526004016104ba90611650565b60405180910390fd5b6104ce8383836111fc565b61050d576040517f08c379a0000000000000000000000000000000000000000000000000000000008152600401610504906116bc565b60405180910390fd5b601e600960003373ffffffffffffffffffffffffffffffffffffffff1673ffffffffffffffffffffffffffffffffffffffff168152602001908152602001600020541061058f576040517f08c379a000000000000000000000000000000000000000000000000000000000815260040161058690611728565b60405180910390fd5b600560009054906101000a900473ffffffffffffffffffffffffffffffffffffffff1673ffffffffffffffffffffffffffffffffffffffff166340c10f193360016040518363ffffffff1660e01b81526004016105ed92919061178d565b600060405180830381600087803b15801561060757600080fd5b505af115801561061b573d6000803e3d6000fd5b505050506001600960003373ffffffffffffffffffffffffffffffffffffffff1673ffffffffffffffffffffffffffffffffffffffff168152602001908152602001600020600082825461066f91906117e5565b925050819055506000600a60003373ffffffffffffffffffffffffffffffffffffffff1673ffffffffffffffffffffffffffffffffffffffff16815260200190815260200160002060006101000a81548160ff021916908315150217905550505050565b600860003373ffffffffffffffffffffffffffffffffffffffff1673ffffffffffffffffffffffffffffffffffffffff16815260200190815260200160002060009054906101000a900460ff1661075f576040517f08c379a000000000000000000000000000000000000000000000000000000000815260040161075690611887565b60405180910390fd5b80600760006101000a81548173ffffffffffffffffffffffffffffffffffffffff021916908373ffffffffffffffffffffffffffffffffffffffff16021790555050565b600860003373ffffffffffffffffffffffffffffffffffffffff1673ffffffffffffffffffffffffffffffffffffffff16815260200190815260200160002060009054906101000a900460ff166107f957600080fd5b6001600860008373ffffffffffffffffffffffffffffffffffffffff1673ffffffffffffffffffffffffffffffffffffffff16815260200190815260200160002060006101000a81548160ff02191690831515021790555050565b600560009054906101000a900473ffffffffffffffffffffffffffffffffffffffff1681565b600860003373ffffffffffffffffffffffffffffffffffffffff1673ffffffffffffffffffffffffffffffffffffffff16815260200190815260200160002060009054906101000a900460ff166108d057600080fd5b80600360006101000a81548173ffffffffffffffffffffffffffffffffffffffff021916908373ffffffffffffffffffffffffffffffffffffffff16021790555050565b600460009054906101000a900473ffffffffffffffffffffffffffffffffffffffff1681565b600860003373ffffffffffffffffffffffffffffffffffffffff1673ffffffffffffffffffffffffffffffffffffffff16815260200190815260200160002060009054906101000a900460ff1661099057600080fd5b80600560006101000a81548173ffffffffffffffffffffffffffffffffffffffff021916908373ffffffffffffffffffffffffffffffffffffffff16021790555050565b60015481565b60005481565b600860003373ffffffffffffffffffffffffffffffffffffffff1673ffffffffffffffffffffffffffffffffffffffff16815260200190815260200160002060009054906101000a900460ff16610a3657600080fd5b80600460006101000a81548173ffffffffffffffffffffffffffffffffffffffff021916908373ffffffffffffffffffffffffffffffffffffffff16021790555050565b600360009054906101000a900473ffffffffffffffffffffffffffffffffffffffff1681565b600a6020528060005260406000206000915054906101000a900460ff1681565b600860003373ffffffffffffffffffffffffffffffffffffffff1673ffffffffffffffffffffffffffffffffffffffff16815260200190815260200160002060009054906101000a900460ff16610b1657600080fd5b600760149054906101000a900460ff1615600760146101000a81548160ff021916908315150217905550565b600760149054906101000a900460ff16610b91576040517f08c379a0000000000000000000000000000000000000000000000000000000008152600401610b8890611650565b60405180910390fd5b60008111610bd4576040517f08c379a0000000000000000000000000000000000000000000000000000000008152600401610bcb906118f3565b60405180910390fd5b601e81600960003373ffffffffffffffffffffffffffffffffffffffff1673ffffffffffffffffffffffffffffffffffffffff16815260200190815260200160002054610c2191906117e5565b1115610c62576040517f08c379a0000000000000000000000000000000000000000000000000000000008152600401610c5990611728565b60405180910390fd5b600a811115610ca6576040517f08c379a0000000000000000000000000000000000000000000000000000000008152600401610c9d90611985565b60405180910390fd5b6000808068015af1d78b58c40000600360009054906101000a900473ffffffffffffffffffffffffffffffffffffffff1673ffffffffffffffffffffffffffffffffffffffff166370a08231336040518263ffffffff1660e01b8152600401610d0f919061150a565b602060405180830381865afa158015610d2c573d6000803e3d6000fd5b505050506040513d601f19601f82011682018060405250810190610d5091906119ba565b1180610df857506001600460009054906101000a900473ffffffffffffffffffffffffffffffffffffffff1673ffffffffffffffffffffffffffffffffffffffff166370a08231336040518263ffffffff1660e01b8152600401610db4919061150a565b602060405180830381865afa158015610dd1573d6000803e3d6000fd5b505050506040513d601f19601f82011682018060405250810190610df591906119ba565b10155b15610e0257600192505b8415610ed25782610e1557600154610e19565b6000545b91508382610e2791906119e7565b341015610e69576040517f08c379a0000000000000000000000000000000000000000000000000000000008152600401610e6090611a8d565b60405180910390fd5b600660009054906101000a900473ffffffffffffffffffffffffffffffffffffffff1673ffffffffffffffffffffffffffffffffffffffff166108fc8584610eb191906119e7565b9081150290604051600060405180830381858888f193505050509050611036565b6000600660009054906101000a900473ffffffffffffffffffffffffffffffffffffffff169050600360009054906101000a900473ffffffffffffffffffffffffffffffffffffffff1673ffffffffffffffffffffffffffffffffffffffff166323b872dd33838887610f4591906119e7565b6040518463ffffffff1660e01b8152600401610f6393929190611b02565b6020604051808303816000875af1158015610f82573d6000803e3d6000fd5b505050506040513d601f19601f82011682018060405250810190610fa69190611b4e565b91508073ffffffffffffffffffffffffffffffffffffffff166326f732363387600254610fd391906119e7565b6040518363ffffffff1660e01b8152600401610ff0929190611b7b565b6020604051808303816000875af115801561100f573d6000803e3d6000fd5b505050506040513d601f19601f820116820180604052508101906110339190611b4e565b50505b80611076576040517f08c379a000000000000000000000000000000000000000000000000000000000815260040161106d90611bf0565b60405180910390fd5b600560009054906101000a900473ffffffffffffffffffffffffffffffffffffffff1673ffffffffffffffffffffffffffffffffffffffff166340c10f1933866040518363ffffffff1660e01b81526004016110d3929190611b7b565b600060405180830381600087803b1580156110ed57600080fd5b505af1158015611101573d6000803e3d6000fd5b5050505083600960003373ffffffffffffffffffffffffffffffffffffffff1673ffffffffffffffffffffffffffffffffffffffff168152602001908152602001600020600082825461115491906117e5565b925050819055505050505050565b600860003373ffffffffffffffffffffffffffffffffffffffff1673ffffffffffffffffffffffffffffffffffffffff16815260200190815260200160002060009054906101000a900460ff166111b857600080fd5b80600660006101000a81548173ffffffffffffffffffffffffffffffffffffffff021916908373ffffffffffffffffffffffffffffffffffffffff16021790555050565b6000600133600560009054906101000a900473ffffffffffffffffffffffffffffffffffffffff16600760149054906101000a900460ff16600a60003373ffffffffffffffffffffffffffffffffffffffff1673ffffffffffffffffffffffffffffffffffffffff16815260200190815260200160002060009054906101000a900460ff166040516020016112949493929190611ca0565b604051602081830303815290604052805190602001206040516020016112ba9190611d66565b60405160208183030381529060405280519060200120858585604051600081526020016040526040516112f09493929190611daa565b6020604051602081039080840390855afa158015611312573d6000803e3d6000fd5b5050506020604051035173ffffffffffffffffffffffffffffffffffffffff16600760009054906101000a900473ffffffffffffffffffffffffffffffffffffffff1673ffffffffffffffffffffffffffffffffffffffff161490509392505050565b600080fd5b600073ffffffffffffffffffffffffffffffffffffffff82169050919050565b60006113a58261137a565b9050919050565b6113b58161139a565b81146113c057600080fd5b50565b6000813590506113d2816113ac565b92915050565b6000602082840312156113ee576113ed611375565b5b60006113fc848285016113c3565b91505092915050565b6000819050919050565b61141881611405565b82525050565b6000602082019050611433600083018461140f565b92915050565b600060ff82169050919050565b61144f81611439565b811461145a57600080fd5b50565b60008135905061146c81611446565b92915050565b6000819050919050565b61148581611472565b811461149057600080fd5b50565b6000813590506114a28161147c565b92915050565b6000806000606084860312156114c1576114c0611375565b5b60006114cf8682870161145d565b93505060206114e086828701611493565b92505060406114f186828701611493565b9150509250925092565b6115048161139a565b82525050565b600060208201905061151f60008301846114fb565b92915050565b60008115159050919050565b61153a81611525565b82525050565b60006020820190506115556000830184611531565b92915050565b61156481611525565b811461156f57600080fd5b50565b6000813590506115818161155b565b92915050565b61159081611405565b811461159b57600080fd5b50565b6000813590506115ad81611587565b92915050565b600080604083850312156115ca576115c9611375565b5b60006115d885828601611572565b92505060206115e98582860161159e565b9150509250929050565b600082825260208201905092915050565b7f4d696e7420636c6f736564000000000000000000000000000000000000000000600082015250565b600061163a600b836115f3565b915061164582611604565b602082019050919050565b600060208201905081810360008301526116698161162d565b9050919050565b7f4d696e74206e6f7420616c6c6f77656400000000000000000000000000000000600082015250565b60006116a66010836115f3565b91506116b182611670565b602082019050919050565b600060208201905081810360008301526116d581611699565b9050919050565b7f43616e6e6f74206d696e74206d6f7265207468616e20333020746f6b656e7300600082015250565b6000611712601f836115f3565b915061171d826116dc565b602082019050919050565b6000602082019050818103600083015261174181611705565b9050919050565b6000819050919050565b6000819050919050565b600061177761177261176d84611748565b611752565b611405565b9050919050565b6117878161175c565b82525050565b60006040820190506117a260008301856114fb565b6117af602083018461177e565b9392505050565b7f4e487b7100000000000000000000000000000000000000000000000000000000600052601160045260246000fd5b60006117f082611405565b91506117fb83611405565b9250827fffffffffffffffffffffffffffffffffffffffffffffffffffffffffffffffff038211156118305761182f6117b6565b5b828201905092915050565b7f4f6e6c792041646d696e732063616e20736574207369676e6572000000000000600082015250565b6000611871601a836115f3565b915061187c8261183b565b602082019050919050565b600060208201905081810360008301526118a081611864565b9050919050565b7f57726f6e67207175616e74697479000000000000000000000000000000000000600082015250565b60006118dd600e836115f3565b91506118e8826118a7565b602082019050919050565b6000602082019050818103600083015261190c816118d0565b9050919050565b7f43616e6e6f74206d696e74206d6f7265207468616e20313020746f6b656e732060008201527f696e206f6e65207472616e73616374696f6e0000000000000000000000000000602082015250565b600061196f6032836115f3565b915061197a82611913565b604082019050919050565b6000602082019050818103600083015261199e81611962565b9050919050565b6000815190506119b481611587565b92915050565b6000602082840312156119d0576119cf611375565b5b60006119de848285016119a5565b91505092915050565b60006119f282611405565b91506119fd83611405565b9250817fffffffffffffffffffffffffffffffffffffffffffffffffffffffffffffffff0483118215151615611a3657611a356117b6565b5b828202905092915050565b7f4e6f7420656e6f7567682066756e647300000000000000000000000000000000600082015250565b6000611a776010836115f3565b9150611a8282611a41565b602082019050919050565b60006020820190508181036000830152611aa681611a6a565b9050919050565b6000611ac8611ac3611abe8461137a565b611752565b61137a565b9050919050565b6000611ada82611aad565b9050919050565b6000611aec82611acf565b9050919050565b611afc81611ae1565b82525050565b6000606082019050611b1760008301866114fb565b611b246020830185611af3565b611b31604083018461140f565b949350505050565b600081519050611b488161155b565b92915050565b600060208284031215611b6457611b63611375565b5b6000611b7284828501611b39565b91505092915050565b6000604082019050611b9060008301856114fb565b611b9d602083018461140f565b9392505050565b7f46756e647320636f756c64206e6f74207472616e736665720000000000000000600082015250565b6000611bda6018836115f3565b9150611be582611ba4565b602082019050919050565b60006020820190508181036000830152611c0981611bcd565b9050919050565b60008160601b9050919050565b6000611c2882611c10565b9050919050565b6000611c3a82611c1d565b9050919050565b611c52611c4d8261139a565b611c2f565b82525050565b60008160f81b9050919050565b6000611c7082611c58565b9050919050565b6000611c8282611c65565b9050919050565b611c9a611c9582611525565b611c77565b82525050565b6000611cac8287611c41565b601482019150611cbc8286611c41565b601482019150611ccc8285611c89565b600182019150611cdc8284611c89565b60018201915081905095945050505050565b600081905092915050565b7f19457468657265756d205369676e6564204d6573736167653a0a333200000000600082015250565b6000611d2f601c83611cee565b9150611d3a82611cf9565b601c82019050919050565b6000819050919050565b611d60611d5b82611472565b611d45565b82525050565b6000611d7182611d22565b9150611d7d8284611d4f565b60208201915081905092915050565b611d9581611472565b82525050565b611da481611439565b82525050565b6000608082019050611dbf6000830187611d8c565b611dcc6020830186611d9b565b611dd96040830185611d8c565b611de66060830184611d8c565b9594505050505056fea2646970667358221220022e75f9590bae2abce527f242d92c5a6ff8e40348db109a1609af0303019d3164736f6c634300080d0033",
  "immutableReferences": {},
  "source": "// SPDX-License-Identifier: MIT\n\npragma solidity >= 0.8.13;\n\nimport \"./AnastasisAct2.sol\";\nimport \"./FundSplit.sol\";\nimport \"@openzeppelin/contracts/token/ERC721/IERC721.sol\";\nimport \"@openzeppelin/contracts/token/ERC20/IERC20.sol\";\n\ncontract AnastasisOpenEdition {\n\n    uint256 public _holderPrice = 0.015 ether;\n    uint256 public _publicPrice = 0.02 ether;\n    uint256 public _ashPrice = 20*10**18;\n\n    address public _ashAddress= 0x64D91f12Ece7362F91A6f8E7940Cd55F05060b92;\n    address public _fomoverseAddress = 0x74BB71a4210E33256885DEF483fD4227b7f9D88F;\n    address public _anastasisAct2Address= 0x64D91f12Ece7362F91A6f8E7940Cd55F05060b92;\n    address private _fundSplitAddress;\n    address private _signer;\n\n    bool _mintOpened;\n\n    mapping (address => bool) _isAdmin;\n    mapping (address => uint256) _mintedQuantity;\n    mapping (address => bool) public _bidders;\n\n    constructor(){\n        _isAdmin[msg.sender] = true;\n    }\n\n    function setFundSplitAddress(address fundSplitAddress) external {\n        require(_isAdmin[msg.sender]);\n        _fundSplitAddress = fundSplitAddress;\n    }\n\n    function setAshAddress(address ashAddress) external{\n        require(_isAdmin[msg.sender]);\n        _ashAddress = ashAddress;\n    }\n\n    function setFOMOAddress(address FOMOAddress) external{\n        require(_isAdmin[msg.sender]);\n        _fomoverseAddress = FOMOAddress;\n    }\n\n    function setAnastasisAct2Address(address anastasisAct2Address) external{\n        require(_isAdmin[msg.sender]);\n        _anastasisAct2Address = anastasisAct2Address;\n    }\n\n    function approveAdmin(address newAdmin)external{\n        require(_isAdmin[msg.sender]);\n        _isAdmin[newAdmin] = true;\n    }\n\n    function removeAdmin(address exAdmin)external{\n        require(_isAdmin[msg.sender]);\n        _isAdmin[exAdmin] = false;\n    }\n    \n    function toggleMintOpened()external{\n        require(_isAdmin[msg.sender]);\n        _mintOpened = !_mintOpened;\n    }\n\n    function setSigner (address signer) external{\n        require(_isAdmin[msg.sender], \"Only Admins can set signer\");\n        _signer = signer;\n    }\n\n    function mintAllowed( uint8 v, bytes32 r, bytes32 s)internal view returns(bool){\n        return(\n            _signer ==\n                ecrecover(\n                    keccak256(\n                        abi.encodePacked(\n                            \"\\x19Ethereum Signed Message:\\n32\",\n                            keccak256(\n                                abi.encodePacked(\n                                    msg.sender,\n                                    _anastasisAct2Address,\n                                    _mintOpened,\n                                    _bidders[msg.sender] // should be false\n                                )\n                            )\n                        )\n                    )\n                , v, r, s)\n        );\n    }\n\n    function mint(bool payInEth, uint256 quantity) external payable{\n        require(_mintOpened, \"Mint closed\");\n        require(quantity > 0, \"Wrong quantity\");\n        require(_mintedQuantity[msg.sender] + quantity <= 30, \"Cannot mint more than 30 tokens\");\n        require(quantity <= 10, \"Cannot mint more than 10 tokens in one transaction\");\n        \n        bool hasDiscount = false;\n        uint256 price;\n        bool success;\n        if(\n            IERC20(_ashAddress).balanceOf(msg.sender) > 25*10**18 || \n            IERC721(_fomoverseAddress).balanceOf(msg.sender) >= 1\n        ){hasDiscount = true;}\n        if(payInEth){\n            price = hasDiscount ? _holderPrice : _publicPrice;\n            require(msg.value >= price * quantity, \"Not enough funds\");\n            success = payable(_fundSplitAddress).send(price * quantity);\n        }else{\n            address payable fundSplitContract = payable(address(_fundSplitAddress));\n            success = IERC20(_ashAddress).transferFrom(msg.sender, fundSplitContract, price * quantity);\n            FundSplit(fundSplitContract).depositAsh(msg.sender, _ashPrice * quantity);\n        }\n        require(success, \"Funds could not transfer\");\n        Anastasis_Act2(_anastasisAct2Address).mint(msg.sender, quantity);\n        _mintedQuantity[msg.sender] += quantity;\n    }\n\n    function getFreeMint(\n        uint8 v,\n        bytes32 r, \n        bytes32 s\n    )external{\n        require(_mintOpened, \"Mint closed\");\n        require(mintAllowed(v, r, s), \"Mint not allowed\");\n        require(_mintedQuantity[msg.sender]<30,\"Cannot mint more than 30 tokens\");\n        Anastasis_Act2(_anastasisAct2Address).mint(msg.sender, 1);\n        _mintedQuantity[msg.sender] += 1;\n        _bidders[msg.sender] = false;\n    }\n\n}",
  "sourcePath": "/Users/bct/Documents/Dev/NFT_dev/Anastasis/contracts/AnastasisAct2Mint.sol",
  "compiler": {
    "name": "solc",
    "version": "0.8.13+commit.abaa5c0e.Emscripten.clang"
  },
  "schemaVersion": "3.4.4",
  "updatedAt": "2022-09-26T19:18:33.362Z",
  "devdoc": {
    "kind": "dev",
    "methods": {},
    "version": 1
  },
  "userdoc": {
    "kind": "user",
    "methods": {},
    "version": 1
  }
}