{
  "contractName": "AnastasisAuction",
  "abi": [
    {
      "inputs": [],
      "stateMutability": "nonpayable",
      "type": "constructor"
    },
    {
      "anonymous": false,
      "inputs": [
        {
          "indexed": false,
          "internalType": "address",
          "name": "_highestBidder",
          "type": "address"
        },
        {
          "indexed": false,
          "internalType": "uint256",
          "name": "refundAmount",
          "type": "uint256"
        }
      ],
      "name": "AuctionCancelled",
      "type": "event"
    },
    {
      "anonymous": false,
      "inputs": [
        {
          "indexed": false,
          "internalType": "address",
          "name": "winner",
          "type": "address"
        }
      ],
      "name": "AuctionEnded",
      "type": "event"
    },
    {
      "anonymous": false,
      "inputs": [
        {
          "indexed": false,
          "internalType": "address",
          "name": "bidder",
          "type": "address"
        },
        {
          "indexed": false,
          "internalType": "uint256",
          "name": "amount",
          "type": "uint256"
        }
      ],
      "name": "BidPlaced",
      "type": "event"
    },
    {
      "anonymous": false,
      "inputs": [
        {
          "indexed": false,
          "internalType": "address",
          "name": "bidder",
          "type": "address"
        },
        {
          "indexed": false,
          "internalType": "uint256",
          "name": "amount",
          "type": "uint256"
        }
      ],
      "name": "BidReturned",
      "type": "event"
    },
    {
      "inputs": [],
      "name": "_auctionBeneficiary",
      "outputs": [
        {
          "internalType": "address",
          "name": "",
          "type": "address"
        }
      ],
      "stateMutability": "view",
      "type": "function"
    },
    {
      "inputs": [],
      "name": "_contractToMint",
      "outputs": [
        {
          "internalType": "address",
          "name": "",
          "type": "address"
        }
      ],
      "stateMutability": "view",
      "type": "function"
    },
    {
      "inputs": [],
      "name": "_currentTopBid",
      "outputs": [
        {
          "internalType": "uint256",
          "name": "",
          "type": "uint256"
        }
      ],
      "stateMutability": "view",
      "type": "function"
    },
    {
      "inputs": [],
      "name": "_highestBidder",
      "outputs": [
        {
          "internalType": "address",
          "name": "",
          "type": "address"
        }
      ],
      "stateMutability": "view",
      "type": "function"
    },
    {
      "inputs": [],
      "name": "_isLive",
      "outputs": [
        {
          "internalType": "bool",
          "name": "",
          "type": "bool"
        }
      ],
      "stateMutability": "view",
      "type": "function"
    },
    {
      "inputs": [],
      "name": "_minBid",
      "outputs": [
        {
          "internalType": "uint256",
          "name": "",
          "type": "uint256"
        }
      ],
      "stateMutability": "view",
      "type": "function"
    },
    {
      "inputs": [],
      "name": "_reservePrice",
      "outputs": [
        {
          "internalType": "uint256",
          "name": "",
          "type": "uint256"
        }
      ],
      "stateMutability": "view",
      "type": "function"
    },
    {
      "inputs": [],
      "name": "_startingPrice",
      "outputs": [
        {
          "internalType": "uint256",
          "name": "",
          "type": "uint256"
        }
      ],
      "stateMutability": "view",
      "type": "function"
    },
    {
      "stateMutability": "payable",
      "type": "receive"
    },
    {
      "inputs": [
        {
          "internalType": "address",
          "name": "newAdmin",
          "type": "address"
        }
      ],
      "name": "approveAdmin",
      "outputs": [],
      "stateMutability": "nonpayable",
      "type": "function"
    },
    {
      "inputs": [
        {
          "internalType": "address",
          "name": "exAdmin",
          "type": "address"
        }
      ],
      "name": "removeAdmin",
      "outputs": [],
      "stateMutability": "nonpayable",
      "type": "function"
    },
    {
      "inputs": [
        {
          "internalType": "address",
          "name": "contractToMint",
          "type": "address"
        },
        {
          "internalType": "uint256",
          "name": "startingPrice",
          "type": "uint256"
        },
        {
          "internalType": "uint256",
          "name": "reservePrice",
          "type": "uint256"
        },
        {
          "internalType": "uint256",
          "name": "minBid",
          "type": "uint256"
        },
        {
          "internalType": "address",
          "name": "auctionBeneficiary",
          "type": "address"
        }
      ],
      "name": "setUpAuction",
      "outputs": [],
      "stateMutability": "nonpayable",
      "type": "function"
    },
    {
      "inputs": [],
      "name": "startAuction",
      "outputs": [],
      "stateMutability": "nonpayable",
      "type": "function"
    },
    {
      "inputs": [
        {
          "internalType": "uint256",
          "name": "amount",
          "type": "uint256"
        }
      ],
      "name": "placeBid",
      "outputs": [],
      "stateMutability": "payable",
      "type": "function"
    },
    {
      "inputs": [],
      "name": "closeAuction",
      "outputs": [],
      "stateMutability": "nonpayable",
      "type": "function"
    },
    {
      "inputs": [],
      "name": "cancelAuction",
      "outputs": [],
      "stateMutability": "nonpayable",
      "type": "function"
    },
    {
      "inputs": [
        {
          "internalType": "address",
          "name": "recipient",
          "type": "address"
        }
      ],
      "name": "withdrawContractFunds",
      "outputs": [],
      "stateMutability": "nonpayable",
      "type": "function"
    },
    {
      "inputs": [
        {
          "internalType": "address",
          "name": "newAdmin",
          "type": "address"
        }
      ],
      "name": "addAdmin",
      "outputs": [],
      "stateMutability": "nonpayable",
      "type": "function"
    }
  ],
  "bytecode": "0x608060405234801561001057600080fd5b506001600760003373ffffffffffffffffffffffffffffffffffffffff1673ffffffffffffffffffffffffffffffffffffffff16815260200190815260200160002060006101000a81548160ff021916908315150217905550612080806100786000396000f3fe6080604052600436106101025760003560e01c80636b64c769116100955780639979ef45116100645780639979ef45146102cc5780639db387ff146102e8578063b1b5ab7814610313578063e3364bf61461033e578063eb8addc21461036957610109565b80636b64c7691461024c5780636d73e66914610263578063704802751461028c5780638fa8b790146102b557610109565b80631cd5c9d8116100d15780631cd5c9d8146101b6578063251d9b0d146101e1578063378252f21461020c5780633a8262de1461022357610109565b8063170f58921461010e5780631785f53c14610139578063179474ac146101625780631c18a4571461018d57610109565b3661010957005b600080fd5b34801561011a57600080fd5b50610123610394565b604051610130919061147a565b60405180910390f35b34801561014557600080fd5b50610160600480360381019061015b91906114c6565b6103ba565b005b34801561016e57600080fd5b5061017761046b565b604051610184919061147a565b60405180910390f35b34801561019957600080fd5b506101b460048036038101906101af9190611529565b610491565b005b3480156101c257600080fd5b506101cb610674565b6040516101d891906115b3565b60405180910390f35b3480156101ed57600080fd5b506101f661067a565b60405161020391906115b3565b60405180910390f35b34801561021857600080fd5b50610221610680565b005b34801561022f57600080fd5b5061024a600480360381019061024591906114c6565b6109c6565b005b34801561025857600080fd5b50610261610acf565b005b34801561026f57600080fd5b5061028a600480360381019061028591906114c6565b610cea565b005b34801561029857600080fd5b506102b360048036038101906102ae91906114c6565b610d9b565b005b3480156102c157600080fd5b506102ca610e82565b005b6102e660048036038101906102e191906115ce565b610fdf565b005b3480156102f457600080fd5b506102fd611220565b60405161030a91906115b3565b60405180910390f35b34801561031f57600080fd5b50610328611226565b60405161033591906115b3565b60405180910390f35b34801561034a57600080fd5b5061035361122c565b604051610360919061147a565b60405180910390f35b34801561037557600080fd5b5061037e611252565b60405161038b9190611616565b60405180910390f35b600660009054906101000a900473ffffffffffffffffffffffffffffffffffffffff1681565b600760003373ffffffffffffffffffffffffffffffffffffffff1673ffffffffffffffffffffffffffffffffffffffff16815260200190815260200160002060009054906101000a900460ff1661041057600080fd5b6000600760008373ffffffffffffffffffffffffffffffffffffffff1673ffffffffffffffffffffffffffffffffffffffff16815260200190815260200160002060006101000a81548160ff02191690831515021790555050565b600460009054906101000a900473ffffffffffffffffffffffffffffffffffffffff1681565b600760003373ffffffffffffffffffffffffffffffffffffffff1673ffffffffffffffffffffffffffffffffffffffff16815260200190815260200160002060009054906101000a900460ff1661051d576040517f08c379a0000000000000000000000000000000000000000000000000000000008152600401610514906116b4565b60405180910390fd5b600073ffffffffffffffffffffffffffffffffffffffff168573ffffffffffffffffffffffffffffffffffffffff160361058c576040517f08c379a000000000000000000000000000000000000000000000000000000000815260040161058390611720565b60405180910390fd5b84600460006101000a81548173ffffffffffffffffffffffffffffffffffffffff021916908373ffffffffffffffffffffffffffffffffffffffff16021790555083600081905550826001819055508160028190555060006003819055506000600560006101000a81548173ffffffffffffffffffffffffffffffffffffffff021916908373ffffffffffffffffffffffffffffffffffffffff16021790555080600660006101000a81548173ffffffffffffffffffffffffffffffffffffffff021916908373ffffffffffffffffffffffffffffffffffffffff1602179055505050505050565b60005481565b60035481565b600760003373ffffffffffffffffffffffffffffffffffffffff1673ffffffffffffffffffffffffffffffffffffffff16815260200190815260200160002060009054906101000a900460ff1661070c576040517f08c379a0000000000000000000000000000000000000000000000000000000008152600401610703906117b2565b60405180910390fd5b600660149054906101000a900460ff1661075b576040517f08c379a00000000000000000000000000000000000000000000000000000000081526004016107529061181e565b60405180910390fd5b600073ffffffffffffffffffffffffffffffffffffffff16600660009054906101000a900473ffffffffffffffffffffffffffffffffffffffff1673ffffffffffffffffffffffffffffffffffffffff16036107ec576040517f08c379a00000000000000000000000000000000000000000000000000000000081526004016107e3906118b0565b60405180910390fd5b600154600354106109bb576000600660146101000a81548160ff0219169083151502179055506000600660009054906101000a900473ffffffffffffffffffffffffffffffffffffffff1673ffffffffffffffffffffffffffffffffffffffff166108fc479081150290604051600060405180830381858888f193505050509050806108ad576040517f08c379a00000000000000000000000000000000000000000000000000000000081526004016108a49061191c565b60405180910390fd5b600460009054906101000a900473ffffffffffffffffffffffffffffffffffffffff1673ffffffffffffffffffffffffffffffffffffffff16636a627842600560009054906101000a900473ffffffffffffffffffffffffffffffffffffffff166040518263ffffffff1660e01b815260040161092a919061147a565b600060405180830381600087803b15801561094457600080fd5b505af1158015610958573d6000803e3d6000fd5b505050507f662949f3eed0ba9168ccbbab84908b33b7966e1e59c2913a90b4faac442e8e93600560009054906101000a900473ffffffffffffffffffffffffffffffffffffffff166040516109ad919061147a565b60405180910390a1506109c4565b6109c3610e82565b5b565b600760003373ffffffffffffffffffffffffffffffffffffffff1673ffffffffffffffffffffffffffffffffffffffff16815260200190815260200160002060009054906101000a900460ff16610a52576040517f08c379a0000000000000000000000000000000000000000000000000000000008152600401610a49906119ae565b60405180910390fd5b60008173ffffffffffffffffffffffffffffffffffffffff166108fc479081150290604051600060405180830381858888f19350505050905080610acb576040517f08c379a0000000000000000000000000000000000000000000000000000000008152600401610ac29061191c565b60405180910390fd5b5050565b600760003373ffffffffffffffffffffffffffffffffffffffff1673ffffffffffffffffffffffffffffffffffffffff16815260200190815260200160002060009054906101000a900460ff16610b5b576040517f08c379a0000000000000000000000000000000000000000000000000000000008152600401610b52906116b4565b60405180910390fd5b600660149054906101000a900460ff1615610bab576040517f08c379a0000000000000000000000000000000000000000000000000000000008152600401610ba290611a1a565b60405180910390fd5b600073ffffffffffffffffffffffffffffffffffffffff16600460009054906101000a900473ffffffffffffffffffffffffffffffffffffffff1673ffffffffffffffffffffffffffffffffffffffff1603610c3c576040517f08c379a0000000000000000000000000000000000000000000000000000000008152600401610c3390611aac565b60405180910390fd5b600073ffffffffffffffffffffffffffffffffffffffff16600660009054906101000a900473ffffffffffffffffffffffffffffffffffffffff1673ffffffffffffffffffffffffffffffffffffffff1603610ccd576040517f08c379a0000000000000000000000000000000000000000000000000000000008152600401610cc490611b3e565b60405180910390fd5b6001600660146101000a81548160ff021916908315150217905550565b600760003373ffffffffffffffffffffffffffffffffffffffff1673ffffffffffffffffffffffffffffffffffffffff16815260200190815260200160002060009054906101000a900460ff16610d4057600080fd5b6001600760008373ffffffffffffffffffffffffffffffffffffffff1673ffffffffffffffffffffffffffffffffffffffff16815260200190815260200160002060006101000a81548160ff02191690831515021790555050565b600760003373ffffffffffffffffffffffffffffffffffffffff1673ffffffffffffffffffffffffffffffffffffffff16815260200190815260200160002060009054906101000a900460ff16610e27576040517f08c379a0000000000000000000000000000000000000000000000000000000008152600401610e1e90611bd0565b60405180910390fd5b6001600760008373ffffffffffffffffffffffffffffffffffffffff1673ffffffffffffffffffffffffffffffffffffffff16815260200190815260200160002060006101000a81548160ff02191690831515021790555050565b600760003373ffffffffffffffffffffffffffffffffffffffff1673ffffffffffffffffffffffffffffffffffffffff16815260200190815260200160002060009054906101000a900460ff16610f0e576040517f08c379a0000000000000000000000000000000000000000000000000000000008152600401610f0590611c62565b60405180910390fd5b600660149054906101000a900460ff16610f5d576040517f08c379a0000000000000000000000000000000000000000000000000000000008152600401610f5490611cf4565b60405180910390fd5b610f65611265565b6000600660146101000a81548160ff0219169083151502179055507f018b64b6242d32aa550e95d78985b938d71af5b3f10827b0683f55da16393048600560009054906101000a900473ffffffffffffffffffffffffffffffffffffffff16600354604051610fd5929190611d14565b60405180910390a1565b600254600354610fef9190611d6c565b811015611031576040517f08c379a000000000000000000000000000000000000000000000000000000000815260040161102890611e0e565b60405180910390fd5b80341015611074576040517f08c379a000000000000000000000000000000000000000000000000000000000815260040161106b90611e7a565b60405180910390fd5b600660149054906101000a900460ff166110c3576040517f08c379a00000000000000000000000000000000000000000000000000000000081526004016110ba90611ee6565b60405180910390fd5b60003073ffffffffffffffffffffffffffffffffffffffff166108fc839081150290604051600060405180830381858888f1935050505090508061113c576040517f08c379a000000000000000000000000000000000000000000000000000000000815260040161113390611f52565b60405180910390fd5b600073ffffffffffffffffffffffffffffffffffffffff16600560009054906101000a900473ffffffffffffffffffffffffffffffffffffffff1673ffffffffffffffffffffffffffffffffffffffff161461119b5761119a611265565b5b33600560006101000a81548173ffffffffffffffffffffffffffffffffffffffff021916908373ffffffffffffffffffffffffffffffffffffffff160217905550816003819055507f3fabff0a9c3ecd6814702e247fa9733e5d0aa69e3a38590f92cb18f623a2254d3383604051611214929190611d14565b60405180910390a15050565b60025481565b60015481565b600560009054906101000a900473ffffffffffffffffffffffffffffffffffffffff1681565b600660149054906101000a900460ff1681565b600073ffffffffffffffffffffffffffffffffffffffff16600560009054906101000a900473ffffffffffffffffffffffffffffffffffffffff1673ffffffffffffffffffffffffffffffffffffffff16036112f6576040517f08c379a00000000000000000000000000000000000000000000000000000000081526004016112ed90611fbe565b60405180910390fd5b6000600354101561133c576040517f08c379a00000000000000000000000000000000000000000000000000000000081526004016113339061202a565b60405180910390fd5b6000600560009054906101000a900473ffffffffffffffffffffffffffffffffffffffff1673ffffffffffffffffffffffffffffffffffffffff166108fc6003549081150290604051600060405180830381858888f193505050509050806113d9576040517f08c379a00000000000000000000000000000000000000000000000000000000081526004016113d09061191c565b60405180910390fd5b7f75a0cba827b0d4e7ad9c64bb1011c21a622c376c3cb72ffbe500b6d0c3cc2596600560009054906101000a900473ffffffffffffffffffffffffffffffffffffffff1660035460405161142e929190611d14565b60405180910390a150565b600073ffffffffffffffffffffffffffffffffffffffff82169050919050565b600061146482611439565b9050919050565b61147481611459565b82525050565b600060208201905061148f600083018461146b565b92915050565b600080fd5b6114a381611459565b81146114ae57600080fd5b50565b6000813590506114c08161149a565b92915050565b6000602082840312156114dc576114db611495565b5b60006114ea848285016114b1565b91505092915050565b6000819050919050565b611506816114f3565b811461151157600080fd5b50565b600081359050611523816114fd565b92915050565b600080600080600060a0868803121561154557611544611495565b5b6000611553888289016114b1565b955050602061156488828901611514565b945050604061157588828901611514565b935050606061158688828901611514565b9250506080611597888289016114b1565b9150509295509295909350565b6115ad816114f3565b82525050565b60006020820190506115c860008301846115a4565b92915050565b6000602082840312156115e4576115e3611495565b5b60006115f284828501611514565b91505092915050565b60008115159050919050565b611610816115fb565b82525050565b600060208201905061162b6000830184611607565b92915050565b600082825260208201905092915050565b7f4f6e6c7920616e2061646d696e2063616e20737461727420616e20617563746960008201527f6f6e000000000000000000000000000000000000000000000000000000000000602082015250565b600061169e602283611631565b91506116a982611642565b604082019050919050565b600060208201905081810360008301526116cd81611691565b9050919050565b7f496e76616c696420636f6e747261637420616464726573730000000000000000600082015250565b600061170a601883611631565b9150611715826116d4565b602082019050919050565b60006020820190508181036000830152611739816116fd565b9050919050565b7f4f6e6c7920616e2061646d696e2063616e20636c6f736520616e20617563746960008201527f6f6e000000000000000000000000000000000000000000000000000000000000602082015250565b600061179c602283611631565b91506117a782611740565b604082019050919050565b600060208201905081810360008301526117cb8161178f565b9050919050565b7f41756374696f6e20697320616c726561647920636c6f73656400000000000000600082015250565b6000611808601983611631565b9150611813826117d2565b602082019050919050565b60006020820190508181036000830152611837816117fb565b9050919050565b7f41756374696f6e2062656e65666963696172792063616e27742062652030206160008201527f6464726573730000000000000000000000000000000000000000000000000000602082015250565b600061189a602683611631565b91506118a58261183e565b604082019050919050565b600060208201905081810360008301526118c98161188d565b9050919050565b7f5472616e73666572206661696c65640000000000000000000000000000000000600082015250565b6000611906600f83611631565b9150611911826118d0565b602082019050919050565b60006020820190508181036000830152611935816118f9565b9050919050565b7f4f6e6c7920616e2061646d696e2063616e2072657472756e207468652066756e60008201527f64732061756374696f6e00000000000000000000000000000000000000000000602082015250565b6000611998602a83611631565b91506119a38261193c565b604082019050919050565b600060208201905081810360008301526119c78161198b565b9050919050565b7f41756374696f6e20697320616c7265616479206f70656e656400000000000000600082015250565b6000611a04601983611631565b9150611a0f826119ce565b602082019050919050565b60006020820190508181036000830152611a33816119f7565b9050919050565b7f43616e6e6f7420737461727420616e2061756374696f6e20696620636f6e747260008201527f61637420746f206265206d696e746564206e6f7420646566696e656400000000602082015250565b6000611a96603c83611631565b9150611aa182611a3a565b604082019050919050565b60006020820190508181036000830152611ac581611a89565b9050919050565b7f43616e6e6f7420737461727420616e2061756374696f6e206966206e6f20617560008201527f6374696f6e2062656e656669636961727920697320646566696e656400000000602082015250565b6000611b28603c83611631565b9150611b3382611acc565b604082019050919050565b60006020820190508181036000830152611b5781611b1b565b9050919050565b7f4f6e6c7920616e2061646d696e2063616e2061646420616e6f74686572206f6e60008201527f6500000000000000000000000000000000000000000000000000000000000000602082015250565b6000611bba602183611631565b9150611bc582611b5e565b604082019050919050565b60006020820190508181036000830152611be981611bad565b9050919050565b7f4f6e6c7920616e2061646d696e2063616e2063616e63656c20616e206175637460008201527f696f6e0000000000000000000000000000000000000000000000000000000000602082015250565b6000611c4c602383611631565b9150611c5782611bf0565b604082019050919050565b60006020820190508181036000830152611c7b81611c3f565b9050919050565b7f596f752063616e6e6f742063616e63656c206120636c6f73656420417563746960008201527f6f6e000000000000000000000000000000000000000000000000000000000000602082015250565b6000611cde602283611631565b9150611ce982611c82565b604082019050919050565b60006020820190508181036000830152611d0d81611cd1565b9050919050565b6000604082019050611d29600083018561146b565b611d3660208301846115a4565b9392505050565b7f4e487b7100000000000000000000000000000000000000000000000000000000600052601160045260246000fd5b6000611d77826114f3565b9150611d82836114f3565b9250827fffffffffffffffffffffffffffffffffffffffffffffffffffffffffffffffff03821115611db757611db6611d3d565b5b828201905092915050565b7f42696420746f6f20736d616c6c00000000000000000000000000000000000000600082015250565b6000611df8600d83611631565b9150611e0382611dc2565b602082019050919050565b60006020820190508181036000830152611e2781611deb565b9050919050565b7f4e6f7420656e6f7567682066756e64732073656e740000000000000000000000600082015250565b6000611e64601583611631565b9150611e6f82611e2e565b602082019050919050565b60006020820190508181036000830152611e9381611e57565b9050919050565b7f41756374696f6e20697320636c6f736564000000000000000000000000000000600082015250565b6000611ed0601183611631565b9150611edb82611e9a565b602082019050919050565b60006020820190508181036000830152611eff81611ec3565b9050919050565b7f426964206661696c656400000000000000000000000000000000000000000000600082015250565b6000611f3c600a83611631565b9150611f4782611f06565b602082019050919050565b60006020820190508181036000830152611f6b81611f2f565b9050919050565b7f43616e6e6f7420726566756e6420746865203020616464726573730000000000600082015250565b6000611fa8601b83611631565b9150611fb382611f72565b602082019050919050565b60006020820190508181036000830152611fd781611f9b565b9050919050565b7f43616e6e6f7420726566756e64206120626964206f6620300000000000000000600082015250565b6000612014601883611631565b915061201f82611fde565b602082019050919050565b6000602082019050818103600083015261204381612007565b905091905056fea26469706673582212200e74b29fe18e8f4d0e7a9e8d283d2825f456813455794ec3fa6767c3703a4d0264736f6c634300080d0033",
  "immutableReferences": {},
  "source": "// SPDX-License-Identifier: MIT\n\npragma solidity >= 0.8.13;\n\nimport \"./AnastasisAct1.sol\";\nimport \"@openzeppelin/contracts/token/ERC1155/IERC1155.sol\";\n\ncontract AnastasisAuction {\n\n    uint256 public _startingPrice;\n    uint256 public _reservePrice;\n    uint256 public _minBid;\n    uint256 public _currentTopBid;\n\n    address public _contractToMint;\n    address public _highestBidder;\n    address public _auctionBeneficiary;\n    \n    bool public _isLive;\n\n    mapping(address => bool) _isAdmin;\n\n    event BidPlaced( address bidder, uint256 amount);\n    event BidReturned(address bidder, uint256 amount);\n    event AuctionEnded (address winner);\n    event AuctionCancelled (address _highestBidder, uint256 refundAmount);\n\n\n    constructor(){\n        _isAdmin[msg.sender] = true;\n    }\n\n    function approveAdmin(address newAdmin)external{\n        require(_isAdmin[msg.sender]);\n        _isAdmin[newAdmin] = true;\n    }\n\n    function removeAdmin(address exAdmin)external{\n        require(_isAdmin[msg.sender]);\n        _isAdmin[exAdmin] = false;\n    }\n\n    function setUpAuction(\n        address contractToMint, \n        uint256 startingPrice,\n        uint256 reservePrice,\n        uint256 minBid,\n        address auctionBeneficiary\n    )external{\n        require(_isAdmin[msg.sender], \"Only an admin can start an auction\");\n        require(contractToMint != address (0), \"Invalid contract address\");\n        _contractToMint = contractToMint;\n        _startingPrice = startingPrice;\n        _reservePrice = reservePrice;\n        _minBid = minBid;\n        _currentTopBid = 0;\n        _highestBidder = address(0);\n        _auctionBeneficiary = auctionBeneficiary;\n    }\n\n    function startAuction()external{\n        require(_isAdmin[msg.sender], \"Only an admin can start an auction\");\n        require(!_isLive, \"Auction is already opened\");\n        require(_contractToMint != address (0), \"Cannot start an auction if contract to be minted not defined\");\n        require(_auctionBeneficiary != address (0), \"Cannot start an auction if no auction beneficiary is defined\");\n        _isLive = true;\n    }\n\n    receive() external payable {\n    }\n\n\n    function placeBid(\n        uint256 amount\n    )external payable{\n        require(amount >= _currentTopBid + _minBid, \"Bid too small\");\n        require(msg.value >= amount, \"Not enough funds sent\");\n        require(_isLive, \"Auction is closed\");\n        bool sent = payable(address(this)).send(amount);\n        require(sent, \"Bid failed\");\n        if(_highestBidder != address(0)){\n            returnCurrentBid();\n        }\n        _highestBidder = msg.sender;\n        _currentTopBid = amount;\n        emit BidPlaced(msg.sender, amount);\n    }\n\n    function closeAuction()external{\n        require(_isAdmin[msg.sender], \"Only an admin can close an auction\");\n        require(_isLive, \"Auction is already closed\");\n        require(_auctionBeneficiary != address(0)   , \"Auction beneficiary can't be 0 address\");\n        if(_currentTopBid >= _reservePrice){\n            _isLive = false;\n            bool sent = payable(_auctionBeneficiary).send(address(this).balance);\n            require(sent, \"Transfer failed\");\n            Anastasis_Act1(_contractToMint).mint(_highestBidder);\n            emit AuctionEnded(_highestBidder);\n        }else{\n            cancelAuction();\n        }\n    }\n\n    function cancelAuction()public{\n        require(_isAdmin[msg.sender], \"Only an admin can cancel an auction\");\n        require(_isLive, \"You cannot cancel a closed Auction\");\n        returnCurrentBid();\n        _isLive = false;\n        emit AuctionCancelled (_highestBidder, _currentTopBid);\n    }\n\n    function withdrawContractFunds(address recipient) external {\n        require(_isAdmin[msg.sender], \"Only an admin can retrun the funds auction\");\n         bool sent = payable(recipient).send(address(this).balance);\n         require(sent, \"Transfer failed\");\n    }\n\n    function addAdmin(address newAdmin) external{\n        require(_isAdmin[msg.sender], \"Only an admin can add another one\");\n        _isAdmin[newAdmin] = true;\n    }\n\n    function returnCurrentBid()internal{\n        require(_highestBidder != address(0), \"Cannot refund the 0 address\");\n        require(_currentTopBid >= 0, \"Cannot refund a bid of 0\");\n        bool sent = payable(_highestBidder).send(_currentTopBid);\n        require(sent, \"Transfer failed\");\n        emit BidReturned(_highestBidder, _currentTopBid);\n    }\n\n}",
  "sourcePath": "/Users/bct/Documents/Dev/NFT_dev/Anastasis/contracts/AnastasisAct1Mint.sol",
  "compiler": {
    "name": "solc",
    "version": "0.8.13+commit.abaa5c0e.Emscripten.clang"
  },
  "schemaVersion": "3.4.4",
  "updatedAt": "2022-09-26T19:18:33.344Z",
  "devdoc": {
    "kind": "dev",
    "methods": {},
    "version": 1
  },
  "userdoc": {
    "kind": "user",
    "methods": {},
    "version": 1
  }
}