{
  "contractName": "AnastasisLimitedEdition",
  "abi": [
    {
      "inputs": [],
      "stateMutability": "nonpayable",
      "type": "constructor"
    },
    {
      "inputs": [],
      "name": "_ALMintOpened",
      "outputs": [
        {
          "internalType": "bool",
          "name": "",
          "type": "bool"
        }
      ],
      "stateMutability": "view",
      "type": "function"
    },
    {
      "inputs": [],
      "name": "_anastasisAct2Address",
      "outputs": [
        {
          "internalType": "address",
          "name": "",
          "type": "address"
        }
      ],
      "stateMutability": "view",
      "type": "function"
    },
    {
      "inputs": [],
      "name": "_anastasisAct3Address",
      "outputs": [
        {
          "internalType": "address",
          "name": "",
          "type": "address"
        }
      ],
      "stateMutability": "view",
      "type": "function"
    },
    {
      "inputs": [],
      "name": "_ashAddress",
      "outputs": [
        {
          "internalType": "address",
          "name": "",
          "type": "address"
        }
      ],
      "stateMutability": "view",
      "type": "function"
    },
    {
      "inputs": [],
      "name": "_ashMintOpened",
      "outputs": [
        {
          "internalType": "bool",
          "name": "",
          "type": "bool"
        }
      ],
      "stateMutability": "view",
      "type": "function"
    },
    {
      "inputs": [],
      "name": "_fomoMintOpened",
      "outputs": [
        {
          "internalType": "bool",
          "name": "",
          "type": "bool"
        }
      ],
      "stateMutability": "view",
      "type": "function"
    },
    {
      "inputs": [],
      "name": "_fomoverseAddress",
      "outputs": [
        {
          "internalType": "address",
          "name": "",
          "type": "address"
        }
      ],
      "stateMutability": "view",
      "type": "function"
    },
    {
      "inputs": [],
      "name": "_price",
      "outputs": [
        {
          "internalType": "uint256",
          "name": "",
          "type": "uint256"
        }
      ],
      "stateMutability": "view",
      "type": "function"
    },
    {
      "inputs": [],
      "name": "_publicMintOpened",
      "outputs": [
        {
          "internalType": "bool",
          "name": "",
          "type": "bool"
        }
      ],
      "stateMutability": "view",
      "type": "function"
    },
    {
      "inputs": [
        {
          "internalType": "address",
          "name": "newAdmin",
          "type": "address"
        }
      ],
      "name": "approveAdmin",
      "outputs": [],
      "stateMutability": "nonpayable",
      "type": "function"
    },
    {
      "inputs": [
        {
          "internalType": "address",
          "name": "exAdmin",
          "type": "address"
        }
      ],
      "name": "removeAdmin",
      "outputs": [],
      "stateMutability": "nonpayable",
      "type": "function"
    },
    {
      "inputs": [
        {
          "internalType": "address",
          "name": "recipient",
          "type": "address"
        }
      ],
      "name": "setRecipient",
      "outputs": [],
      "stateMutability": "nonpayable",
      "type": "function"
    },
    {
      "inputs": [
        {
          "internalType": "address",
          "name": "signer",
          "type": "address"
        }
      ],
      "name": "setSigner",
      "outputs": [],
      "stateMutability": "nonpayable",
      "type": "function"
    },
    {
      "inputs": [
        {
          "internalType": "address",
          "name": "ashAddress",
          "type": "address"
        }
      ],
      "name": "setAshAddress",
      "outputs": [],
      "stateMutability": "nonpayable",
      "type": "function"
    },
    {
      "inputs": [
        {
          "internalType": "address",
          "name": "anastasisAct2Address",
          "type": "address"
        }
      ],
      "name": "setAnastasisAct2Address",
      "outputs": [],
      "stateMutability": "nonpayable",
      "type": "function"
    },
    {
      "inputs": [
        {
          "internalType": "address",
          "name": "anastasisAct3Address",
          "type": "address"
        }
      ],
      "name": "setAnastasisAct3Address",
      "outputs": [],
      "stateMutability": "nonpayable",
      "type": "function"
    },
    {
      "inputs": [
        {
          "internalType": "address",
          "name": "FOMOAddress",
          "type": "address"
        }
      ],
      "name": "setFOMOAddress",
      "outputs": [],
      "stateMutability": "nonpayable",
      "type": "function"
    },
    {
      "inputs": [],
      "name": "toggleFomoMintOpened",
      "outputs": [],
      "stateMutability": "nonpayable",
      "type": "function"
    },
    {
      "inputs": [],
      "name": "toggleAshMintOpened",
      "outputs": [],
      "stateMutability": "nonpayable",
      "type": "function"
    },
    {
      "inputs": [],
      "name": "toggleALMintOpened",
      "outputs": [],
      "stateMutability": "nonpayable",
      "type": "function"
    },
    {
      "inputs": [],
      "name": "togglePublicMintOpened",
      "outputs": [],
      "stateMutability": "nonpayable",
      "type": "function"
    },
    {
      "inputs": [],
      "name": "fomoHoldersMint",
      "outputs": [],
      "stateMutability": "payable",
      "type": "function"
    },
    {
      "inputs": [],
      "name": "ashHoldersMint",
      "outputs": [],
      "stateMutability": "payable",
      "type": "function"
    },
    {
      "inputs": [
        {
          "internalType": "uint8",
          "name": "v",
          "type": "uint8"
        },
        {
          "internalType": "bytes32",
          "name": "r",
          "type": "bytes32"
        },
        {
          "internalType": "bytes32",
          "name": "s",
          "type": "bytes32"
        }
      ],
      "name": "selectedMint",
      "outputs": [],
      "stateMutability": "payable",
      "type": "function"
    },
    {
      "inputs": [],
      "name": "publicMint",
      "outputs": [],
      "stateMutability": "payable",
      "type": "function"
    }
  ],
  "bytecode": "0x6080604052666a94d74f4300006000557364d91f12ece7362f91a6f8e7940cd55f05060b92600160006101000a81548173ffffffffffffffffffffffffffffffffffffffff021916908373ffffffffffffffffffffffffffffffffffffffff1602179055507374bb71a4210e33256885def483fd4227b7f9d88f600260006101000a81548173ffffffffffffffffffffffffffffffffffffffff021916908373ffffffffffffffffffffffffffffffffffffffff1602179055507364d91f12ece7362f91a6f8e7940cd55f05060b92600360006101000a81548173ffffffffffffffffffffffffffffffffffffffff021916908373ffffffffffffffffffffffffffffffffffffffff1602179055507364d91f12ece7362f91a6f8e7940cd55f05060b92600460006101000a81548173ffffffffffffffffffffffffffffffffffffffff021916908373ffffffffffffffffffffffffffffffffffffffff16021790555034801561016f57600080fd5b506001600760003373ffffffffffffffffffffffffffffffffffffffff1673ffffffffffffffffffffffffffffffffffffffff16815260200190815260200160002060006101000a81548160ff021916908315150217905550612163806101d76000396000f3fe6080604052600436106101665760003560e01c806390f40b85116100d1578063acb4f9411161008a578063cbaa64a011610064578063cbaa64a014610443578063dfa9ea7f1461046e578063ef3ef4e514610485578063ff873e1b146104b057610166565b8063acb4f941146103e3578063aecd2cd01461040e578063b3ea85e71461043957610166565b806390f40b851461030f57806392c6354814610326578063932796ce146103515780639b437ba41461037a5780639c04924e14610391578063abffaf4a146103ba57610166565b806361707e3a1161012357806361707e3a146102135780636c19e7831461023e5780636d73e66914610267578063724bfed61461029057806374ef3962146102bb57806382e02c30146102e457610166565b80630a20fea71461016b5780631785f53c14610182578063235b6ea1146101ab57806326092b83146101d65780633bbed4a0146101e05780633e000fce14610209575b600080fd5b34801561017757600080fd5b506101806104cc565b005b34801561018e57600080fd5b506101a960048036038101906101a49190611ad9565b61054e565b005b3480156101b757600080fd5b506101c06105ff565b6040516101cd9190611b1f565b60405180910390f35b6101de610605565b005b3480156101ec57600080fd5b5061020760048036038101906102029190611ad9565b6108ab565b005b610211610945565b005b34801561021f57600080fd5b50610228610cca565b6040516102359190611b49565b60405180910390f35b34801561024a57600080fd5b5061026560048036038101906102609190611ad9565b610cf0565b005b34801561027357600080fd5b5061028e60048036038101906102899190611ad9565b610dc0565b005b34801561029c57600080fd5b506102a5610e71565b6040516102b29190611b49565b60405180910390f35b3480156102c757600080fd5b506102e260048036038101906102dd9190611ad9565b610e97565b005b3480156102f057600080fd5b506102f9610f31565b6040516103069190611b49565b60405180910390f35b34801561031b57600080fd5b50610324610f57565b005b34801561033257600080fd5b5061033b610fd9565b6040516103489190611b7f565b60405180910390f35b34801561035d57600080fd5b5061037860048036038101906103739190611ad9565b610fec565b005b34801561038657600080fd5b5061038f611086565b005b34801561039d57600080fd5b506103b860048036038101906103b39190611ad9565b611108565b005b3480156103c657600080fd5b506103e160048036038101906103dc9190611ad9565b6111a2565b005b3480156103ef57600080fd5b506103f861123c565b6040516104059190611b7f565b60405180910390f35b34801561041a57600080fd5b5061042361124f565b6040516104309190611b49565b60405180910390f35b610441611275565b005b34801561044f57600080fd5b50610458611674565b6040516104659190611b7f565b60405180910390f35b34801561047a57600080fd5b50610483611687565b005b34801561049157600080fd5b5061049a611709565b6040516104a79190611b7f565b60405180910390f35b6104ca60048036038101906104c59190611c09565b61171c565b005b600760003373ffffffffffffffffffffffffffffffffffffffff1673ffffffffffffffffffffffffffffffffffffffff16815260200190815260200160002060009054906101000a900460ff1661052257600080fd5b600660169054906101000a900460ff1615600660166101000a81548160ff021916908315150217905550565b600760003373ffffffffffffffffffffffffffffffffffffffff1673ffffffffffffffffffffffffffffffffffffffff16815260200190815260200160002060009054906101000a900460ff166105a457600080fd5b6000600760008373ffffffffffffffffffffffffffffffffffffffff1673ffffffffffffffffffffffffffffffffffffffff16815260200190815260200160002060006101000a81548160ff02191690831515021790555050565b60005481565b600660179054906101000a900460ff16610654576040517f08c379a000000000000000000000000000000000000000000000000000000000815260040161064b90611cb9565b60405180910390fd5b600054341015610699576040517f08c379a000000000000000000000000000000000000000000000000000000000815260040161069090611d25565b60405180910390fd5b600860003373ffffffffffffffffffffffffffffffffffffffff1673ffffffffffffffffffffffffffffffffffffffff16815260200190815260200160002060009054906101000a900460ff1615610726576040517f08c379a000000000000000000000000000000000000000000000000000000000815260040161071d90611d91565b60405180910390fd5b6000600560009054906101000a900473ffffffffffffffffffffffffffffffffffffffff1673ffffffffffffffffffffffffffffffffffffffff166108fc6000549081150290604051600060405180830381858888f193505050509050806107c3576040517f08c379a00000000000000000000000000000000000000000000000000000000081526004016107ba90611dfd565b60405180910390fd5b6001600860003373ffffffffffffffffffffffffffffffffffffffff1673ffffffffffffffffffffffffffffffffffffffff16815260200190815260200160002060006101000a81548160ff021916908315150217905550600460009054906101000a900473ffffffffffffffffffffffffffffffffffffffff1673ffffffffffffffffffffffffffffffffffffffff16636a627842336040518263ffffffff1660e01b81526004016108769190611b49565b600060405180830381600087803b15801561089057600080fd5b505af11580156108a4573d6000803e3d6000fd5b5050505050565b600760003373ffffffffffffffffffffffffffffffffffffffff1673ffffffffffffffffffffffffffffffffffffffff16815260200190815260200160002060009054906101000a900460ff1661090157600080fd5b80600560006101000a81548173ffffffffffffffffffffffffffffffffffffffff021916908373ffffffffffffffffffffffffffffffffffffffff16021790555050565b600660149054906101000a900460ff16610994576040517f08c379a000000000000000000000000000000000000000000000000000000000815260040161098b90611cb9565b60405180910390fd5b6001600260009054906101000a900473ffffffffffffffffffffffffffffffffffffffff1673ffffffffffffffffffffffffffffffffffffffff166370a08231336040518263ffffffff1660e01b81526004016109f19190611b49565b602060405180830381865afa158015610a0e573d6000803e3d6000fd5b505050506040513d601f19601f82011682018060405250810190610a329190611e49565b1015610a73576040517f08c379a0000000000000000000000000000000000000000000000000000000008152600401610a6a90611ec2565b60405180910390fd5b600054341015610ab8576040517f08c379a0000000000000000000000000000000000000000000000000000000008152600401610aaf90611d25565b60405180910390fd5b600960003373ffffffffffffffffffffffffffffffffffffffff1673ffffffffffffffffffffffffffffffffffffffff16815260200190815260200160002060009054906101000a900460ff1615610b45576040517f08c379a0000000000000000000000000000000000000000000000000000000008152600401610b3c90611d91565b60405180910390fd5b6000600560009054906101000a900473ffffffffffffffffffffffffffffffffffffffff1673ffffffffffffffffffffffffffffffffffffffff166108fc6000549081150290604051600060405180830381858888f19350505050905080610be2576040517f08c379a0000000000000000000000000000000000000000000000000000000008152600401610bd990611dfd565b60405180910390fd5b6001600960003373ffffffffffffffffffffffffffffffffffffffff1673ffffffffffffffffffffffffffffffffffffffff16815260200190815260200160002060006101000a81548160ff021916908315150217905550600460009054906101000a900473ffffffffffffffffffffffffffffffffffffffff1673ffffffffffffffffffffffffffffffffffffffff16636a627842336040518263ffffffff1660e01b8152600401610c959190611b49565b600060405180830381600087803b158015610caf57600080fd5b505af1158015610cc3573d6000803e3d6000fd5b5050505050565b600460009054906101000a900473ffffffffffffffffffffffffffffffffffffffff1681565b600760003373ffffffffffffffffffffffffffffffffffffffff1673ffffffffffffffffffffffffffffffffffffffff16815260200190815260200160002060009054906101000a900460ff16610d7c576040517f08c379a0000000000000000000000000000000000000000000000000000000008152600401610d7390611f2e565b60405180910390fd5b80600660006101000a81548173ffffffffffffffffffffffffffffffffffffffff021916908373ffffffffffffffffffffffffffffffffffffffff16021790555050565b600760003373ffffffffffffffffffffffffffffffffffffffff1673ffffffffffffffffffffffffffffffffffffffff16815260200190815260200160002060009054906101000a900460ff16610e1657600080fd5b6001600760008373ffffffffffffffffffffffffffffffffffffffff1673ffffffffffffffffffffffffffffffffffffffff16815260200190815260200160002060006101000a81548160ff02191690831515021790555050565b600360009054906101000a900473ffffffffffffffffffffffffffffffffffffffff1681565b600760003373ffffffffffffffffffffffffffffffffffffffff1673ffffffffffffffffffffffffffffffffffffffff16815260200190815260200160002060009054906101000a900460ff16610eed57600080fd5b80600160006101000a81548173ffffffffffffffffffffffffffffffffffffffff021916908373ffffffffffffffffffffffffffffffffffffffff16021790555050565b600260009054906101000a900473ffffffffffffffffffffffffffffffffffffffff1681565b600760003373ffffffffffffffffffffffffffffffffffffffff1673ffffffffffffffffffffffffffffffffffffffff16815260200190815260200160002060009054906101000a900460ff16610fad57600080fd5b600660149054906101000a900460ff1615600660146101000a81548160ff021916908315150217905550565b600660149054906101000a900460ff1681565b600760003373ffffffffffffffffffffffffffffffffffffffff1673ffffffffffffffffffffffffffffffffffffffff16815260200190815260200160002060009054906101000a900460ff1661104257600080fd5b80600360006101000a81548173ffffffffffffffffffffffffffffffffffffffff021916908373ffffffffffffffffffffffffffffffffffffffff16021790555050565b600760003373ffffffffffffffffffffffffffffffffffffffff1673ffffffffffffffffffffffffffffffffffffffff16815260200190815260200160002060009054906101000a900460ff166110dc57600080fd5b600660159054906101000a900460ff1615600660156101000a81548160ff021916908315150217905550565b600760003373ffffffffffffffffffffffffffffffffffffffff1673ffffffffffffffffffffffffffffffffffffffff16815260200190815260200160002060009054906101000a900460ff1661115e57600080fd5b80600460006101000a81548173ffffffffffffffffffffffffffffffffffffffff021916908373ffffffffffffffffffffffffffffffffffffffff16021790555050565b600760003373ffffffffffffffffffffffffffffffffffffffff1673ffffffffffffffffffffffffffffffffffffffff16815260200190815260200160002060009054906101000a900460ff166111f857600080fd5b80600260006101000a81548173ffffffffffffffffffffffffffffffffffffffff021916908373ffffffffffffffffffffffffffffffffffffffff16021790555050565b600660179054906101000a900460ff1681565b600160009054906101000a900473ffffffffffffffffffffffffffffffffffffffff1681565b600660159054906101000a900460ff166112c4576040517f08c379a00000000000000000000000000000000000000000000000000000000081526004016112bb90611cb9565b60405180910390fd5b6001600360009054906101000a900473ffffffffffffffffffffffffffffffffffffffff1673ffffffffffffffffffffffffffffffffffffffff166370a08231336040518263ffffffff1660e01b81526004016113219190611b49565b602060405180830381865afa15801561133e573d6000803e3d6000fd5b505050506040513d601f19601f820116820180604052508101906113629190611e49565b10158015611414575068015af1d78b58c40000600160009054906101000a900473ffffffffffffffffffffffffffffffffffffffff1673ffffffffffffffffffffffffffffffffffffffff166370a08231336040518263ffffffff1660e01b81526004016113d09190611b49565b602060405180830381865afa1580156113ed573d6000803e3d6000fd5b505050506040513d601f19601f820116820180604052508101906114119190611e49565b10155b61141d57600080fd5b600054341015611462576040517f08c379a000000000000000000000000000000000000000000000000000000000815260040161145990611d25565b60405180910390fd5b600960003373ffffffffffffffffffffffffffffffffffffffff1673ffffffffffffffffffffffffffffffffffffffff16815260200190815260200160002060009054906101000a900460ff16156114ef576040517f08c379a00000000000000000000000000000000000000000000000000000000081526004016114e690611d91565b60405180910390fd5b6000600560009054906101000a900473ffffffffffffffffffffffffffffffffffffffff1673ffffffffffffffffffffffffffffffffffffffff166108fc6000549081150290604051600060405180830381858888f1935050505090508061158c576040517f08c379a000000000000000000000000000000000000000000000000000000000815260040161158390611dfd565b60405180910390fd5b6001600960003373ffffffffffffffffffffffffffffffffffffffff1673ffffffffffffffffffffffffffffffffffffffff16815260200190815260200160002060006101000a81548160ff021916908315150217905550600460009054906101000a900473ffffffffffffffffffffffffffffffffffffffff1673ffffffffffffffffffffffffffffffffffffffff16636a627842336040518263ffffffff1660e01b815260040161163f9190611b49565b600060405180830381600087803b15801561165957600080fd5b505af115801561166d573d6000803e3d6000fd5b5050505050565b600660159054906101000a900460ff1681565b600760003373ffffffffffffffffffffffffffffffffffffffff1673ffffffffffffffffffffffffffffffffffffffff16815260200190815260200160002060009054906101000a900460ff166116dd57600080fd5b600660179054906101000a900460ff1615600660176101000a81548160ff021916908315150217905550565b600660169054906101000a900460ff1681565b6117278383836118fd565b61173057600080fd5b600054341015611775576040517f08c379a000000000000000000000000000000000000000000000000000000000815260040161176c90611d25565b60405180910390fd5b6000600560009054906101000a900473ffffffffffffffffffffffffffffffffffffffff1673ffffffffffffffffffffffffffffffffffffffff166108fc6000549081150290604051600060405180830381858888f19350505050905080611812576040517f08c379a000000000000000000000000000000000000000000000000000000000815260040161180990611dfd565b60405180910390fd5b6001600960003373ffffffffffffffffffffffffffffffffffffffff1673ffffffffffffffffffffffffffffffffffffffff16815260200190815260200160002060006101000a81548160ff021916908315150217905550600460009054906101000a900473ffffffffffffffffffffffffffffffffffffffff1673ffffffffffffffffffffffffffffffffffffffff16636a627842336040518263ffffffff1660e01b81526004016118c59190611b49565b600060405180830381600087803b1580156118df57600080fd5b505af11580156118f3573d6000803e3d6000fd5b5050505050505050565b6000600133600460009054906101000a900473ffffffffffffffffffffffffffffffffffffffff16600660169054906101000a900460ff16600960003373ffffffffffffffffffffffffffffffffffffffff1673ffffffffffffffffffffffffffffffffffffffff16815260200190815260200160002060009054906101000a900460ff166040516020016119959493929190611fde565b604051602081830303815290604052805190602001206040516020016119bb91906120a4565b60405160208183030381529060405280519060200120858585604051600081526020016040526040516119f194939291906120e8565b6020604051602081039080840390855afa158015611a13573d6000803e3d6000fd5b5050506020604051035173ffffffffffffffffffffffffffffffffffffffff16600660009054906101000a900473ffffffffffffffffffffffffffffffffffffffff1673ffffffffffffffffffffffffffffffffffffffff161490509392505050565b600080fd5b600073ffffffffffffffffffffffffffffffffffffffff82169050919050565b6000611aa682611a7b565b9050919050565b611ab681611a9b565b8114611ac157600080fd5b50565b600081359050611ad381611aad565b92915050565b600060208284031215611aef57611aee611a76565b5b6000611afd84828501611ac4565b91505092915050565b6000819050919050565b611b1981611b06565b82525050565b6000602082019050611b346000830184611b10565b92915050565b611b4381611a9b565b82525050565b6000602082019050611b5e6000830184611b3a565b92915050565b60008115159050919050565b611b7981611b64565b82525050565b6000602082019050611b946000830184611b70565b92915050565b600060ff82169050919050565b611bb081611b9a565b8114611bbb57600080fd5b50565b600081359050611bcd81611ba7565b92915050565b6000819050919050565b611be681611bd3565b8114611bf157600080fd5b50565b600081359050611c0381611bdd565b92915050565b600080600060608486031215611c2257611c21611a76565b5b6000611c3086828701611bbe565b9350506020611c4186828701611bf4565b9250506040611c5286828701611bf4565b9150509250925092565b600082825260208201905092915050565b7f4d696e7420636c6f736564000000000000000000000000000000000000000000600082015250565b6000611ca3600b83611c5c565b9150611cae82611c6d565b602082019050919050565b60006020820190508181036000830152611cd281611c96565b9050919050565b7f4e6f7420656e6f7567682066756e647300000000000000000000000000000000600082015250565b6000611d0f601083611c5c565b9150611d1a82611cd9565b602082019050919050565b60006020820190508181036000830152611d3e81611d02565b9050919050565b7f416c7265616479204d696e746564000000000000000000000000000000000000600082015250565b6000611d7b600e83611c5c565b9150611d8682611d45565b602082019050919050565b60006020820190508181036000830152611daa81611d6e565b9050919050565b7f46756e647320636f756c64206e6f74207472616e736665720000000000000000600082015250565b6000611de7601883611c5c565b9150611df282611db1565b602082019050919050565b60006020820190508181036000830152611e1681611dda565b9050919050565b611e2681611b06565b8114611e3157600080fd5b50565b600081519050611e4381611e1d565b92915050565b600060208284031215611e5f57611e5e611a76565b5b6000611e6d84828501611e34565b91505092915050565b7f596f752061726565206e6f74206120464f4d4f20686f6c646572000000000000600082015250565b6000611eac601a83611c5c565b9150611eb782611e76565b602082019050919050565b60006020820190508181036000830152611edb81611e9f565b9050919050565b7f4f6e6c792041646d696e732063616e20736574207369676e6572000000000000600082015250565b6000611f18601a83611c5c565b9150611f2382611ee2565b602082019050919050565b60006020820190508181036000830152611f4781611f0b565b9050919050565b60008160601b9050919050565b6000611f6682611f4e565b9050919050565b6000611f7882611f5b565b9050919050565b611f90611f8b82611a9b565b611f6d565b82525050565b60008160f81b9050919050565b6000611fae82611f96565b9050919050565b6000611fc082611fa3565b9050919050565b611fd8611fd382611b64565b611fb5565b82525050565b6000611fea8287611f7f565b601482019150611ffa8286611f7f565b60148201915061200a8285611fc7565b60018201915061201a8284611fc7565b60018201915081905095945050505050565b600081905092915050565b7f19457468657265756d205369676e6564204d6573736167653a0a333200000000600082015250565b600061206d601c8361202c565b915061207882612037565b601c82019050919050565b6000819050919050565b61209e61209982611bd3565b612083565b82525050565b60006120af82612060565b91506120bb828461208d565b60208201915081905092915050565b6120d381611bd3565b82525050565b6120e281611b9a565b82525050565b60006080820190506120fd60008301876120ca565b61210a60208301866120d9565b61211760408301856120ca565b61212460608301846120ca565b9594505050505056fea264697066735822122005affbd06f460188bea4d14aeb1d1e1ff5bc88ba9b01e244c89e10d26709c0ba64736f6c634300080d0033",
  "immutableReferences": {},
  "source": "// SPDX-License-Identifier: MIT\n\npragma solidity >= 0.8.13;\n\nimport \"./AnastasisAct3.sol\";\nimport \"@openzeppelin/contracts/token/ERC721/IERC721.sol\";\nimport \"@openzeppelin/contracts/token/ERC20/IERC20.sol\";\n\ncontract AnastasisLimitedEdition {\n\n    uint256 public _price = 0.03 ether;\n\n    address public _ashAddress= 0x64D91f12Ece7362F91A6f8E7940Cd55F05060b92;\n    address public _fomoverseAddress = 0x74BB71a4210E33256885DEF483fD4227b7f9D88F;\n    address public _anastasisAct2Address= 0x64D91f12Ece7362F91A6f8E7940Cd55F05060b92;\n    address public _anastasisAct3Address= 0x64D91f12Ece7362F91A6f8E7940Cd55F05060b92;\n    address private _recipient;\n    address private _signer;\n\n    bool public _fomoMintOpened;\n    bool public _ashMintOpened;\n    bool public _ALMintOpened;\n    bool public _publicMintOpened;\n\n    mapping (address => bool) _isAdmin;\n    mapping (address => bool) _addressMintedInPublicSale;\n    mapping (address => bool) _addressMintedInPrivateSale;\n\n\n    constructor(){\n        _isAdmin[msg.sender] = true;\n    }\n\n    function approveAdmin(address newAdmin)external{\n        require(_isAdmin[msg.sender]);\n        _isAdmin[newAdmin] = true;\n    }\n\n    function removeAdmin(address exAdmin)external{\n        require(_isAdmin[msg.sender]);\n        _isAdmin[exAdmin] = false;\n    }\n\n    function setRecipient(address recipient) external {\n        require(_isAdmin[msg.sender]);\n        _recipient = recipient;\n    }\n\n    function setSigner (address signer) external{\n        require(_isAdmin[msg.sender], \"Only Admins can set signer\");\n        _signer = signer;\n    }\n\n    function setAshAddress(address ashAddress) external{\n        require(_isAdmin[msg.sender]);\n        _ashAddress = ashAddress;\n    }\n\n    function setAnastasisAct2Address(address anastasisAct2Address) external{\n        require(_isAdmin[msg.sender]);\n        _anastasisAct2Address = anastasisAct2Address;\n    }\n\n    function setAnastasisAct3Address(address anastasisAct3Address) external{\n        require(_isAdmin[msg.sender]);\n        _anastasisAct3Address = anastasisAct3Address;\n    }\n\n    function setFOMOAddress(address FOMOAddress) external{\n        require(_isAdmin[msg.sender]);\n        _fomoverseAddress = FOMOAddress;\n    }\n\n    function toggleFomoMintOpened()external{\n        require(_isAdmin[msg.sender]);\n        _fomoMintOpened = !_fomoMintOpened;\n    }\n\n    function toggleAshMintOpened()external{\n        require(_isAdmin[msg.sender]);\n        _ashMintOpened = !_ashMintOpened;\n    }\n\n    function toggleALMintOpened()external{\n        require(_isAdmin[msg.sender]);\n        _ALMintOpened = !_ALMintOpened;\n    }\n\n    function togglePublicMintOpened()external{\n        require(_isAdmin[msg.sender]);\n        _publicMintOpened = !_publicMintOpened;\n    }\n\n    function selectedByArtist( uint8 v, bytes32 r, bytes32 s)internal view returns(bool){\n        return(\n            _signer ==\n                ecrecover(\n                    keccak256(\n                        abi.encodePacked(\n                            \"\\x19Ethereum Signed Message:\\n32\",\n                            keccak256(\n                                abi.encodePacked(\n                                    msg.sender,\n                                    _anastasisAct3Address,\n                                    _ALMintOpened,\n                                    _addressMintedInPrivateSale[msg.sender] // should be false\n                                )\n                            )\n                        )\n                    )\n                , v, r, s)\n        );\n    }\n\n    function fomoHoldersMint()external payable{\n        require(_fomoMintOpened, \"Mint closed\");\n        require(IERC721(_fomoverseAddress).balanceOf(msg.sender)>= 1, \"You aree not a FOMO holder\");\n        require(msg.value >= _price, \"Not enough funds\");\n        require(!_addressMintedInPrivateSale[msg.sender], \"Already Minted\");\n         bool success = payable(_recipient).send(_price);\n        require(success, \"Funds could not transfer\");\n        _addressMintedInPrivateSale[msg.sender] = true;\n        Anastasis_Act3(_anastasisAct3Address).mint(msg.sender);\n    }\n\n    function ashHoldersMint()external payable{\n        require(_ashMintOpened, \"Mint closed\");\n        require(\n            IERC721(_anastasisAct2Address).balanceOf(msg.sender)>= 1 &&\n            IERC20(_ashAddress).balanceOf(msg.sender) >= 25*10**18\n        );\n        require(msg.value >= _price, \"Not enough funds\");\n        require(!_addressMintedInPrivateSale[msg.sender], \"Already Minted\");\n         bool success = payable(_recipient).send(_price);\n        require(success, \"Funds could not transfer\");\n        _addressMintedInPrivateSale[msg.sender] = true;\n        Anastasis_Act3(_anastasisAct3Address).mint(msg.sender);\n    }\n\n    function selectedMint(\n        uint8 v,\n        bytes32 r, \n        bytes32 s\n    )external payable{\n        require(selectedByArtist(v, r, s));\n        require(msg.value >= _price, \"Not enough funds\");\n        bool success = payable(_recipient).send(_price);\n        require(success, \"Funds could not transfer\");\n        _addressMintedInPrivateSale[msg.sender] = true;\n        Anastasis_Act3(_anastasisAct3Address).mint(msg.sender);\n    }\n\n    function publicMint() external payable{\n        require(_publicMintOpened, \"Mint closed\");\n        require(msg.value >= _price, \"Not enough funds\");\n        require(!_addressMintedInPublicSale[msg.sender], \"Already Minted\");\n        bool success = payable(_recipient).send(_price);\n        require(success, \"Funds could not transfer\");\n        _addressMintedInPublicSale[msg.sender] = true;\n        Anastasis_Act3(_anastasisAct3Address).mint(msg.sender);\n    }\n\n}",
  "sourcePath": "/Users/bct/Documents/Dev/NFT_dev/Anastasis/contracts/AnastasisAct3Mint.sol",
  "compiler": {
    "name": "solc",
    "version": "0.8.13+commit.abaa5c0e.Emscripten.clang"
  },
  "schemaVersion": "3.4.4",
  "updatedAt": "2022-09-26T19:18:33.379Z",
  "devdoc": {
    "kind": "dev",
    "methods": {},
    "version": 1
  },
  "userdoc": {
    "kind": "user",
    "methods": {},
    "version": 1
  }
}