{
  "contractName": "Anastasis_Act2",
  "abi": [
    {
      "inputs": [],
      "stateMutability": "nonpayable",
      "type": "constructor"
    },
    {
      "inputs": [],
      "name": "ApprovalCallerNotOwnerNorApproved",
      "type": "error"
    },
    {
      "inputs": [],
      "name": "ApprovalQueryForNonexistentToken",
      "type": "error"
    },
    {
      "inputs": [],
      "name": "BalanceQueryForZeroAddress",
      "type": "error"
    },
    {
      "inputs": [],
      "name": "MintERC2309QuantityExceedsLimit",
      "type": "error"
    },
    {
      "inputs": [],
      "name": "MintToZeroAddress",
      "type": "error"
    },
    {
      "inputs": [],
      "name": "MintZeroQuantity",
      "type": "error"
    },
    {
      "inputs": [],
      "name": "OwnerQueryForNonexistentToken",
      "type": "error"
    },
    {
      "inputs": [],
      "name": "OwnershipNotInitializedForExtraData",
      "type": "error"
    },
    {
      "inputs": [],
      "name": "TransferCallerNotOwnerNorApproved",
      "type": "error"
    },
    {
      "inputs": [],
      "name": "TransferFromIncorrectOwner",
      "type": "error"
    },
    {
      "inputs": [],
      "name": "TransferToNonERC721ReceiverImplementer",
      "type": "error"
    },
    {
      "inputs": [],
      "name": "TransferToZeroAddress",
      "type": "error"
    },
    {
      "inputs": [],
      "name": "URIQueryForNonexistentToken",
      "type": "error"
    },
    {
      "anonymous": false,
      "inputs": [
        {
          "indexed": true,
          "internalType": "address",
          "name": "account",
          "type": "address"
        },
        {
          "indexed": true,
          "internalType": "address",
          "name": "sender",
          "type": "address"
        }
      ],
      "name": "AdminApproved",
      "type": "event"
    },
    {
      "anonymous": false,
      "inputs": [
        {
          "indexed": true,
          "internalType": "address",
          "name": "account",
          "type": "address"
        },
        {
          "indexed": true,
          "internalType": "address",
          "name": "sender",
          "type": "address"
        }
      ],
      "name": "AdminRevoked",
      "type": "event"
    },
    {
      "anonymous": false,
      "inputs": [
        {
          "indexed": true,
          "internalType": "address",
          "name": "owner",
          "type": "address"
        },
        {
          "indexed": true,
          "internalType": "address",
          "name": "approved",
          "type": "address"
        },
        {
          "indexed": true,
          "internalType": "uint256",
          "name": "tokenId",
          "type": "uint256"
        }
      ],
      "name": "Approval",
      "type": "event"
    },
    {
      "anonymous": false,
      "inputs": [
        {
          "indexed": true,
          "internalType": "address",
          "name": "owner",
          "type": "address"
        },
        {
          "indexed": true,
          "internalType": "address",
          "name": "operator",
          "type": "address"
        },
        {
          "indexed": false,
          "internalType": "bool",
          "name": "approved",
          "type": "bool"
        }
      ],
      "name": "ApprovalForAll",
      "type": "event"
    },
    {
      "anonymous": false,
      "inputs": [
        {
          "indexed": true,
          "internalType": "uint256",
          "name": "fromTokenId",
          "type": "uint256"
        },
        {
          "indexed": false,
          "internalType": "uint256",
          "name": "toTokenId",
          "type": "uint256"
        },
        {
          "indexed": true,
          "internalType": "address",
          "name": "from",
          "type": "address"
        },
        {
          "indexed": true,
          "internalType": "address",
          "name": "to",
          "type": "address"
        }
      ],
      "name": "ConsecutiveTransfer",
      "type": "event"
    },
    {
      "anonymous": false,
      "inputs": [
        {
          "indexed": true,
          "internalType": "address",
          "name": "previousOwner",
          "type": "address"
        },
        {
          "indexed": true,
          "internalType": "address",
          "name": "newOwner",
          "type": "address"
        }
      ],
      "name": "OwnershipTransferred",
      "type": "event"
    },
    {
      "anonymous": false,
      "inputs": [
        {
          "indexed": true,
          "internalType": "address",
          "name": "from",
          "type": "address"
        },
        {
          "indexed": true,
          "internalType": "address",
          "name": "to",
          "type": "address"
        },
        {
          "indexed": true,
          "internalType": "uint256",
          "name": "tokenId",
          "type": "uint256"
        }
      ],
      "name": "Transfer",
      "type": "event"
    },
    {
      "inputs": [],
      "name": "_tokenId",
      "outputs": [
        {
          "internalType": "uint256",
          "name": "",
          "type": "uint256"
        }
      ],
      "stateMutability": "view",
      "type": "function"
    },
    {
      "inputs": [
        {
          "internalType": "uint256",
          "name": "",
          "type": "uint256"
        }
      ],
      "name": "_tokenURIs",
      "outputs": [
        {
          "internalType": "uint256",
          "name": "",
          "type": "uint256"
        }
      ],
      "stateMutability": "view",
      "type": "function"
    },
    {
      "inputs": [],
      "name": "_uri",
      "outputs": [
        {
          "internalType": "string",
          "name": "",
          "type": "string"
        }
      ],
      "stateMutability": "view",
      "type": "function"
    },
    {
      "inputs": [],
      "name": "_uriNumber",
      "outputs": [
        {
          "internalType": "uint256",
          "name": "",
          "type": "uint256"
        }
      ],
      "stateMutability": "view",
      "type": "function"
    },
    {
      "inputs": [
        {
          "internalType": "address",
          "name": "to",
          "type": "address"
        },
        {
          "internalType": "uint256",
          "name": "tokenId",
          "type": "uint256"
        }
      ],
      "name": "approve",
      "outputs": [],
      "stateMutability": "payable",
      "type": "function"
    },
    {
      "inputs": [
        {
          "internalType": "address",
          "name": "admin",
          "type": "address"
        }
      ],
      "name": "approveAdmin",
      "outputs": [],
      "stateMutability": "nonpayable",
      "type": "function"
    },
    {
      "inputs": [
        {
          "internalType": "address",
          "name": "owner",
          "type": "address"
        }
      ],
      "name": "balanceOf",
      "outputs": [
        {
          "internalType": "uint256",
          "name": "",
          "type": "uint256"
        }
      ],
      "stateMutability": "view",
      "type": "function"
    },
    {
      "inputs": [],
      "name": "getAdmins",
      "outputs": [
        {
          "internalType": "address[]",
          "name": "admins",
          "type": "address[]"
        }
      ],
      "stateMutability": "view",
      "type": "function"
    },
    {
      "inputs": [
        {
          "internalType": "uint256",
          "name": "tokenId",
          "type": "uint256"
        }
      ],
      "name": "getApproved",
      "outputs": [
        {
          "internalType": "address",
          "name": "",
          "type": "address"
        }
      ],
      "stateMutability": "view",
      "type": "function"
    },
    {
      "inputs": [
        {
          "internalType": "address",
          "name": "admin",
          "type": "address"
        }
      ],
      "name": "isAdmin",
      "outputs": [
        {
          "internalType": "bool",
          "name": "",
          "type": "bool"
        }
      ],
      "stateMutability": "view",
      "type": "function"
    },
    {
      "inputs": [
        {
          "internalType": "address",
          "name": "owner",
          "type": "address"
        },
        {
          "internalType": "address",
          "name": "operator",
          "type": "address"
        }
      ],
      "name": "isApprovedForAll",
      "outputs": [
        {
          "internalType": "bool",
          "name": "",
          "type": "bool"
        }
      ],
      "stateMutability": "view",
      "type": "function"
    },
    {
      "inputs": [],
      "name": "name",
      "outputs": [
        {
          "internalType": "string",
          "name": "",
          "type": "string"
        }
      ],
      "stateMutability": "view",
      "type": "function"
    },
    {
      "inputs": [],
      "name": "owner",
      "outputs": [
        {
          "internalType": "address",
          "name": "",
          "type": "address"
        }
      ],
      "stateMutability": "view",
      "type": "function"
    },
    {
      "inputs": [
        {
          "internalType": "uint256",
          "name": "tokenId",
          "type": "uint256"
        }
      ],
      "name": "ownerOf",
      "outputs": [
        {
          "internalType": "address",
          "name": "",
          "type": "address"
        }
      ],
      "stateMutability": "view",
      "type": "function"
    },
    {
      "inputs": [],
      "name": "renounceOwnership",
      "outputs": [],
      "stateMutability": "nonpayable",
      "type": "function"
    },
    {
      "inputs": [
        {
          "internalType": "address",
          "name": "admin",
          "type": "address"
        }
      ],
      "name": "revokeAdmin",
      "outputs": [],
      "stateMutability": "nonpayable",
      "type": "function"
    },
    {
      "inputs": [
        {
          "internalType": "address",
          "name": "from",
          "type": "address"
        },
        {
          "internalType": "address",
          "name": "to",
          "type": "address"
        },
        {
          "internalType": "uint256",
          "name": "tokenId",
          "type": "uint256"
        }
      ],
      "name": "safeTransferFrom",
      "outputs": [],
      "stateMutability": "payable",
      "type": "function"
    },
    {
      "inputs": [
        {
          "internalType": "address",
          "name": "from",
          "type": "address"
        },
        {
          "internalType": "address",
          "name": "to",
          "type": "address"
        },
        {
          "internalType": "uint256",
          "name": "tokenId",
          "type": "uint256"
        },
        {
          "internalType": "bytes",
          "name": "_data",
          "type": "bytes"
        }
      ],
      "name": "safeTransferFrom",
      "outputs": [],
      "stateMutability": "payable",
      "type": "function"
    },
    {
      "inputs": [
        {
          "internalType": "address",
          "name": "operator",
          "type": "address"
        },
        {
          "internalType": "bool",
          "name": "approved",
          "type": "bool"
        }
      ],
      "name": "setApprovalForAll",
      "outputs": [],
      "stateMutability": "nonpayable",
      "type": "function"
    },
    {
      "inputs": [],
      "name": "symbol",
      "outputs": [
        {
          "internalType": "string",
          "name": "",
          "type": "string"
        }
      ],
      "stateMutability": "view",
      "type": "function"
    },
    {
      "inputs": [],
      "name": "totalSupply",
      "outputs": [
        {
          "internalType": "uint256",
          "name": "",
          "type": "uint256"
        }
      ],
      "stateMutability": "view",
      "type": "function"
    },
    {
      "inputs": [
        {
          "internalType": "address",
          "name": "from",
          "type": "address"
        },
        {
          "internalType": "address",
          "name": "to",
          "type": "address"
        },
        {
          "internalType": "uint256",
          "name": "tokenId",
          "type": "uint256"
        }
      ],
      "name": "transferFrom",
      "outputs": [],
      "stateMutability": "payable",
      "type": "function"
    },
    {
      "inputs": [
        {
          "internalType": "address",
          "name": "newOwner",
          "type": "address"
        }
      ],
      "name": "transferOwnership",
      "outputs": [],
      "stateMutability": "nonpayable",
      "type": "function"
    },
    {
      "inputs": [
        {
          "internalType": "bytes4",
          "name": "interfaceId",
          "type": "bytes4"
        }
      ],
      "name": "supportsInterface",
      "outputs": [
        {
          "internalType": "bool",
          "name": "",
          "type": "bool"
        }
      ],
      "stateMutability": "view",
      "type": "function"
    },
    {
      "inputs": [
        {
          "internalType": "address",
          "name": "to",
          "type": "address"
        },
        {
          "internalType": "uint256",
          "name": "quantity",
          "type": "uint256"
        }
      ],
      "name": "mint",
      "outputs": [],
      "stateMutability": "nonpayable",
      "type": "function"
    },
    {
      "inputs": [
        {
          "internalType": "uint256",
          "name": "length",
          "type": "uint256"
        }
      ],
      "name": "getPseudoRandomNumber",
      "outputs": [
        {
          "internalType": "uint256",
          "name": "",
          "type": "uint256"
        }
      ],
      "stateMutability": "view",
      "type": "function"
    },
    {
      "inputs": [
        {
          "internalType": "uint256",
          "name": "tokenId",
          "type": "uint256"
        }
      ],
      "name": "burn",
      "outputs": [],
      "stateMutability": "nonpayable",
      "type": "function"
    },
    {
      "inputs": [
        {
          "internalType": "uint256",
          "name": "uriNumber",
          "type": "uint256"
        },
        {
          "internalType": "string",
          "name": "updatedURI",
          "type": "string"
        }
      ],
      "name": "setURI",
      "outputs": [],
      "stateMutability": "nonpayable",
      "type": "function"
    },
    {
      "inputs": [
        {
          "internalType": "uint256",
          "name": "tokenId",
          "type": "uint256"
        }
      ],
      "name": "tokenURI",
      "outputs": [
        {
          "internalType": "string",
          "name": "",
          "type": "string"
        }
      ],
      "stateMutability": "view",
      "type": "function"
    },
    {
      "inputs": [
        {
          "internalType": "address payable",
          "name": "_recipient",
          "type": "address"
        },
        {
          "internalType": "uint256",
          "name": "_royaltyPerCent",
          "type": "uint256"
        }
      ],
      "name": "setRoyalties",
      "outputs": [],
      "stateMutability": "nonpayable",
      "type": "function"
    },
    {
      "inputs": [
        {
          "internalType": "uint256",
          "name": "salePrice",
          "type": "uint256"
        }
      ],
      "name": "royaltyInfo",
      "outputs": [
        {
          "internalType": "address",
          "name": "",
          "type": "address"
        },
        {
          "internalType": "uint256",
          "name": "",
          "type": "uint256"
        }
      ],
      "stateMutability": "view",
      "type": "function"
    },
    {
      "inputs": [
        {
          "internalType": "address",
          "name": "recipient",
          "type": "address"
        }
      ],
      "name": "withdraw",
      "outputs": [],
      "stateMutability": "nonpayable",
      "type": "function"
    }
  ],
  "bytecode": "0x60806040526001600e553480156200001657600080fd5b506040518060400160405280601481526020017f662d3120416e61737461736973202d20416374320000000000000000000000008152506040518060400160405280600781526020017f662d31204141320000000000000000000000000000000000000000000000000081525081600290805190602001906200009b9291906200020f565b508060039080519060200190620000b49291906200020f565b50620000c56200013c60201b60201c565b6000819055505050620000ed620000e16200014160201b60201c565b6200014960201b60201c565b33600b60006101000a81548173ffffffffffffffffffffffffffffffffffffffff021916908373ffffffffffffffffffffffffffffffffffffffff160217905550600a600c8190555062000323565b600090565b600033905090565b6000600860009054906101000a900473ffffffffffffffffffffffffffffffffffffffff16905081600860006101000a81548173ffffffffffffffffffffffffffffffffffffffff021916908373ffffffffffffffffffffffffffffffffffffffff1602179055508173ffffffffffffffffffffffffffffffffffffffff168173ffffffffffffffffffffffffffffffffffffffff167f8be0079c531659141344cd1fd0a4f28419497f9722a3daafe3b4186f6b6457e060405160405180910390a35050565b8280546200021d90620002ee565b90600052602060002090601f0160209004810192826200024157600085556200028d565b82601f106200025c57805160ff19168380011785556200028d565b828001600101855582156200028d579182015b828111156200028c5782518255916020019190600101906200026f565b5b5090506200029c9190620002a0565b5090565b5b80821115620002bb576000816000905550600101620002a1565b5090565b7f4e487b7100000000000000000000000000000000000000000000000000000000600052602260045260246000fd5b600060028204905060018216806200030757607f821691505b6020821081036200031d576200031c620002bf565b5b50919050565b6139e780620003336000396000f3fe6080604052600436106101e35760003560e01c806351cff8d91161010257806395d89b4111610095578063c87b56dd11610064578063c87b56dd146106ba578063cef6d368146106f7578063e985e9c514610735578063f2fde38b14610772576101e3565b806395d89b411461061f578063a22cb4651461064a578063b73d755814610673578063b88d4fde1461069e576101e3565b8063715018a6116100d1578063715018a61461058b578063862440e2146105a25780638c7ea24b146105cb5780638da5cb5b146105f4576101e3565b806351cff8d9146104bf5780636352211e146104e85780636d73e6691461052557806370a082311461054e576101e3565b806323b872dd1161017a57806331ae450b1161014957806331ae450b1461042657806340c10f191461045157806342842e0e1461047a57806342966c6814610496576101e3565b806323b872dd14610379578063248225141461039557806324d7806c146103c05780632d345670146103fd576101e3565b8063095ea7b3116101b6578063095ea7b3146102ca5780630bb78ec1146102e65780630dccc9ad1461032357806318160ddd1461034e576101e3565b806301ffc9a7146101e85780630283fbac1461022557806306fdde0314610262578063081812fc1461028d575b600080fd5b3480156101f457600080fd5b5061020f600480360381019061020a9190612a60565b61079b565b60405161021c9190612aa8565b60405180910390f35b34801561023157600080fd5b5061024c60048036038101906102479190612af9565b610835565b6040516102599190612b35565b60405180910390f35b34801561026e57600080fd5b5061027761087c565b6040516102849190612be9565b60405180910390f35b34801561029957600080fd5b506102b460048036038101906102af9190612af9565b61090e565b6040516102c19190612c4c565b60405180910390f35b6102e460048036038101906102df9190612c93565b61098d565b005b3480156102f257600080fd5b5061030d60048036038101906103089190612af9565b610ad1565b60405161031a9190612b35565b60405180910390f35b34801561032f57600080fd5b50610338610ae9565b6040516103459190612be9565b60405180910390f35b34801561035a57600080fd5b50610363610b77565b6040516103709190612b35565b60405180910390f35b610393600480360381019061038e9190612cd3565b610b8e565b005b3480156103a157600080fd5b506103aa610eb0565b6040516103b79190612b35565b60405180910390f35b3480156103cc57600080fd5b506103e760048036038101906103e29190612d26565b610eb6565b6040516103f49190612aa8565b60405180910390f35b34801561040957600080fd5b50610424600480360381019061041f9190612d26565b610f10565b005b34801561043257600080fd5b5061043b610fa4565b6040516104489190612e11565b60405180910390f35b34801561045d57600080fd5b5061047860048036038101906104739190612c93565b611086565b005b610494600480360381019061048f9190612cd3565b6111f8565b005b3480156104a257600080fd5b506104bd60048036038101906104b89190612af9565b611218565b005b3480156104cb57600080fd5b506104e660048036038101906104e19190612d26565b6112a0565b005b3480156104f457600080fd5b5061050f600480360381019061050a9190612af9565b61137a565b60405161051c9190612c4c565b60405180910390f35b34801561053157600080fd5b5061054c60048036038101906105479190612d26565b61138c565b005b34801561055a57600080fd5b5061057560048036038101906105709190612d26565b61141f565b6040516105829190612b35565b60405180910390f35b34801561059757600080fd5b506105a06114d7565b005b3480156105ae57600080fd5b506105c960048036038101906105c49190612e98565b6114eb565b005b3480156105d757600080fd5b506105f260048036038101906105ed9190612f36565b611599565b005b34801561060057600080fd5b50610609611675565b6040516106169190612c4c565b60405180910390f35b34801561062b57600080fd5b5061063461169f565b6040516106419190612be9565b60405180910390f35b34801561065657600080fd5b50610671600480360381019061066c9190612fa2565b611731565b005b34801561067f57600080fd5b5061068861183c565b6040516106959190612b35565b60405180910390f35b6106b860048036038101906106b39190613112565b611842565b005b3480156106c657600080fd5b506106e160048036038101906106dc9190612af9565b6118b5565b6040516106ee9190612be9565b60405180910390f35b34801561070357600080fd5b5061071e60048036038101906107199190612af9565b611944565b60405161072c929190613195565b60405180910390f35b34801561074157600080fd5b5061075c600480360381019061075791906131be565b6119f0565b6040516107699190612aa8565b60405180910390f35b34801561077e57600080fd5b5061079960048036038101906107949190612d26565b611a84565b005b60006107a682611b07565b806107b657506107b582611b81565b5b8061081e57507f2a55205a000000000000000000000000000000000000000000000000000000007bffffffffffffffffffffffffffffffffffffffffffffffffffffffff1916827bffffffffffffffffffffffffffffffffffffffffffffffffffffffff1916145b8061082e575061082d82611b07565b5b9050919050565b60008042600e5460405160200161084d92919061321f565b6040516020818303038152906040528051906020012060001c90508281610874919061327a565b915050919050565b60606002805461088b906132da565b80601f01602080910402602001604051908101604052809291908181526020018280546108b7906132da565b80156109045780601f106108d957610100808354040283529160200191610904565b820191906000526020600020905b8154815290600101906020018083116108e757829003601f168201915b5050505050905090565b600061091982611c13565b61094f576040517fcf4700e400000000000000000000000000000000000000000000000000000000815260040160405180910390fd5b6006600083815260200190815260200160002060000160009054906101000a900473ffffffffffffffffffffffffffffffffffffffff169050919050565b60006109988261137a565b90508073ffffffffffffffffffffffffffffffffffffffff166109b9611c72565b73ffffffffffffffffffffffffffffffffffffffff1614610a1c576109e5816109e0611c72565b6119f0565b610a1b576040517fcfb3b94200000000000000000000000000000000000000000000000000000000815260040160405180910390fd5b5b826006600084815260200190815260200160002060000160006101000a81548173ffffffffffffffffffffffffffffffffffffffff021916908373ffffffffffffffffffffffffffffffffffffffff160217905550818373ffffffffffffffffffffffffffffffffffffffff168273ffffffffffffffffffffffffffffffffffffffff167f8c5be1e5ebec7d5bd14f71427d1e84f3dd0314c0f7b2291e5b200ac8c7c3b92560405160405180910390a4505050565b60106020528060005260406000206000915090505481565b600f8054610af6906132da565b80601f0160208091040260200160405190810160405280929190818152602001828054610b22906132da565b8015610b6f5780601f10610b4457610100808354040283529160200191610b6f565b820191906000526020600020905b815481529060010190602001808311610b5257829003601f168201915b505050505081565b6000610b81611c7a565b6001546000540303905090565b6000610b9982611c7f565b90508373ffffffffffffffffffffffffffffffffffffffff168173ffffffffffffffffffffffffffffffffffffffff1614610c00576040517fa114810000000000000000000000000000000000000000000000000000000000815260040160405180910390fd5b600080610c0c84611d4b565b91509150610c228187610c1d611c72565b611d72565b610c6e57610c3786610c32611c72565b6119f0565b610c6d576040517f59c896be00000000000000000000000000000000000000000000000000000000815260040160405180910390fd5b5b600073ffffffffffffffffffffffffffffffffffffffff168573ffffffffffffffffffffffffffffffffffffffff1603610cd4576040517fea553b3400000000000000000000000000000000000000000000000000000000815260040160405180910390fd5b610ce18686866001611db6565b8015610cec57600082555b600560008773ffffffffffffffffffffffffffffffffffffffff1673ffffffffffffffffffffffffffffffffffffffff168152602001908152602001600020600081546001900391905081905550600560008673ffffffffffffffffffffffffffffffffffffffff1673ffffffffffffffffffffffffffffffffffffffff1681526020019081526020016000206000815460010191905081905550610dba85610d96888887611dbc565b7c020000000000000000000000000000000000000000000000000000000017611de4565b600460008681526020019081526020016000208190555060007c0200000000000000000000000000000000000000000000000000000000841603610e405760006001850190506000600460008381526020019081526020016000205403610e3e576000548114610e3d578360046000838152602001908152602001600020819055505b5b505b838573ffffffffffffffffffffffffffffffffffffffff168773ffffffffffffffffffffffffffffffffffffffff167fddf252ad1be2c89b69c2b068fc378daa952ba7f163c4a11628f55a4df523b3ef60405160405180910390a4610ea88686866001611e0f565b505050505050565b600e5481565b60008173ffffffffffffffffffffffffffffffffffffffff16610ed7611675565b73ffffffffffffffffffffffffffffffffffffffff161480610f095750610f08826009611e1590919063ffffffff16565b5b9050919050565b610f18611e45565b610f2c816009611e1590919063ffffffff16565b15610fa1573373ffffffffffffffffffffffffffffffffffffffff168173ffffffffffffffffffffffffffffffffffffffff167f7c0c3c84c67c85fcac635147348bfe374c24a1a93d0366d1cfe9d8853cbf89d560405160405180910390a3610f9f816009611ec390919063ffffffff16565b505b50565b6060610fb06009611ef3565b67ffffffffffffffff811115610fc957610fc8612fe7565b5b604051908082528060200260200182016040528015610ff75781602001602082028036833780820191505090505b50905060005b6110076009611ef3565b81101561108257611022816009611f0890919063ffffffff16565b8282815181106110355761103461330b565b5b602002602001019073ffffffffffffffffffffffffffffffffffffffff16908173ffffffffffffffffffffffffffffffffffffffff1681525050808061107a90613369565b915050610ffd565b5090565b3373ffffffffffffffffffffffffffffffffffffffff166110a5611675565b73ffffffffffffffffffffffffffffffffffffffff1614806110d757506110d6336009611e1590919063ffffffff16565b5b611116576040517f08c379a000000000000000000000000000000000000000000000000000000000815260040161110d90613423565b60405180910390fd5b60005b818110156111e957600061112d600a610835565b905060008082036111555760016111446003610835565b61114e9190613443565b90506111a0565b60018214806111645750600282145b156111865760046111756004610835565b61117f9190613443565b905061119f565b60086111926007610835565b61119c9190613443565b90505b5b8060106000600e548152602001908152602001600020819055506001600e60008282546111cd9190613443565b92505081905550505080806111e190613369565b915050611119565b506111f48282611f22565b5050565b61121383838360405180602001604052806000815250611842565b505050565b60006112238261137a565b90508073ffffffffffffffffffffffffffffffffffffffff163373ffffffffffffffffffffffffffffffffffffffff1614611293576040517f08c379a000000000000000000000000000000000000000000000000000000000815260040161128a906134e5565b60405180910390fd5b61129c826120dd565b5050565b3373ffffffffffffffffffffffffffffffffffffffff166112bf611675565b73ffffffffffffffffffffffffffffffffffffffff1614806112f157506112f0336009611e1590919063ffffffff16565b5b611330576040517f08c379a000000000000000000000000000000000000000000000000000000000815260040161132790613423565b60405180910390fd5b8073ffffffffffffffffffffffffffffffffffffffff166108fc479081150290604051600060405180830381858888f19350505050158015611376573d6000803e3d6000fd5b5050565b600061138582611c7f565b9050919050565b611394611e45565b6113a8816009611e1590919063ffffffff16565b61141c573373ffffffffffffffffffffffffffffffffffffffff168173ffffffffffffffffffffffffffffffffffffffff167f7e1a1a08d52e4ba0e21554733d66165fd5151f99460116223d9e3a608eec5cb160405160405180910390a361141a8160096120eb90919063ffffffff16565b505b50565b60008073ffffffffffffffffffffffffffffffffffffffff168273ffffffffffffffffffffffffffffffffffffffff1603611486576040517f8f4eb60400000000000000000000000000000000000000000000000000000000815260040160405180910390fd5b67ffffffffffffffff600560008473ffffffffffffffffffffffffffffffffffffffff1673ffffffffffffffffffffffffffffffffffffffff16815260200190815260200160002054169050919050565b6114df611e45565b6114e9600061211b565b565b3373ffffffffffffffffffffffffffffffffffffffff1661150a611675565b73ffffffffffffffffffffffffffffffffffffffff16148061153c575061153b336009611e1590919063ffffffff16565b5b61157b576040517f08c379a000000000000000000000000000000000000000000000000000000000815260040161157290613423565b60405180910390fd5b82600d819055508181600f9190611593929190612951565b50505050565b3373ffffffffffffffffffffffffffffffffffffffff166115b8611675565b73ffffffffffffffffffffffffffffffffffffffff1614806115ea57506115e9336009611e1590919063ffffffff16565b5b611629576040517f08c379a000000000000000000000000000000000000000000000000000000000815260040161162090613423565b60405180910390fd5b81600b60006101000a81548173ffffffffffffffffffffffffffffffffffffffff021916908373ffffffffffffffffffffffffffffffffffffffff16021790555080600c819055505050565b6000600860009054906101000a900473ffffffffffffffffffffffffffffffffffffffff16905090565b6060600380546116ae906132da565b80601f01602080910402602001604051908101604052809291908181526020018280546116da906132da565b80156117275780601f106116fc57610100808354040283529160200191611727565b820191906000526020600020905b81548152906001019060200180831161170a57829003601f168201915b5050505050905090565b806007600061173e611c72565b73ffffffffffffffffffffffffffffffffffffffff1673ffffffffffffffffffffffffffffffffffffffff16815260200190815260200160002060008473ffffffffffffffffffffffffffffffffffffffff1673ffffffffffffffffffffffffffffffffffffffff16815260200190815260200160002060006101000a81548160ff0219169083151502179055508173ffffffffffffffffffffffffffffffffffffffff166117eb611c72565b73ffffffffffffffffffffffffffffffffffffffff167f17307eab39ab6107e8899845ad3d59bd9653f200f220920489ca2b5937696c31836040516118309190612aa8565b60405180910390a35050565b600d5481565b61184d848484610b8e565b60008373ffffffffffffffffffffffffffffffffffffffff163b146118af57611878848484846121e1565b6118ae576040517fd1a57ed600000000000000000000000000000000000000000000000000000000815260040160405180910390fd5b5b50505050565b60606118c082611c13565b6118ff576040517f08c379a00000000000000000000000000000000000000000000000000000000081526004016118f690613577565b60405180910390fd5b600f61191d6010600085815260200190815260200160002054612331565b60405160200161192e9291906136b3565b6040516020818303038152906040529050919050565b600080600073ffffffffffffffffffffffffffffffffffffffff16600b60009054906101000a900473ffffffffffffffffffffffffffffffffffffffff1673ffffffffffffffffffffffffffffffffffffffff16146119e357600b60009054906101000a900473ffffffffffffffffffffffffffffffffffffffff166064600c54856119d091906136e2565b6119da919061373c565b915091506119eb565b600080915091505b915091565b6000600760008473ffffffffffffffffffffffffffffffffffffffff1673ffffffffffffffffffffffffffffffffffffffff16815260200190815260200160002060008373ffffffffffffffffffffffffffffffffffffffff1673ffffffffffffffffffffffffffffffffffffffff16815260200190815260200160002060009054906101000a900460ff16905092915050565b611a8c611e45565b600073ffffffffffffffffffffffffffffffffffffffff168173ffffffffffffffffffffffffffffffffffffffff1603611afb576040517f08c379a0000000000000000000000000000000000000000000000000000000008152600401611af2906137df565b60405180910390fd5b611b048161211b565b50565b60007f553e757e000000000000000000000000000000000000000000000000000000007bffffffffffffffffffffffffffffffffffffffffffffffffffffffff1916827bffffffffffffffffffffffffffffffffffffffffffffffffffffffff19161480611b7a5750611b7982612491565b5b9050919050565b60006301ffc9a760e01b827bffffffffffffffffffffffffffffffffffffffffffffffffffffffff19161480611bdc57506380ac58cd60e01b827bffffffffffffffffffffffffffffffffffffffffffffffffffffffff1916145b80611c0c5750635b5e139f60e01b827bffffffffffffffffffffffffffffffffffffffffffffffffffffffff1916145b9050919050565b600081611c1e611c7a565b11158015611c2d575060005482105b8015611c6b575060007c0100000000000000000000000000000000000000000000000000000000600460008581526020019081526020016000205416145b9050919050565b600033905090565b600090565b60008082905080611c8e611c7a565b11611d1457600054811015611d135760006004600083815260200190815260200160002054905060007c0100000000000000000000000000000000000000000000000000000000821603611d11575b60008103611d07576004600083600190039350838152602001908152602001600020549050611cdd565b8092505050611d46565b505b5b6040517fdf2d9b4200000000000000000000000000000000000000000000000000000000815260040160405180910390fd5b919050565b60008060006006600085815260200190815260200160002090508092508254915050915091565b600073ffffffffffffffffffffffffffffffffffffffff8316925073ffffffffffffffffffffffffffffffffffffffff821691508382148383141790509392505050565b50505050565b60008060e883901c905060e8611dd38686846124fb565b62ffffff16901b9150509392505050565b600073ffffffffffffffffffffffffffffffffffffffff83169250814260a01b178317905092915050565b50505050565b6000611e3d836000018373ffffffffffffffffffffffffffffffffffffffff1660001b612504565b905092915050565b611e4d612527565b73ffffffffffffffffffffffffffffffffffffffff16611e6b611675565b73ffffffffffffffffffffffffffffffffffffffff1614611ec1576040517f08c379a0000000000000000000000000000000000000000000000000000000008152600401611eb89061384b565b60405180910390fd5b565b6000611eeb836000018373ffffffffffffffffffffffffffffffffffffffff1660001b61252f565b905092915050565b6000611f0182600001612643565b9050919050565b6000611f178360000183612654565b60001c905092915050565b60008054905060008203611f62576040517fb562e8dd00000000000000000000000000000000000000000000000000000000815260040160405180910390fd5b611f6f6000848385611db6565b600160406001901b178202600560008573ffffffffffffffffffffffffffffffffffffffff1673ffffffffffffffffffffffffffffffffffffffff16815260200190815260200160002060008282540192505081905550611fe683611fd76000866000611dbc565b611fe08561267f565b17611de4565b6004600083815260200190815260200160002081905550600080838301905073ffffffffffffffffffffffffffffffffffffffff85169150828260007fddf252ad1be2c89b69c2b068fc378daa952ba7f163c4a11628f55a4df523b3ef600080a4600183015b81811461208757808360007fddf252ad1be2c89b69c2b068fc378daa952ba7f163c4a11628f55a4df523b3ef600080a460018101905061204c565b50600082036120c2576040517f2e07630000000000000000000000000000000000000000000000000000000000815260040160405180910390fd5b8060008190555050506120d86000848385611e0f565b505050565b6120e881600061268f565b50565b6000612113836000018373ffffffffffffffffffffffffffffffffffffffff1660001b6128e1565b905092915050565b6000600860009054906101000a900473ffffffffffffffffffffffffffffffffffffffff16905081600860006101000a81548173ffffffffffffffffffffffffffffffffffffffff021916908373ffffffffffffffffffffffffffffffffffffffff1602179055508173ffffffffffffffffffffffffffffffffffffffff168173ffffffffffffffffffffffffffffffffffffffff167f8be0079c531659141344cd1fd0a4f28419497f9722a3daafe3b4186f6b6457e060405160405180910390a35050565b60008373ffffffffffffffffffffffffffffffffffffffff1663150b7a02612207611c72565b8786866040518563ffffffff1660e01b815260040161222994939291906138c0565b6020604051808303816000875af192505050801561226557506040513d601f19601f820116820180604052508101906122629190613921565b60015b6122de573d8060008114612295576040519150601f19603f3d011682016040523d82523d6000602084013e61229a565b606091505b5060008151036122d6576040517fd1a57ed600000000000000000000000000000000000000000000000000000000815260040160405180910390fd5b805181602001fd5b63150b7a0260e01b7bffffffffffffffffffffffffffffffffffffffffffffffffffffffff1916817bffffffffffffffffffffffffffffffffffffffffffffffffffffffff191614915050949350505050565b606060008203612378576040518060400160405280600181526020017f3000000000000000000000000000000000000000000000000000000000000000815250905061248c565b600082905060005b600082146123aa57808061239390613369565b915050600a826123a3919061373c565b9150612380565b60008167ffffffffffffffff8111156123c6576123c5612fe7565b5b6040519080825280601f01601f1916602001820160405280156123f85781602001600182028036833780820191505090505b5090505b6000851461248557600182612411919061394e565b9150600a85612420919061327a565b603061242c9190613443565b60f81b8183815181106124425761244161330b565b5b60200101907effffffffffffffffffffffffffffffffffffffffffffffffffffffffffffff1916908160001a905350600a8561247e919061373c565b94506123fc565b8093505050505b919050565b60007f01ffc9a7000000000000000000000000000000000000000000000000000000007bffffffffffffffffffffffffffffffffffffffffffffffffffffffff1916827bffffffffffffffffffffffffffffffffffffffffffffffffffffffff1916149050919050565b60009392505050565b600080836001016000848152602001908152602001600020541415905092915050565b600033905090565b60008083600101600084815260200190815260200160002054905060008114612637576000600182612561919061394e565b9050600060018660000180549050612579919061394e565b90508181146125e857600086600001828154811061259a5761259961330b565b5b90600052602060002001549050808760000184815481106125be576125bd61330b565b5b90600052602060002001819055508387600101600083815260200190815260200160002081905550505b856000018054806125fc576125fb613982565b5b60019003818190600052602060002001600090559055856001016000868152602001908152602001600020600090556001935050505061263d565b60009150505b92915050565b600081600001805490509050919050565b600082600001828154811061266c5761266b61330b565b5b9060005260206000200154905092915050565b60006001821460e11b9050919050565b600061269a83611c7f565b905060008190506000806126ad86611d4b565b915091508415612716576126c981846126c4611c72565b611d72565b612715576126de836126d9611c72565b6119f0565b612714576040517f59c896be00000000000000000000000000000000000000000000000000000000815260040160405180910390fd5b5b5b612724836000886001611db6565b801561272f57600082555b600160806001901b03600560008573ffffffffffffffffffffffffffffffffffffffff1673ffffffffffffffffffffffffffffffffffffffff168152602001908152602001600020600082825401925050819055506127d78361279485600088611dbc565b7c02000000000000000000000000000000000000000000000000000000007c01000000000000000000000000000000000000000000000000000000001717611de4565b600460008881526020019081526020016000208190555060007c020000000000000000000000000000000000000000000000000000000085160361285d576000600187019050600060046000838152602001908152602001600020540361285b57600054811461285a578460046000838152602001908152602001600020819055505b5b505b85600073ffffffffffffffffffffffffffffffffffffffff168473ffffffffffffffffffffffffffffffffffffffff167fddf252ad1be2c89b69c2b068fc378daa952ba7f163c4a11628f55a4df523b3ef60405160405180910390a46128c7836000886001611e0f565b600160008154809291906001019190505550505050505050565b60006128ed8383612504565b61294657826000018290806001815401808255809150506001900390600052602060002001600090919091909150558260000180549050836001016000848152602001908152602001600020819055506001905061294b565b600090505b92915050565b82805461295d906132da565b90600052602060002090601f01602090048101928261297f57600085556129c6565b82601f1061299857803560ff19168380011785556129c6565b828001600101855582156129c6579182015b828111156129c55782358255916020019190600101906129aa565b5b5090506129d391906129d7565b5090565b5b808211156129f05760008160009055506001016129d8565b5090565b6000604051905090565b600080fd5b600080fd5b60007fffffffff0000000000000000000000000000000000000000000000000000000082169050919050565b612a3d81612a08565b8114612a4857600080fd5b50565b600081359050612a5a81612a34565b92915050565b600060208284031215612a7657612a756129fe565b5b6000612a8484828501612a4b565b91505092915050565b60008115159050919050565b612aa281612a8d565b82525050565b6000602082019050612abd6000830184612a99565b92915050565b6000819050919050565b612ad681612ac3565b8114612ae157600080fd5b50565b600081359050612af381612acd565b92915050565b600060208284031215612b0f57612b0e6129fe565b5b6000612b1d84828501612ae4565b91505092915050565b612b2f81612ac3565b82525050565b6000602082019050612b4a6000830184612b26565b92915050565b600081519050919050565b600082825260208201905092915050565b60005b83811015612b8a578082015181840152602081019050612b6f565b83811115612b99576000848401525b50505050565b6000601f19601f8301169050919050565b6000612bbb82612b50565b612bc58185612b5b565b9350612bd5818560208601612b6c565b612bde81612b9f565b840191505092915050565b60006020820190508181036000830152612c038184612bb0565b905092915050565b600073ffffffffffffffffffffffffffffffffffffffff82169050919050565b6000612c3682612c0b565b9050919050565b612c4681612c2b565b82525050565b6000602082019050612c616000830184612c3d565b92915050565b612c7081612c2b565b8114612c7b57600080fd5b50565b600081359050612c8d81612c67565b92915050565b60008060408385031215612caa57612ca96129fe565b5b6000612cb885828601612c7e565b9250506020612cc985828601612ae4565b9150509250929050565b600080600060608486031215612cec57612ceb6129fe565b5b6000612cfa86828701612c7e565b9350506020612d0b86828701612c7e565b9250506040612d1c86828701612ae4565b9150509250925092565b600060208284031215612d3c57612d3b6129fe565b5b6000612d4a84828501612c7e565b91505092915050565b600081519050919050565b600082825260208201905092915050565b6000819050602082019050919050565b612d8881612c2b565b82525050565b6000612d9a8383612d7f565b60208301905092915050565b6000602082019050919050565b6000612dbe82612d53565b612dc88185612d5e565b9350612dd383612d6f565b8060005b83811015612e04578151612deb8882612d8e565b9750612df683612da6565b925050600181019050612dd7565b5085935050505092915050565b60006020820190508181036000830152612e2b8184612db3565b905092915050565b600080fd5b600080fd5b600080fd5b60008083601f840112612e5857612e57612e33565b5b8235905067ffffffffffffffff811115612e7557612e74612e38565b5b602083019150836001820283011115612e9157612e90612e3d565b5b9250929050565b600080600060408486031215612eb157612eb06129fe565b5b6000612ebf86828701612ae4565b935050602084013567ffffffffffffffff811115612ee057612edf612a03565b5b612eec86828701612e42565b92509250509250925092565b6000612f0382612c0b565b9050919050565b612f1381612ef8565b8114612f1e57600080fd5b50565b600081359050612f3081612f0a565b92915050565b60008060408385031215612f4d57612f4c6129fe565b5b6000612f5b85828601612f21565b9250506020612f6c85828601612ae4565b9150509250929050565b612f7f81612a8d565b8114612f8a57600080fd5b50565b600081359050612f9c81612f76565b92915050565b60008060408385031215612fb957612fb86129fe565b5b6000612fc785828601612c7e565b9250506020612fd885828601612f8d565b9150509250929050565b600080fd5b7f4e487b7100000000000000000000000000000000000000000000000000000000600052604160045260246000fd5b61301f82612b9f565b810181811067ffffffffffffffff8211171561303e5761303d612fe7565b5b80604052505050565b60006130516129f4565b905061305d8282613016565b919050565b600067ffffffffffffffff82111561307d5761307c612fe7565b5b61308682612b9f565b9050602081019050919050565b82818337600083830152505050565b60006130b56130b084613062565b613047565b9050828152602081018484840111156130d1576130d0612fe2565b5b6130dc848285613093565b509392505050565b600082601f8301126130f9576130f8612e33565b5b81356131098482602086016130a2565b91505092915050565b6000806000806080858703121561312c5761312b6129fe565b5b600061313a87828801612c7e565b945050602061314b87828801612c7e565b935050604061315c87828801612ae4565b925050606085013567ffffffffffffffff81111561317d5761317c612a03565b5b613189878288016130e4565b91505092959194509250565b60006040820190506131aa6000830185612c3d565b6131b76020830184612b26565b9392505050565b600080604083850312156131d5576131d46129fe565b5b60006131e385828601612c7e565b92505060206131f485828601612c7e565b9150509250929050565b6000819050919050565b61321961321482612ac3565b6131fe565b82525050565b600061322b8285613208565b60208201915061323b8284613208565b6020820191508190509392505050565b7f4e487b7100000000000000000000000000000000000000000000000000000000600052601260045260246000fd5b600061328582612ac3565b915061329083612ac3565b9250826132a05761329f61324b565b5b828206905092915050565b7f4e487b7100000000000000000000000000000000000000000000000000000000600052602260045260246000fd5b600060028204905060018216806132f257607f821691505b602082108103613305576133046132ab565b5b50919050565b7f4e487b7100000000000000000000000000000000000000000000000000000000600052603260045260246000fd5b7f4e487b7100000000000000000000000000000000000000000000000000000000600052601160045260246000fd5b600061337482612ac3565b91507fffffffffffffffffffffffffffffffffffffffffffffffffffffffffffffffff82036133a6576133a561333a565b5b600182019050919050565b7f41646d696e436f6e74726f6c3a204d757374206265206f776e6572206f72206160008201527f646d696e00000000000000000000000000000000000000000000000000000000602082015250565b600061340d602483612b5b565b9150613418826133b1565b604082019050919050565b6000602082019050818103600083015261343c81613400565b9050919050565b600061344e82612ac3565b915061345983612ac3565b9250827fffffffffffffffffffffffffffffffffffffffffffffffffffffffffffffffff0382111561348e5761348d61333a565b5b828201905092915050565b7f4f776e6572206f6e6c7900000000000000000000000000000000000000000000600082015250565b60006134cf600a83612b5b565b91506134da82613499565b602082019050919050565b600060208201905081810360008301526134fe816134c2565b9050919050565b7f4552433732314d657461646174613a2055524920717565727920666f72206e6f60008201527f6e6578697374656e7420746f6b656e0000000000000000000000000000000000602082015250565b6000613561602f83612b5b565b915061356c82613505565b604082019050919050565b6000602082019050818103600083015261359081613554565b9050919050565b600081905092915050565b60008190508160005260206000209050919050565b600081546135c4816132da565b6135ce8186613597565b945060018216600081146135e957600181146135fa5761362d565b60ff1983168652818601935061362d565b613603856135a2565b60005b8381101561362557815481890152600182019150602081019050613606565b838801955050505b50505092915050565b600061364182612b50565b61364b8185613597565b935061365b818560208601612b6c565b80840191505092915050565b7f2e6a736f6e000000000000000000000000000000000000000000000000000000600082015250565b600061369d600583613597565b91506136a882613667565b600582019050919050565b60006136bf82856135b7565b91506136cb8284613636565b91506136d682613690565b91508190509392505050565b60006136ed82612ac3565b91506136f883612ac3565b9250817fffffffffffffffffffffffffffffffffffffffffffffffffffffffffffffffff04831182151516156137315761373061333a565b5b828202905092915050565b600061374782612ac3565b915061375283612ac3565b9250826137625761376161324b565b5b828204905092915050565b7f4f776e61626c653a206e6577206f776e657220697320746865207a65726f206160008201527f6464726573730000000000000000000000000000000000000000000000000000602082015250565b60006137c9602683612b5b565b91506137d48261376d565b604082019050919050565b600060208201905081810360008301526137f8816137bc565b9050919050565b7f4f776e61626c653a2063616c6c6572206973206e6f7420746865206f776e6572600082015250565b6000613835602083612b5b565b9150613840826137ff565b602082019050919050565b6000602082019050818103600083015261386481613828565b9050919050565b600081519050919050565b600082825260208201905092915050565b60006138928261386b565b61389c8185613876565b93506138ac818560208601612b6c565b6138b581612b9f565b840191505092915050565b60006080820190506138d56000830187612c3d565b6138e26020830186612c3d565b6138ef6040830185612b26565b81810360608301526139018184613887565b905095945050505050565b60008151905061391b81612a34565b92915050565b600060208284031215613937576139366129fe565b5b60006139458482850161390c565b91505092915050565b600061395982612ac3565b915061396483612ac3565b9250828210156139775761397661333a565b5b828203905092915050565b7f4e487b7100000000000000000000000000000000000000000000000000000000600052603160045260246000fdfea26469706673582212201f1401926449ffe514adebf1d314d69e633c7e908944afb06cba7c290cbe1ba664736f6c634300080d0033",
  "immutableReferences": {},
  "source": "// SPDX-License-Identifier: MIT\n\npragma solidity >= 0.8.13;\n\nimport \"erc721a/contracts/ERC721A.sol\";\nimport \"@manifoldxyz/royalty-registry-solidity/contracts/specs/IEIP2981.sol\";\nimport \"@manifoldxyz/libraries-solidity/contracts/access/AdminControl.sol\";\nimport \"@openzeppelin/contracts/utils/Strings.sol\";\n\ncontract Anastasis_Act2 is ERC721A, AdminControl {\n    \n    address payable  private _royalties_recipient;\n    uint256 private _royaltyAmount; //in % \n    uint256 public _uriNumber;\n    uint256 public _tokenId = 1;\n    string public _uri;\n    \n    mapping(uint256 => uint256) public _tokenURIs;\n\n    \n    constructor () ERC721A(\"f-1 Anastasis - Act2\", \"f-1 AA2\") {\n        _royalties_recipient = payable(msg.sender);\n        _royaltyAmount = 10;\n    } \n\n    function supportsInterface(bytes4 interfaceId)\n        public\n        view\n        virtual\n        override(ERC721A, AdminControl)\n        returns (bool)\n    {\n        return\n        AdminControl.supportsInterface(interfaceId) ||\n        ERC721A.supportsInterface(interfaceId) ||\n        interfaceId == type(IEIP2981).interfaceId ||\n        super.supportsInterface(interfaceId);\n    }\n\n    function mint( \n        address to,\n        uint256 quantity\n    ) external adminRequired{\n        for(uint256 i=0; i < quantity; i++){\n            uint256 rarity = getPseudoRandomNumber(10);\n            uint256 uri;\n            if(rarity == 0){\n                uri = getPseudoRandomNumber(3) + 1;\n            }else if(rarity == 1 || rarity == 2){\n                uri = getPseudoRandomNumber(4) + 4;\n            }else{\n                uri = getPseudoRandomNumber(7) + 8;\n            }\n            _tokenURIs[_tokenId] = uri;\n            _tokenId += 1;\n        }\n        _mint(to, quantity);\n    }\n\n    function getPseudoRandomNumber(uint256 length) public view returns (uint256){    \n        uint256 rnd = uint256(keccak256(abi.encodePacked(block.timestamp, _tokenId)));\n        return rnd % length;\n    }\n\n    function burn(uint256 tokenId) public {\n        address owner = ERC721A.ownerOf(tokenId);\n        require(msg.sender == owner, \"Owner only\");\n        _burn(tokenId);\n    }\n\n    function setURI(\n        uint256 uriNumber,\n        string calldata updatedURI\n    ) external adminRequired{\n        _uriNumber = uriNumber;\n        _uri = updatedURI;\n    }\n\n    function tokenURI(uint256 tokenId) public view virtual override returns (string memory) {\n        require(_exists(tokenId), \"ERC721Metadata: URI query for nonexistent token\");\n        return string(abi.encodePacked(_uri, Strings.toString(_tokenURIs[tokenId]), \".json\"));\n    }\n\n    function setRoyalties(address payable _recipient, uint256 _royaltyPerCent) external adminRequired {\n        _royalties_recipient = _recipient;\n        _royaltyAmount = _royaltyPerCent;\n    }\n\n    function royaltyInfo(uint256 salePrice) external view returns (address, uint256) {\n        if(_royalties_recipient != address(0)){\n            return (_royalties_recipient, (salePrice * _royaltyAmount) / 100 );\n        }\n        return (address(0), 0);\n    }\n\n    function withdraw(address recipient) external adminRequired {\n        payable(recipient).transfer(address(this).balance);\n    }\n\n}",
  "sourcePath": "/Users/bct/Documents/Dev/NFT_dev/Anastasis/contracts/AnastasisAct2.sol",
  "compiler": {
    "name": "solc",
    "version": "0.8.13+commit.abaa5c0e.Emscripten.clang"
  },
  "schemaVersion": "3.4.4",
  "updatedAt": "2022-09-26T19:18:33.353Z",
  "devdoc": {
    "kind": "dev",
    "methods": {
      "approve(address,uint256)": {
        "details": "Gives permission to `to` to transfer `tokenId` token to another account. The approval is cleared when the token is transferred. Only a single account can be approved at a time, so approving the zero address clears previous approvals. Requirements: - The caller must own the token or be an approved operator. - `tokenId` must exist. Emits an {Approval} event."
      },
      "approveAdmin(address)": {
        "details": "See {IAdminControl-approveAdmin}."
      },
      "balanceOf(address)": {
        "details": "Returns the number of tokens in `owner`'s account."
      },
      "getAdmins()": {
        "details": "See {IAdminControl-getAdmins}."
      },
      "getApproved(uint256)": {
        "details": "Returns the account approved for `tokenId` token. Requirements: - `tokenId` must exist."
      },
      "isAdmin(address)": {
        "details": "See {IAdminControl-isAdmin}."
      },
      "isApprovedForAll(address,address)": {
        "details": "Returns if the `operator` is allowed to manage all of the assets of `owner`. See {setApprovalForAll}."
      },
      "name()": {
        "details": "Returns the token collection name."
      },
      "owner()": {
        "details": "Returns the address of the current owner."
      },
      "ownerOf(uint256)": {
        "details": "Returns the owner of the `tokenId` token. Requirements: - `tokenId` must exist."
      },
      "renounceOwnership()": {
        "details": "Leaves the contract without owner. It will not be possible to call `onlyOwner` functions anymore. Can only be called by the current owner. NOTE: Renouncing ownership will leave the contract without an owner, thereby removing any functionality that is only available to the owner."
      },
      "revokeAdmin(address)": {
        "details": "See {IAdminControl-revokeAdmin}."
      },
      "safeTransferFrom(address,address,uint256)": {
        "details": "Equivalent to `safeTransferFrom(from, to, tokenId, '')`."
      },
      "safeTransferFrom(address,address,uint256,bytes)": {
        "details": "Safely transfers `tokenId` token from `from` to `to`. Requirements: - `from` cannot be the zero address. - `to` cannot be the zero address. - `tokenId` token must exist and be owned by `from`. - If the caller is not `from`, it must be approved to move this token by either {approve} or {setApprovalForAll}. - If `to` refers to a smart contract, it must implement {IERC721Receiver-onERC721Received}, which is called upon a safe transfer. Emits a {Transfer} event."
      },
      "setApprovalForAll(address,bool)": {
        "details": "Approve or remove `operator` as an operator for the caller. Operators can call {transferFrom} or {safeTransferFrom} for any token owned by the caller. Requirements: - The `operator` cannot be the caller. Emits an {ApprovalForAll} event."
      },
      "symbol()": {
        "details": "Returns the token collection symbol."
      },
      "tokenURI(uint256)": {
        "details": "Returns the Uniform Resource Identifier (URI) for `tokenId` token."
      },
      "totalSupply()": {
        "details": "Returns the total number of tokens in existence. Burned tokens will reduce the count. To get the total number of tokens minted, please see {_totalMinted}."
      },
      "transferFrom(address,address,uint256)": {
        "details": "Transfers `tokenId` from `from` to `to`. Requirements: - `from` cannot be the zero address. - `to` cannot be the zero address. - `tokenId` token must be owned by `from`. - If the caller is not `from`, it must be approved to move this token by either {approve} or {setApprovalForAll}. Emits a {Transfer} event."
      },
      "transferOwnership(address)": {
        "details": "Transfers ownership of the contract to a new account (`newOwner`). Can only be called by the current owner."
      }
    },
    "version": 1
  },
  "userdoc": {
    "errors": {
      "ApprovalCallerNotOwnerNorApproved()": [
        {
          "notice": "The caller must own the token or be an approved operator."
        }
      ],
      "ApprovalQueryForNonexistentToken()": [
        {
          "notice": "The token does not exist."
        }
      ],
      "BalanceQueryForZeroAddress()": [
        {
          "notice": "Cannot query the balance for the zero address."
        }
      ],
      "MintERC2309QuantityExceedsLimit()": [
        {
          "notice": "The `quantity` minted with ERC2309 exceeds the safety limit."
        }
      ],
      "MintToZeroAddress()": [
        {
          "notice": "Cannot mint to the zero address."
        }
      ],
      "MintZeroQuantity()": [
        {
          "notice": "The quantity of tokens minted must be more than zero."
        }
      ],
      "OwnerQueryForNonexistentToken()": [
        {
          "notice": "The token does not exist."
        }
      ],
      "OwnershipNotInitializedForExtraData()": [
        {
          "notice": "The `extraData` cannot be set on an unintialized ownership slot."
        }
      ],
      "TransferCallerNotOwnerNorApproved()": [
        {
          "notice": "The caller must own the token or be an approved operator."
        }
      ],
      "TransferFromIncorrectOwner()": [
        {
          "notice": "The token must be owned by `from`."
        }
      ],
      "TransferToNonERC721ReceiverImplementer()": [
        {
          "notice": "Cannot safely transfer to a contract that does not implement the ERC721Receiver interface."
        }
      ],
      "TransferToZeroAddress()": [
        {
          "notice": "Cannot transfer to the zero address."
        }
      ],
      "URIQueryForNonexistentToken()": [
        {
          "notice": "The token does not exist."
        }
      ]
    },
    "kind": "user",
    "methods": {},
    "version": 1
  }
}