{
  "contractName": "Anastasis_Act3",
  "abi": [
    {
      "inputs": [],
      "stateMutability": "nonpayable",
      "type": "constructor"
    },
    {
      "anonymous": false,
      "inputs": [
        {
          "indexed": true,
          "internalType": "address",
          "name": "account",
          "type": "address"
        },
        {
          "indexed": true,
          "internalType": "address",
          "name": "sender",
          "type": "address"
        }
      ],
      "name": "AdminApproved",
      "type": "event"
    },
    {
      "anonymous": false,
      "inputs": [
        {
          "indexed": true,
          "internalType": "address",
          "name": "account",
          "type": "address"
        },
        {
          "indexed": true,
          "internalType": "address",
          "name": "sender",
          "type": "address"
        }
      ],
      "name": "AdminRevoked",
      "type": "event"
    },
    {
      "anonymous": false,
      "inputs": [
        {
          "indexed": true,
          "internalType": "address",
          "name": "owner",
          "type": "address"
        },
        {
          "indexed": true,
          "internalType": "address",
          "name": "approved",
          "type": "address"
        },
        {
          "indexed": true,
          "internalType": "uint256",
          "name": "tokenId",
          "type": "uint256"
        }
      ],
      "name": "Approval",
      "type": "event"
    },
    {
      "anonymous": false,
      "inputs": [
        {
          "indexed": true,
          "internalType": "address",
          "name": "owner",
          "type": "address"
        },
        {
          "indexed": true,
          "internalType": "address",
          "name": "operator",
          "type": "address"
        },
        {
          "indexed": false,
          "internalType": "bool",
          "name": "approved",
          "type": "bool"
        }
      ],
      "name": "ApprovalForAll",
      "type": "event"
    },
    {
      "anonymous": false,
      "inputs": [
        {
          "indexed": true,
          "internalType": "address",
          "name": "previousOwner",
          "type": "address"
        },
        {
          "indexed": true,
          "internalType": "address",
          "name": "newOwner",
          "type": "address"
        }
      ],
      "name": "OwnershipTransferred",
      "type": "event"
    },
    {
      "anonymous": false,
      "inputs": [
        {
          "indexed": true,
          "internalType": "address",
          "name": "from",
          "type": "address"
        },
        {
          "indexed": true,
          "internalType": "address",
          "name": "to",
          "type": "address"
        },
        {
          "indexed": true,
          "internalType": "uint256",
          "name": "tokenId",
          "type": "uint256"
        }
      ],
      "name": "Transfer",
      "type": "event"
    },
    {
      "inputs": [
        {
          "internalType": "uint256",
          "name": "",
          "type": "uint256"
        }
      ],
      "name": "_availableURIs",
      "outputs": [
        {
          "internalType": "uint256",
          "name": "",
          "type": "uint256"
        }
      ],
      "stateMutability": "view",
      "type": "function"
    },
    {
      "inputs": [],
      "name": "_editionNumber",
      "outputs": [
        {
          "internalType": "uint256",
          "name": "",
          "type": "uint256"
        }
      ],
      "stateMutability": "view",
      "type": "function"
    },
    {
      "inputs": [],
      "name": "_tokenId",
      "outputs": [
        {
          "internalType": "uint256",
          "name": "",
          "type": "uint256"
        }
      ],
      "stateMutability": "view",
      "type": "function"
    },
    {
      "inputs": [
        {
          "internalType": "uint256",
          "name": "",
          "type": "uint256"
        }
      ],
      "name": "_tokenURIs",
      "outputs": [
        {
          "internalType": "uint256",
          "name": "",
          "type": "uint256"
        }
      ],
      "stateMutability": "view",
      "type": "function"
    },
    {
      "inputs": [],
      "name": "_uri",
      "outputs": [
        {
          "internalType": "string",
          "name": "",
          "type": "string"
        }
      ],
      "stateMutability": "view",
      "type": "function"
    },
    {
      "inputs": [
        {
          "internalType": "address",
          "name": "to",
          "type": "address"
        },
        {
          "internalType": "uint256",
          "name": "tokenId",
          "type": "uint256"
        }
      ],
      "name": "approve",
      "outputs": [],
      "stateMutability": "nonpayable",
      "type": "function"
    },
    {
      "inputs": [
        {
          "internalType": "address",
          "name": "admin",
          "type": "address"
        }
      ],
      "name": "approveAdmin",
      "outputs": [],
      "stateMutability": "nonpayable",
      "type": "function"
    },
    {
      "inputs": [
        {
          "internalType": "address",
          "name": "owner",
          "type": "address"
        }
      ],
      "name": "balanceOf",
      "outputs": [
        {
          "internalType": "uint256",
          "name": "",
          "type": "uint256"
        }
      ],
      "stateMutability": "view",
      "type": "function"
    },
    {
      "inputs": [],
      "name": "getAdmins",
      "outputs": [
        {
          "internalType": "address[]",
          "name": "admins",
          "type": "address[]"
        }
      ],
      "stateMutability": "view",
      "type": "function"
    },
    {
      "inputs": [
        {
          "internalType": "uint256",
          "name": "tokenId",
          "type": "uint256"
        }
      ],
      "name": "getApproved",
      "outputs": [
        {
          "internalType": "address",
          "name": "",
          "type": "address"
        }
      ],
      "stateMutability": "view",
      "type": "function"
    },
    {
      "inputs": [
        {
          "internalType": "address",
          "name": "admin",
          "type": "address"
        }
      ],
      "name": "isAdmin",
      "outputs": [
        {
          "internalType": "bool",
          "name": "",
          "type": "bool"
        }
      ],
      "stateMutability": "view",
      "type": "function"
    },
    {
      "inputs": [
        {
          "internalType": "address",
          "name": "owner",
          "type": "address"
        },
        {
          "internalType": "address",
          "name": "operator",
          "type": "address"
        }
      ],
      "name": "isApprovedForAll",
      "outputs": [
        {
          "internalType": "bool",
          "name": "",
          "type": "bool"
        }
      ],
      "stateMutability": "view",
      "type": "function"
    },
    {
      "inputs": [],
      "name": "name",
      "outputs": [
        {
          "internalType": "string",
          "name": "",
          "type": "string"
        }
      ],
      "stateMutability": "view",
      "type": "function"
    },
    {
      "inputs": [],
      "name": "owner",
      "outputs": [
        {
          "internalType": "address",
          "name": "",
          "type": "address"
        }
      ],
      "stateMutability": "view",
      "type": "function"
    },
    {
      "inputs": [
        {
          "internalType": "uint256",
          "name": "tokenId",
          "type": "uint256"
        }
      ],
      "name": "ownerOf",
      "outputs": [
        {
          "internalType": "address",
          "name": "",
          "type": "address"
        }
      ],
      "stateMutability": "view",
      "type": "function"
    },
    {
      "inputs": [],
      "name": "renounceOwnership",
      "outputs": [],
      "stateMutability": "nonpayable",
      "type": "function"
    },
    {
      "inputs": [
        {
          "internalType": "address",
          "name": "admin",
          "type": "address"
        }
      ],
      "name": "revokeAdmin",
      "outputs": [],
      "stateMutability": "nonpayable",
      "type": "function"
    },
    {
      "inputs": [
        {
          "internalType": "address",
          "name": "from",
          "type": "address"
        },
        {
          "internalType": "address",
          "name": "to",
          "type": "address"
        },
        {
          "internalType": "uint256",
          "name": "tokenId",
          "type": "uint256"
        }
      ],
      "name": "safeTransferFrom",
      "outputs": [],
      "stateMutability": "nonpayable",
      "type": "function"
    },
    {
      "inputs": [
        {
          "internalType": "address",
          "name": "from",
          "type": "address"
        },
        {
          "internalType": "address",
          "name": "to",
          "type": "address"
        },
        {
          "internalType": "uint256",
          "name": "tokenId",
          "type": "uint256"
        },
        {
          "internalType": "bytes",
          "name": "data",
          "type": "bytes"
        }
      ],
      "name": "safeTransferFrom",
      "outputs": [],
      "stateMutability": "nonpayable",
      "type": "function"
    },
    {
      "inputs": [
        {
          "internalType": "address",
          "name": "operator",
          "type": "address"
        },
        {
          "internalType": "bool",
          "name": "approved",
          "type": "bool"
        }
      ],
      "name": "setApprovalForAll",
      "outputs": [],
      "stateMutability": "nonpayable",
      "type": "function"
    },
    {
      "inputs": [],
      "name": "symbol",
      "outputs": [
        {
          "internalType": "string",
          "name": "",
          "type": "string"
        }
      ],
      "stateMutability": "view",
      "type": "function"
    },
    {
      "inputs": [
        {
          "internalType": "address",
          "name": "from",
          "type": "address"
        },
        {
          "internalType": "address",
          "name": "to",
          "type": "address"
        },
        {
          "internalType": "uint256",
          "name": "tokenId",
          "type": "uint256"
        }
      ],
      "name": "transferFrom",
      "outputs": [],
      "stateMutability": "nonpayable",
      "type": "function"
    },
    {
      "inputs": [
        {
          "internalType": "address",
          "name": "newOwner",
          "type": "address"
        }
      ],
      "name": "transferOwnership",
      "outputs": [],
      "stateMutability": "nonpayable",
      "type": "function"
    },
    {
      "inputs": [
        {
          "internalType": "bytes4",
          "name": "interfaceId",
          "type": "bytes4"
        }
      ],
      "name": "supportsInterface",
      "outputs": [
        {
          "internalType": "bool",
          "name": "",
          "type": "bool"
        }
      ],
      "stateMutability": "view",
      "type": "function"
    },
    {
      "inputs": [
        {
          "internalType": "address",
          "name": "to",
          "type": "address"
        }
      ],
      "name": "mint",
      "outputs": [],
      "stateMutability": "nonpayable",
      "type": "function"
    },
    {
      "inputs": [
        {
          "internalType": "uint256",
          "name": "index",
          "type": "uint256"
        }
      ],
      "name": "removeToken",
      "outputs": [],
      "stateMutability": "nonpayable",
      "type": "function"
    },
    {
      "inputs": [
        {
          "internalType": "uint256",
          "name": "length",
          "type": "uint256"
        },
        {
          "internalType": "address",
          "name": "account",
          "type": "address"
        }
      ],
      "name": "getPseudoRandomNumber",
      "outputs": [
        {
          "internalType": "uint256",
          "name": "",
          "type": "uint256"
        }
      ],
      "stateMutability": "view",
      "type": "function"
    },
    {
      "inputs": [
        {
          "internalType": "uint256",
          "name": "tokenId",
          "type": "uint256"
        }
      ],
      "name": "burn",
      "outputs": [],
      "stateMutability": "nonpayable",
      "type": "function"
    },
    {
      "inputs": [
        {
          "internalType": "string",
          "name": "updatedURI",
          "type": "string"
        }
      ],
      "name": "setURI",
      "outputs": [],
      "stateMutability": "nonpayable",
      "type": "function"
    },
    {
      "inputs": [
        {
          "internalType": "uint256",
          "name": "tokenId",
          "type": "uint256"
        }
      ],
      "name": "tokenURI",
      "outputs": [
        {
          "internalType": "string",
          "name": "",
          "type": "string"
        }
      ],
      "stateMutability": "view",
      "type": "function"
    },
    {
      "inputs": [
        {
          "internalType": "address payable",
          "name": "_recipient",
          "type": "address"
        },
        {
          "internalType": "uint256",
          "name": "_royaltyPerCent",
          "type": "uint256"
        }
      ],
      "name": "setRoyalties",
      "outputs": [],
      "stateMutability": "nonpayable",
      "type": "function"
    },
    {
      "inputs": [
        {
          "internalType": "uint256",
          "name": "salePrice",
          "type": "uint256"
        }
      ],
      "name": "royaltyInfo",
      "outputs": [
        {
          "internalType": "address",
          "name": "",
          "type": "address"
        },
        {
          "internalType": "uint256",
          "name": "",
          "type": "uint256"
        }
      ],
      "stateMutability": "view",
      "type": "function"
    },
    {
      "inputs": [
        {
          "internalType": "address",
          "name": "recipient",
          "type": "address"
        }
      ],
      "name": "withdraw",
      "outputs": [],
      "stateMutability": "nonpayable",
      "type": "function"
    }
  ],
  "bytecode": "0x60806040526021600b556001600c553480156200001b57600080fd5b506040518060400160405280601481526020017f662d3120416e61737461736973202d20416374330000000000000000000000008152506040518060400160405280600781526020017f662d312041413300000000000000000000000000000000000000000000000000815250620000a86200009c620001b960201b60201c565b620001c160201b60201c565b8160019080519060200190620000c092919062000285565b508060029080519060200190620000d992919062000285565b5050506040518060a00160405280600160ff168152602001600260ff168152602001600360ff168152602001600460ff168152602001600560ff16815250600d9060056200012992919062000316565b5060005b600d8054905081116200016a57600b54600f60008381526020019081526020016000208190555080806200016190620003c5565b9150506200012d565b5033600960006101000a81548173ffffffffffffffffffffffffffffffffffffffff021916908373ffffffffffffffffffffffffffffffffffffffff160217905550600a808190555062000476565b600033905090565b60008060009054906101000a900473ffffffffffffffffffffffffffffffffffffffff169050816000806101000a81548173ffffffffffffffffffffffffffffffffffffffff021916908373ffffffffffffffffffffffffffffffffffffffff1602179055508173ffffffffffffffffffffffffffffffffffffffff168173ffffffffffffffffffffffffffffffffffffffff167f8be0079c531659141344cd1fd0a4f28419497f9722a3daafe3b4186f6b6457e060405160405180910390a35050565b828054620002939062000441565b90600052602060002090601f016020900481019282620002b7576000855562000303565b82601f10620002d257805160ff191683800117855562000303565b8280016001018555821562000303579182015b8281111562000302578251825591602001919060010190620002e5565b5b5090506200031291906200036d565b5090565b8280548282559060005260206000209081019282156200035a579160200282015b8281111562000359578251829060ff1690559160200191906001019062000337565b5b5090506200036991906200036d565b5090565b5b80821115620003885760008160009055506001016200036e565b5090565b7f4e487b7100000000000000000000000000000000000000000000000000000000600052601160045260246000fd5b6000819050919050565b6000620003d282620003bb565b91507fffffffffffffffffffffffffffffffffffffffffffffffffffffffffffffffff82036200040757620004066200038c565b5b600182019050919050565b7f4e487b7100000000000000000000000000000000000000000000000000000000600052602260045260246000fd5b600060028204905060018216806200045a57607f821691505b60208210810362000470576200046f62000412565b5b50919050565b613fcf80620004866000396000f3fe608060405234801561001057600080fd5b50600436106101fb5760003560e01c806351cff8d91161011a57806395d89b41116100ad578063c783f2a21161007c578063c783f2a214610598578063c87b56dd146105c8578063cef6d368146105f8578063e985e9c514610629578063f2fde38b14610659576101fb565b806395d89b4114610512578063a22cb46514610530578063ae3510cf1461054c578063b88d4fde1461057c576101fb565b806370a08231116100e957806370a082311461049e578063715018a6146104ce5780638c7ea24b146104d85780638da5cb5b146104f4576101fb565b806351cff8d91461041a5780636352211e146104365780636a627842146104665780636d73e66914610482576101fb565b806323b872dd1161019257806331ae450b1161016157806331ae450b146103a857806336c5d724146103c657806342842e0e146103e257806342966c68146103fe576101fb565b806323b872dd14610322578063248225141461033e57806324d7806c1461035c5780632d3456701461038c576101fb565b8063095ea7b3116101ce578063095ea7b31461029a5780630bb78ec1146102b65780630dccc9ad146102e6578063130a398a14610304576101fb565b806301ffc9a71461020057806302fe53051461023057806306fdde031461024c578063081812fc1461026a575b600080fd5b61021a600480360381019061021591906129e1565b610675565b6040516102279190612a29565b60405180910390f35b61024a60048036038101906102459190612aa9565b61070f565b005b6102546107b5565b6040516102619190612b8f565b60405180910390f35b610284600480360381019061027f9190612be7565b610847565b6040516102919190612c55565b60405180910390f35b6102b460048036038101906102af9190612c9c565b61088d565b005b6102d060048036038101906102cb9190612be7565b6109a4565b6040516102dd9190612ceb565b60405180910390f35b6102ee6109bc565b6040516102fb9190612b8f565b60405180910390f35b61030c610a4a565b6040516103199190612ceb565b60405180910390f35b61033c60048036038101906103379190612d06565b610a50565b005b610346610ab0565b6040516103539190612ceb565b60405180910390f35b61037660048036038101906103719190612d59565b610ab6565b6040516103839190612a29565b60405180910390f35b6103a660048036038101906103a19190612d59565b610b10565b005b6103b0610ba4565b6040516103bd9190612e44565b60405180910390f35b6103e060048036038101906103db9190612be7565b610c86565b005b6103fc60048036038101906103f79190612d06565b610d03565b005b61041860048036038101906104139190612be7565b610d23565b005b610434600480360381019061042f9190612d59565b610dab565b005b610450600480360381019061044b9190612be7565b610e85565b60405161045d9190612c55565b60405180910390f35b610480600480360381019061047b9190612d59565b610f36565b005b61049c60048036038101906104979190612d59565b611016565b005b6104b860048036038101906104b39190612d59565b6110a9565b6040516104c59190612ceb565b60405180910390f35b6104d6611160565b005b6104f260048036038101906104ed9190612ea4565b611174565b005b6104fc611250565b6040516105099190612c55565b60405180910390f35b61051a611279565b6040516105279190612b8f565b60405180910390f35b61054a60048036038101906105459190612f10565b61130b565b005b61056660048036038101906105619190612be7565b611321565b6040516105739190612ceb565b60405180910390f35b61059660048036038101906105919190613080565b611345565b005b6105b260048036038101906105ad9190613103565b6113a7565b6040516105bf9190612ceb565b60405180910390f35b6105e260048036038101906105dd9190612be7565b611402565b6040516105ef9190612b8f565b60405180910390f35b610612600480360381019061060d9190612be7565b611491565b604051610620929190613143565b60405180910390f35b610643600480360381019061063e919061316c565b61153d565b6040516106509190612a29565b60405180910390f35b610673600480360381019061066e9190612d59565b6115d1565b005b600061068082611654565b80610690575061068f826116ce565b5b806106f857507f2a55205a000000000000000000000000000000000000000000000000000000007bffffffffffffffffffffffffffffffffffffffffffffffffffffffff1916827bffffffffffffffffffffffffffffffffffffffffffffffffffffffff1916145b80610708575061070782611654565b5b9050919050565b3373ffffffffffffffffffffffffffffffffffffffff1661072e611250565b73ffffffffffffffffffffffffffffffffffffffff161480610760575061075f3360076117b090919063ffffffff16565b5b61079f576040517f08c379a00000000000000000000000000000000000000000000000000000000081526004016107969061321e565b60405180910390fd5b8181600e91906107b09291906128d2565b505050565b6060600180546107c49061326d565b80601f01602080910402602001604051908101604052809291908181526020018280546107f09061326d565b801561083d5780601f106108125761010080835404028352916020019161083d565b820191906000526020600020905b81548152906001019060200180831161082057829003601f168201915b5050505050905090565b6000610852826117e0565b6005600083815260200190815260200160002060009054906101000a900473ffffffffffffffffffffffffffffffffffffffff169050919050565b600061089882610e85565b90508073ffffffffffffffffffffffffffffffffffffffff168373ffffffffffffffffffffffffffffffffffffffff1603610908576040517f08c379a00000000000000000000000000000000000000000000000000000000081526004016108ff90613310565b60405180910390fd5b8073ffffffffffffffffffffffffffffffffffffffff1661092761182b565b73ffffffffffffffffffffffffffffffffffffffff16148061095657506109558161095061182b565b61153d565b5b610995576040517f08c379a000000000000000000000000000000000000000000000000000000000815260040161098c906133a2565b60405180910390fd5b61099f8383611833565b505050565b60106020528060005260406000206000915090505481565b600e80546109c99061326d565b80601f01602080910402602001604051908101604052809291908181526020018280546109f59061326d565b8015610a425780601f10610a1757610100808354040283529160200191610a42565b820191906000526020600020905b815481529060010190602001808311610a2557829003601f168201915b505050505081565b600b5481565b610a61610a5b61182b565b826118ec565b610aa0576040517f08c379a0000000000000000000000000000000000000000000000000000000008152600401610a9790613434565b60405180910390fd5b610aab838383611981565b505050565b600c5481565b60008173ffffffffffffffffffffffffffffffffffffffff16610ad7611250565b73ffffffffffffffffffffffffffffffffffffffff161480610b095750610b088260076117b090919063ffffffff16565b5b9050919050565b610b18611be7565b610b2c8160076117b090919063ffffffff16565b15610ba1573373ffffffffffffffffffffffffffffffffffffffff168173ffffffffffffffffffffffffffffffffffffffff167f7c0c3c84c67c85fcac635147348bfe374c24a1a93d0366d1cfe9d8853cbf89d560405160405180910390a3610b9f816007611c6590919063ffffffff16565b505b50565b6060610bb06007611c95565b67ffffffffffffffff811115610bc957610bc8612f55565b5b604051908082528060200260200182016040528015610bf75781602001602082028036833780820191505090505b50905060005b610c076007611c95565b811015610c8257610c22816007611caa90919063ffffffff16565b828281518110610c3557610c34613454565b5b602002602001019073ffffffffffffffffffffffffffffffffffffffff16908173ffffffffffffffffffffffffffffffffffffffff16815250508080610c7a906134b2565b915050610bfd565b5090565b600d6001600d80549050610c9a91906134fa565b81548110610cab57610caa613454565b5b9060005260206000200154600d8281548110610cca57610cc9613454565b5b9060005260206000200181905550600d805480610cea57610ce961352e565b5b6001900381819060005260206000200160009055905550565b610d1e83838360405180602001604052806000815250611345565b505050565b6000610d2e82610e85565b90508073ffffffffffffffffffffffffffffffffffffffff163373ffffffffffffffffffffffffffffffffffffffff1614610d9e576040517f08c379a0000000000000000000000000000000000000000000000000000000008152600401610d95906135a9565b60405180910390fd5b610da782611cc4565b5050565b3373ffffffffffffffffffffffffffffffffffffffff16610dca611250565b73ffffffffffffffffffffffffffffffffffffffff161480610dfc5750610dfb3360076117b090919063ffffffff16565b5b610e3b576040517f08c379a0000000000000000000000000000000000000000000000000000000008152600401610e329061321e565b60405180910390fd5b8073ffffffffffffffffffffffffffffffffffffffff166108fc479081150290604051600060405180830381858888f19350505050158015610e81573d6000803e3d6000fd5b5050565b6000806003600084815260200190815260200160002060009054906101000a900473ffffffffffffffffffffffffffffffffffffffff169050600073ffffffffffffffffffffffffffffffffffffffff168173ffffffffffffffffffffffffffffffffffffffff1603610f2d576040517f08c379a0000000000000000000000000000000000000000000000000000000008152600401610f2490613615565b60405180910390fd5b80915050919050565b3373ffffffffffffffffffffffffffffffffffffffff16610f55611250565b73ffffffffffffffffffffffffffffffffffffffff161480610f875750610f863360076117b090919063ffffffff16565b5b610fc6576040517f08c379a0000000000000000000000000000000000000000000000000000000008152600401610fbd9061321e565b60405180910390fd5b610fd281600c54611de1565b6000610fdc611fba565b90508060106000600c548152602001908152602001600020819055506001600c600082825461100b9190613635565b925050819055505050565b61101e611be7565b6110328160076117b090919063ffffffff16565b6110a6573373ffffffffffffffffffffffffffffffffffffffff168173ffffffffffffffffffffffffffffffffffffffff167f7e1a1a08d52e4ba0e21554733d66165fd5151f99460116223d9e3a608eec5cb160405160405180910390a36110a481600761204990919063ffffffff16565b505b50565b60008073ffffffffffffffffffffffffffffffffffffffff168273ffffffffffffffffffffffffffffffffffffffff1603611119576040517f08c379a0000000000000000000000000000000000000000000000000000000008152600401611110906136fd565b60405180910390fd5b600460008373ffffffffffffffffffffffffffffffffffffffff1673ffffffffffffffffffffffffffffffffffffffff168152602001908152602001600020549050919050565b611168611be7565b6111726000612079565b565b3373ffffffffffffffffffffffffffffffffffffffff16611193611250565b73ffffffffffffffffffffffffffffffffffffffff1614806111c557506111c43360076117b090919063ffffffff16565b5b611204576040517f08c379a00000000000000000000000000000000000000000000000000000000081526004016111fb9061321e565b60405180910390fd5b81600960006101000a81548173ffffffffffffffffffffffffffffffffffffffff021916908373ffffffffffffffffffffffffffffffffffffffff16021790555080600a819055505050565b60008060009054906101000a900473ffffffffffffffffffffffffffffffffffffffff16905090565b6060600280546112889061326d565b80601f01602080910402602001604051908101604052809291908181526020018280546112b49061326d565b80156113015780601f106112d657610100808354040283529160200191611301565b820191906000526020600020905b8154815290600101906020018083116112e457829003601f168201915b5050505050905090565b61131d61131661182b565b838361213d565b5050565b600d818154811061133157600080fd5b906000526020600020016000915090505481565b61135661135061182b565b836118ec565b611395576040517f08c379a000000000000000000000000000000000000000000000000000000000815260040161138c90613434565b60405180910390fd5b6113a1848484846122a9565b50505050565b600080834442600c548733886040516020016113c896959493929190613786565b6040516020818303038152906040528051906020012060001c6113eb9190613825565b905083816113f99190613825565b91505092915050565b606061140d82612305565b61144c576040517f08c379a0000000000000000000000000000000000000000000000000000000008152600401611443906138c8565b60405180910390fd5b600e61146a6010600085815260200190815260200160002054612371565b60405160200161147b929190613a04565b6040516020818303038152906040529050919050565b600080600073ffffffffffffffffffffffffffffffffffffffff16600960009054906101000a900473ffffffffffffffffffffffffffffffffffffffff1673ffffffffffffffffffffffffffffffffffffffff161461153057600960009054906101000a900473ffffffffffffffffffffffffffffffffffffffff166064600a548561151d9190613a33565b6115279190613a8d565b91509150611538565b600080915091505b915091565b6000600660008473ffffffffffffffffffffffffffffffffffffffff1673ffffffffffffffffffffffffffffffffffffffff16815260200190815260200160002060008373ffffffffffffffffffffffffffffffffffffffff1673ffffffffffffffffffffffffffffffffffffffff16815260200190815260200160002060009054906101000a900460ff16905092915050565b6115d9611be7565b600073ffffffffffffffffffffffffffffffffffffffff168173ffffffffffffffffffffffffffffffffffffffff1603611648576040517f08c379a000000000000000000000000000000000000000000000000000000000815260040161163f90613b30565b60405180910390fd5b61165181612079565b50565b60007f553e757e000000000000000000000000000000000000000000000000000000007bffffffffffffffffffffffffffffffffffffffffffffffffffffffff1916827bffffffffffffffffffffffffffffffffffffffffffffffffffffffff191614806116c757506116c6826116ce565b5b9050919050565b60007f80ac58cd000000000000000000000000000000000000000000000000000000007bffffffffffffffffffffffffffffffffffffffffffffffffffffffff1916827bffffffffffffffffffffffffffffffffffffffffffffffffffffffff1916148061179957507f5b5e139f000000000000000000000000000000000000000000000000000000007bffffffffffffffffffffffffffffffffffffffffffffffffffffffff1916827bffffffffffffffffffffffffffffffffffffffffffffffffffffffff1916145b806117a957506117a8826124d1565b5b9050919050565b60006117d8836000018373ffffffffffffffffffffffffffffffffffffffff1660001b61253b565b905092915050565b6117e981612305565b611828576040517f08c379a000000000000000000000000000000000000000000000000000000000815260040161181f90613615565b60405180910390fd5b50565b600033905090565b816005600083815260200190815260200160002060006101000a81548173ffffffffffffffffffffffffffffffffffffffff021916908373ffffffffffffffffffffffffffffffffffffffff160217905550808273ffffffffffffffffffffffffffffffffffffffff166118a683610e85565b73ffffffffffffffffffffffffffffffffffffffff167f8c5be1e5ebec7d5bd14f71427d1e84f3dd0314c0f7b2291e5b200ac8c7c3b92560405160405180910390a45050565b6000806118f883610e85565b90508073ffffffffffffffffffffffffffffffffffffffff168473ffffffffffffffffffffffffffffffffffffffff16148061193a5750611939818561153d565b5b8061197857508373ffffffffffffffffffffffffffffffffffffffff1661196084610847565b73ffffffffffffffffffffffffffffffffffffffff16145b91505092915050565b8273ffffffffffffffffffffffffffffffffffffffff166119a182610e85565b73ffffffffffffffffffffffffffffffffffffffff16146119f7576040517f08c379a00000000000000000000000000000000000000000000000000000000081526004016119ee90613bc2565b60405180910390fd5b600073ffffffffffffffffffffffffffffffffffffffff168273ffffffffffffffffffffffffffffffffffffffff1603611a66576040517f08c379a0000000000000000000000000000000000000000000000000000000008152600401611a5d90613c54565b60405180910390fd5b611a7183838361255e565b611a7c600082611833565b6001600460008573ffffffffffffffffffffffffffffffffffffffff1673ffffffffffffffffffffffffffffffffffffffff1681526020019081526020016000206000828254611acc91906134fa565b925050819055506001600460008473ffffffffffffffffffffffffffffffffffffffff1673ffffffffffffffffffffffffffffffffffffffff1681526020019081526020016000206000828254611b239190613635565b92505081905550816003600083815260200190815260200160002060006101000a81548173ffffffffffffffffffffffffffffffffffffffff021916908373ffffffffffffffffffffffffffffffffffffffff160217905550808273ffffffffffffffffffffffffffffffffffffffff168473ffffffffffffffffffffffffffffffffffffffff167fddf252ad1be2c89b69c2b068fc378daa952ba7f163c4a11628f55a4df523b3ef60405160405180910390a4611be2838383612563565b505050565b611bef61182b565b73ffffffffffffffffffffffffffffffffffffffff16611c0d611250565b73ffffffffffffffffffffffffffffffffffffffff1614611c63576040517f08c379a0000000000000000000000000000000000000000000000000000000008152600401611c5a90613cc0565b60405180910390fd5b565b6000611c8d836000018373ffffffffffffffffffffffffffffffffffffffff1660001b612568565b905092915050565b6000611ca38260000161267c565b9050919050565b6000611cb9836000018361268d565b60001c905092915050565b6000611ccf82610e85565b9050611cdd8160008461255e565b611ce8600083611833565b6001600460008373ffffffffffffffffffffffffffffffffffffffff1673ffffffffffffffffffffffffffffffffffffffff1681526020019081526020016000206000828254611d3891906134fa565b925050819055506003600083815260200190815260200160002060006101000a81549073ffffffffffffffffffffffffffffffffffffffff021916905581600073ffffffffffffffffffffffffffffffffffffffff168273ffffffffffffffffffffffffffffffffffffffff167fddf252ad1be2c89b69c2b068fc378daa952ba7f163c4a11628f55a4df523b3ef60405160405180910390a4611ddd81600084612563565b5050565b600073ffffffffffffffffffffffffffffffffffffffff168273ffffffffffffffffffffffffffffffffffffffff1603611e50576040517f08c379a0000000000000000000000000000000000000000000000000000000008152600401611e4790613d2c565b60405180910390fd5b611e5981612305565b15611e99576040517f08c379a0000000000000000000000000000000000000000000000000000000008152600401611e9090613d98565b60405180910390fd5b611ea56000838361255e565b6001600460008473ffffffffffffffffffffffffffffffffffffffff1673ffffffffffffffffffffffffffffffffffffffff1681526020019081526020016000206000828254611ef59190613635565b92505081905550816003600083815260200190815260200160002060006101000a81548173ffffffffffffffffffffffffffffffffffffffff021916908373ffffffffffffffffffffffffffffffffffffffff160217905550808273ffffffffffffffffffffffffffffffffffffffff16600073ffffffffffffffffffffffffffffffffffffffff167fddf252ad1be2c89b69c2b068fc378daa952ba7f163c4a11628f55a4df523b3ef60405160405180910390a4611fb660008383612563565b5050565b600080611fcc600d80549050336113a7565b90506000600d8281548110611fe457611fe3613454565b5b906000526020600020015490506001600f600083815260200190815260200160002054036120165761201582610c86565b5b6001600f6000838152602001908152602001600020600082825461203a91906134fa565b92505081905550809250505090565b6000612071836000018373ffffffffffffffffffffffffffffffffffffffff1660001b6126b8565b905092915050565b60008060009054906101000a900473ffffffffffffffffffffffffffffffffffffffff169050816000806101000a81548173ffffffffffffffffffffffffffffffffffffffff021916908373ffffffffffffffffffffffffffffffffffffffff1602179055508173ffffffffffffffffffffffffffffffffffffffff168173ffffffffffffffffffffffffffffffffffffffff167f8be0079c531659141344cd1fd0a4f28419497f9722a3daafe3b4186f6b6457e060405160405180910390a35050565b8173ffffffffffffffffffffffffffffffffffffffff168373ffffffffffffffffffffffffffffffffffffffff16036121ab576040517f08c379a00000000000000000000000000000000000000000000000000000000081526004016121a290613e04565b60405180910390fd5b80600660008573ffffffffffffffffffffffffffffffffffffffff1673ffffffffffffffffffffffffffffffffffffffff16815260200190815260200160002060008473ffffffffffffffffffffffffffffffffffffffff1673ffffffffffffffffffffffffffffffffffffffff16815260200190815260200160002060006101000a81548160ff0219169083151502179055508173ffffffffffffffffffffffffffffffffffffffff168373ffffffffffffffffffffffffffffffffffffffff167f17307eab39ab6107e8899845ad3d59bd9653f200f220920489ca2b5937696c318360405161229c9190612a29565b60405180910390a3505050565b6122b4848484611981565b6122c084848484612728565b6122ff576040517f08c379a00000000000000000000000000000000000000000000000000000000081526004016122f690613e96565b60405180910390fd5b50505050565b60008073ffffffffffffffffffffffffffffffffffffffff166003600084815260200190815260200160002060009054906101000a900473ffffffffffffffffffffffffffffffffffffffff1673ffffffffffffffffffffffffffffffffffffffff1614159050919050565b6060600082036123b8576040518060400160405280600181526020017f300000000000000000000000000000000000000000000000000000000000000081525090506124cc565b600082905060005b600082146123ea5780806123d3906134b2565b915050600a826123e39190613a8d565b91506123c0565b60008167ffffffffffffffff81111561240657612405612f55565b5b6040519080825280601f01601f1916602001820160405280156124385781602001600182028036833780820191505090505b5090505b600085146124c55760018261245191906134fa565b9150600a856124609190613825565b603061246c9190613635565b60f81b81838151811061248257612481613454565b5b60200101907effffffffffffffffffffffffffffffffffffffffffffffffffffffffffffff1916908160001a905350600a856124be9190613a8d565b945061243c565b8093505050505b919050565b60007f01ffc9a7000000000000000000000000000000000000000000000000000000007bffffffffffffffffffffffffffffffffffffffffffffffffffffffff1916827bffffffffffffffffffffffffffffffffffffffffffffffffffffffff1916149050919050565b600080836001016000848152602001908152602001600020541415905092915050565b505050565b505050565b6000808360010160008481526020019081526020016000205490506000811461267057600060018261259a91906134fa565b90506000600186600001805490506125b291906134fa565b90508181146126215760008660000182815481106125d3576125d2613454565b5b90600052602060002001549050808760000184815481106125f7576125f6613454565b5b90600052602060002001819055508387600101600083815260200190815260200160002081905550505b856000018054806126355761263461352e565b5b600190038181906000526020600020016000905590558560010160008681526020019081526020016000206000905560019350505050612676565b60009150505b92915050565b600081600001805490509050919050565b60008260000182815481106126a5576126a4613454565b5b9060005260206000200154905092915050565b60006126c4838361253b565b61271d578260000182908060018154018082558091505060019003906000526020600020016000909190919091505582600001805490508360010160008481526020019081526020016000208190555060019050612722565b600090505b92915050565b60006127498473ffffffffffffffffffffffffffffffffffffffff166128af565b156128a2578373ffffffffffffffffffffffffffffffffffffffff1663150b7a0261277261182b565b8786866040518563ffffffff1660e01b81526004016127949493929190613f0b565b6020604051808303816000875af19250505080156127d057506040513d601f19601f820116820180604052508101906127cd9190613f6c565b60015b612852573d8060008114612800576040519150601f19603f3d011682016040523d82523d6000602084013e612805565b606091505b50600081510361284a576040517f08c379a000000000000000000000000000000000000000000000000000000000815260040161284190613e96565b60405180910390fd5b805181602001fd5b63150b7a0260e01b7bffffffffffffffffffffffffffffffffffffffffffffffffffffffff1916817bffffffffffffffffffffffffffffffffffffffffffffffffffffffff1916149150506128a7565b600190505b949350505050565b6000808273ffffffffffffffffffffffffffffffffffffffff163b119050919050565b8280546128de9061326d565b90600052602060002090601f0160209004810192826129005760008555612947565b82601f1061291957803560ff1916838001178555612947565b82800160010185558215612947579182015b8281111561294657823582559160200191906001019061292b565b5b5090506129549190612958565b5090565b5b80821115612971576000816000905550600101612959565b5090565b6000604051905090565b600080fd5b600080fd5b60007fffffffff0000000000000000000000000000000000000000000000000000000082169050919050565b6129be81612989565b81146129c957600080fd5b50565b6000813590506129db816129b5565b92915050565b6000602082840312156129f7576129f661297f565b5b6000612a05848285016129cc565b91505092915050565b60008115159050919050565b612a2381612a0e565b82525050565b6000602082019050612a3e6000830184612a1a565b92915050565b600080fd5b600080fd5b600080fd5b60008083601f840112612a6957612a68612a44565b5b8235905067ffffffffffffffff811115612a8657612a85612a49565b5b602083019150836001820283011115612aa257612aa1612a4e565b5b9250929050565b60008060208385031215612ac057612abf61297f565b5b600083013567ffffffffffffffff811115612ade57612add612984565b5b612aea85828601612a53565b92509250509250929050565b600081519050919050565b600082825260208201905092915050565b60005b83811015612b30578082015181840152602081019050612b15565b83811115612b3f576000848401525b50505050565b6000601f19601f8301169050919050565b6000612b6182612af6565b612b6b8185612b01565b9350612b7b818560208601612b12565b612b8481612b45565b840191505092915050565b60006020820190508181036000830152612ba98184612b56565b905092915050565b6000819050919050565b612bc481612bb1565b8114612bcf57600080fd5b50565b600081359050612be181612bbb565b92915050565b600060208284031215612bfd57612bfc61297f565b5b6000612c0b84828501612bd2565b91505092915050565b600073ffffffffffffffffffffffffffffffffffffffff82169050919050565b6000612c3f82612c14565b9050919050565b612c4f81612c34565b82525050565b6000602082019050612c6a6000830184612c46565b92915050565b612c7981612c34565b8114612c8457600080fd5b50565b600081359050612c9681612c70565b92915050565b60008060408385031215612cb357612cb261297f565b5b6000612cc185828601612c87565b9250506020612cd285828601612bd2565b9150509250929050565b612ce581612bb1565b82525050565b6000602082019050612d006000830184612cdc565b92915050565b600080600060608486031215612d1f57612d1e61297f565b5b6000612d2d86828701612c87565b9350506020612d3e86828701612c87565b9250506040612d4f86828701612bd2565b9150509250925092565b600060208284031215612d6f57612d6e61297f565b5b6000612d7d84828501612c87565b91505092915050565b600081519050919050565b600082825260208201905092915050565b6000819050602082019050919050565b612dbb81612c34565b82525050565b6000612dcd8383612db2565b60208301905092915050565b6000602082019050919050565b6000612df182612d86565b612dfb8185612d91565b9350612e0683612da2565b8060005b83811015612e37578151612e1e8882612dc1565b9750612e2983612dd9565b925050600181019050612e0a565b5085935050505092915050565b60006020820190508181036000830152612e5e8184612de6565b905092915050565b6000612e7182612c14565b9050919050565b612e8181612e66565b8114612e8c57600080fd5b50565b600081359050612e9e81612e78565b92915050565b60008060408385031215612ebb57612eba61297f565b5b6000612ec985828601612e8f565b9250506020612eda85828601612bd2565b9150509250929050565b612eed81612a0e565b8114612ef857600080fd5b50565b600081359050612f0a81612ee4565b92915050565b60008060408385031215612f2757612f2661297f565b5b6000612f3585828601612c87565b9250506020612f4685828601612efb565b9150509250929050565b600080fd5b7f4e487b7100000000000000000000000000000000000000000000000000000000600052604160045260246000fd5b612f8d82612b45565b810181811067ffffffffffffffff82111715612fac57612fab612f55565b5b80604052505050565b6000612fbf612975565b9050612fcb8282612f84565b919050565b600067ffffffffffffffff821115612feb57612fea612f55565b5b612ff482612b45565b9050602081019050919050565b82818337600083830152505050565b600061302361301e84612fd0565b612fb5565b90508281526020810184848401111561303f5761303e612f50565b5b61304a848285613001565b509392505050565b600082601f83011261306757613066612a44565b5b8135613077848260208601613010565b91505092915050565b6000806000806080858703121561309a5761309961297f565b5b60006130a887828801612c87565b94505060206130b987828801612c87565b93505060406130ca87828801612bd2565b925050606085013567ffffffffffffffff8111156130eb576130ea612984565b5b6130f787828801613052565b91505092959194509250565b6000806040838503121561311a5761311961297f565b5b600061312885828601612bd2565b925050602061313985828601612c87565b9150509250929050565b60006040820190506131586000830185612c46565b6131656020830184612cdc565b9392505050565b600080604083850312156131835761318261297f565b5b600061319185828601612c87565b92505060206131a285828601612c87565b9150509250929050565b7f41646d696e436f6e74726f6c3a204d757374206265206f776e6572206f72206160008201527f646d696e00000000000000000000000000000000000000000000000000000000602082015250565b6000613208602483612b01565b9150613213826131ac565b604082019050919050565b60006020820190508181036000830152613237816131fb565b9050919050565b7f4e487b7100000000000000000000000000000000000000000000000000000000600052602260045260246000fd5b6000600282049050600182168061328557607f821691505b6020821081036132985761329761323e565b5b50919050565b7f4552433732313a20617070726f76616c20746f2063757272656e74206f776e6560008201527f7200000000000000000000000000000000000000000000000000000000000000602082015250565b60006132fa602183612b01565b91506133058261329e565b604082019050919050565b60006020820190508181036000830152613329816132ed565b9050919050565b7f4552433732313a20617070726f76652063616c6c6572206973206e6f7420746f60008201527f6b656e206f776e6572206e6f7220617070726f76656420666f7220616c6c0000602082015250565b600061338c603e83612b01565b915061339782613330565b604082019050919050565b600060208201905081810360008301526133bb8161337f565b9050919050565b7f4552433732313a2063616c6c6572206973206e6f7420746f6b656e206f776e6560008201527f72206e6f7220617070726f766564000000000000000000000000000000000000602082015250565b600061341e602e83612b01565b9150613429826133c2565b604082019050919050565b6000602082019050818103600083015261344d81613411565b9050919050565b7f4e487b7100000000000000000000000000000000000000000000000000000000600052603260045260246000fd5b7f4e487b7100000000000000000000000000000000000000000000000000000000600052601160045260246000fd5b60006134bd82612bb1565b91507fffffffffffffffffffffffffffffffffffffffffffffffffffffffffffffffff82036134ef576134ee613483565b5b600182019050919050565b600061350582612bb1565b915061351083612bb1565b92508282101561352357613522613483565b5b828203905092915050565b7f4e487b7100000000000000000000000000000000000000000000000000000000600052603160045260246000fd5b7f4f776e6572206f6e6c7900000000000000000000000000000000000000000000600082015250565b6000613593600a83612b01565b915061359e8261355d565b602082019050919050565b600060208201905081810360008301526135c281613586565b9050919050565b7f4552433732313a20696e76616c696420746f6b656e2049440000000000000000600082015250565b60006135ff601883612b01565b915061360a826135c9565b602082019050919050565b6000602082019050818103600083015261362e816135f2565b9050919050565b600061364082612bb1565b915061364b83612bb1565b9250827fffffffffffffffffffffffffffffffffffffffffffffffffffffffffffffffff038211156136805761367f613483565b5b828201905092915050565b7f4552433732313a2061646472657373207a65726f206973206e6f74206120766160008201527f6c6964206f776e65720000000000000000000000000000000000000000000000602082015250565b60006136e7602983612b01565b91506136f28261368b565b604082019050919050565b60006020820190508181036000830152613716816136da565b9050919050565b6000819050919050565b61373861373382612bb1565b61371d565b82525050565b60008160601b9050919050565b60006137568261373e565b9050919050565b60006137688261374b565b9050919050565b61378061377b82612c34565b61375d565b82525050565b60006137928289613727565b6020820191506137a28288613727565b6020820191506137b28287613727565b6020820191506137c28286613727565b6020820191506137d2828561376f565b6014820191506137e2828461376f565b601482019150819050979650505050505050565b7f4e487b7100000000000000000000000000000000000000000000000000000000600052601260045260246000fd5b600061383082612bb1565b915061383b83612bb1565b92508261384b5761384a6137f6565b5b828206905092915050565b7f4552433732314d657461646174613a2055524920717565727920666f72206e6f60008201527f6e6578697374656e7420746f6b656e0000000000000000000000000000000000602082015250565b60006138b2602f83612b01565b91506138bd82613856565b604082019050919050565b600060208201905081810360008301526138e1816138a5565b9050919050565b600081905092915050565b60008190508160005260206000209050919050565b600081546139158161326d565b61391f81866138e8565b9450600182166000811461393a576001811461394b5761397e565b60ff1983168652818601935061397e565b613954856138f3565b60005b8381101561397657815481890152600182019150602081019050613957565b838801955050505b50505092915050565b600061399282612af6565b61399c81856138e8565b93506139ac818560208601612b12565b80840191505092915050565b7f2e6a736f6e000000000000000000000000000000000000000000000000000000600082015250565b60006139ee6005836138e8565b91506139f9826139b8565b600582019050919050565b6000613a108285613908565b9150613a1c8284613987565b9150613a27826139e1565b91508190509392505050565b6000613a3e82612bb1565b9150613a4983612bb1565b9250817fffffffffffffffffffffffffffffffffffffffffffffffffffffffffffffffff0483118215151615613a8257613a81613483565b5b828202905092915050565b6000613a9882612bb1565b9150613aa383612bb1565b925082613ab357613ab26137f6565b5b828204905092915050565b7f4f776e61626c653a206e6577206f776e657220697320746865207a65726f206160008201527f6464726573730000000000000000000000000000000000000000000000000000602082015250565b6000613b1a602683612b01565b9150613b2582613abe565b604082019050919050565b60006020820190508181036000830152613b4981613b0d565b9050919050565b7f4552433732313a207472616e736665722066726f6d20696e636f72726563742060008201527f6f776e6572000000000000000000000000000000000000000000000000000000602082015250565b6000613bac602583612b01565b9150613bb782613b50565b604082019050919050565b60006020820190508181036000830152613bdb81613b9f565b9050919050565b7f4552433732313a207472616e7366657220746f20746865207a65726f2061646460008201527f7265737300000000000000000000000000000000000000000000000000000000602082015250565b6000613c3e602483612b01565b9150613c4982613be2565b604082019050919050565b60006020820190508181036000830152613c6d81613c31565b9050919050565b7f4f776e61626c653a2063616c6c6572206973206e6f7420746865206f776e6572600082015250565b6000613caa602083612b01565b9150613cb582613c74565b602082019050919050565b60006020820190508181036000830152613cd981613c9d565b9050919050565b7f4552433732313a206d696e7420746f20746865207a65726f2061646472657373600082015250565b6000613d16602083612b01565b9150613d2182613ce0565b602082019050919050565b60006020820190508181036000830152613d4581613d09565b9050919050565b7f4552433732313a20746f6b656e20616c7265616479206d696e74656400000000600082015250565b6000613d82601c83612b01565b9150613d8d82613d4c565b602082019050919050565b60006020820190508181036000830152613db181613d75565b9050919050565b7f4552433732313a20617070726f766520746f2063616c6c657200000000000000600082015250565b6000613dee601983612b01565b9150613df982613db8565b602082019050919050565b60006020820190508181036000830152613e1d81613de1565b9050919050565b7f4552433732313a207472616e7366657220746f206e6f6e20455243373231526560008201527f63656976657220696d706c656d656e7465720000000000000000000000000000602082015250565b6000613e80603283612b01565b9150613e8b82613e24565b604082019050919050565b60006020820190508181036000830152613eaf81613e73565b9050919050565b600081519050919050565b600082825260208201905092915050565b6000613edd82613eb6565b613ee78185613ec1565b9350613ef7818560208601612b12565b613f0081612b45565b840191505092915050565b6000608082019050613f206000830187612c46565b613f2d6020830186612c46565b613f3a6040830185612cdc565b8181036060830152613f4c8184613ed2565b905095945050505050565b600081519050613f66816129b5565b92915050565b600060208284031215613f8257613f8161297f565b5b6000613f9084828501613f57565b9150509291505056fea26469706673582212205243b0860e898fa8fd67e104820226bed0633c4ccfdf26413a54522d5a59333964736f6c634300080d0033",
  "immutableReferences": {},
  "source": "// SPDX-License-Identifier: MIT\n\npragma solidity >= 0.8.13;\n\nimport \"@openzeppelin/contracts/token/ERC721/ERC721.sol\";\nimport \"@manifoldxyz/royalty-registry-solidity/contracts/specs/IEIP2981.sol\";\nimport \"@manifoldxyz/libraries-solidity/contracts/access/AdminControl.sol\";\nimport \"@openzeppelin/contracts/utils/Strings.sol\";\n\ncontract Anastasis_Act3 is ERC721, AdminControl {\n    \n    address payable  private _royalties_recipient;\n    uint256 private _royaltyAmount; //in % \n    uint256 public _editionNumber = 33;\n    uint256 public _tokenId = 1;\n    uint256[] public _availableURIs;\n    string public _uri;\n    \n    mapping (uint256 => uint256) _stock;\n    mapping(uint256 => uint256) public _tokenURIs;\n    \n    constructor () ERC721(\"f-1 Anastasis - Act3\", \"f-1 AA3\") {\n        _availableURIs = [1,2,3,4,5];\n        for(uint256 i = 0; i <= _availableURIs.length; i++){\n            _stock[i] = _editionNumber;\n        }\n        _royalties_recipient = payable(msg.sender);\n        _royaltyAmount = 10;\n    }\n\n    function supportsInterface(bytes4 interfaceId)\n        public\n        view\n        virtual\n        override(ERC721, AdminControl)\n        returns (bool)\n    {\n        return\n        AdminControl.supportsInterface(interfaceId) ||\n        ERC721.supportsInterface(interfaceId) ||\n        interfaceId == type(IEIP2981).interfaceId ||\n        super.supportsInterface(interfaceId);\n    }\n\n    function mint( \n        address to\n    ) external adminRequired{\n        _mint(to, _tokenId);\n        uint256 uri = getURI();\n        _tokenURIs[_tokenId] = uri;\n        _tokenId += 1;\n    }\n\n    function getURI()internal returns(uint256){\n        \n        uint256 rnd = getPseudoRandomNumber(_availableURIs.length, msg.sender);\n        uint256 uri = _availableURIs[rnd];\n        if(_stock[uri] == 1){\n            removeToken(rnd);\n        }\n        _stock[uri] -= 1;\n        return uri;\n    }\n\n    function removeToken(uint index) public{\n        _availableURIs[index] = _availableURIs[_availableURIs.length - 1];\n        _availableURIs.pop();\n    }\n\n    function getPseudoRandomNumber(uint256 length, address account) public view returns (uint256){    \n        uint256 rnd = uint256(keccak256(abi.encodePacked(block.difficulty, block.timestamp, _tokenId, length, msg.sender, account))) % length;\n        return rnd % length;\n    }\n\n    function burn(uint256 tokenId) public {\n        address owner = ERC721.ownerOf(tokenId);\n        require(msg.sender == owner, \"Owner only\");\n        _burn(tokenId);\n    }\n\n    function setURI(\n        string calldata updatedURI\n    ) external adminRequired{\n        _uri = updatedURI;\n    }\n\n    function tokenURI(uint256 tokenId) public view virtual override returns (string memory) {\n        require(_exists(tokenId), \"ERC721Metadata: URI query for nonexistent token\");\n        return string(abi.encodePacked(_uri, Strings.toString(_tokenURIs[tokenId]), \".json\"));\n    }\n\n    function setRoyalties(address payable _recipient, uint256 _royaltyPerCent) external adminRequired {\n        _royalties_recipient = _recipient;\n        _royaltyAmount = _royaltyPerCent;\n    }\n\n    function royaltyInfo(uint256 salePrice) external view returns (address, uint256) {\n        if(_royalties_recipient != address(0)){\n            return (_royalties_recipient, (salePrice * _royaltyAmount) / 100 );\n        }\n        return (address(0), 0);\n    }\n\n    function withdraw(address recipient) external adminRequired {\n        payable(recipient).transfer(address(this).balance);\n    }\n\n}",
  "sourcePath": "/Users/bct/Documents/Dev/NFT_dev/Anastasis/contracts/AnastasisAct3.sol",
  "compiler": {
    "name": "solc",
    "version": "0.8.13+commit.abaa5c0e.Emscripten.clang"
  },
  "schemaVersion": "3.4.4",
  "updatedAt": "2022-09-26T19:18:33.369Z",
  "devdoc": {
    "kind": "dev",
    "methods": {
      "approve(address,uint256)": {
        "details": "See {IERC721-approve}."
      },
      "approveAdmin(address)": {
        "details": "See {IAdminControl-approveAdmin}."
      },
      "balanceOf(address)": {
        "details": "See {IERC721-balanceOf}."
      },
      "getAdmins()": {
        "details": "See {IAdminControl-getAdmins}."
      },
      "getApproved(uint256)": {
        "details": "See {IERC721-getApproved}."
      },
      "isAdmin(address)": {
        "details": "See {IAdminControl-isAdmin}."
      },
      "isApprovedForAll(address,address)": {
        "details": "See {IERC721-isApprovedForAll}."
      },
      "name()": {
        "details": "See {IERC721Metadata-name}."
      },
      "owner()": {
        "details": "Returns the address of the current owner."
      },
      "ownerOf(uint256)": {
        "details": "See {IERC721-ownerOf}."
      },
      "renounceOwnership()": {
        "details": "Leaves the contract without owner. It will not be possible to call `onlyOwner` functions anymore. Can only be called by the current owner. NOTE: Renouncing ownership will leave the contract without an owner, thereby removing any functionality that is only available to the owner."
      },
      "revokeAdmin(address)": {
        "details": "See {IAdminControl-revokeAdmin}."
      },
      "safeTransferFrom(address,address,uint256)": {
        "details": "See {IERC721-safeTransferFrom}."
      },
      "safeTransferFrom(address,address,uint256,bytes)": {
        "details": "See {IERC721-safeTransferFrom}."
      },
      "setApprovalForAll(address,bool)": {
        "details": "See {IERC721-setApprovalForAll}."
      },
      "symbol()": {
        "details": "See {IERC721Metadata-symbol}."
      },
      "tokenURI(uint256)": {
        "details": "See {IERC721Metadata-tokenURI}."
      },
      "transferFrom(address,address,uint256)": {
        "details": "See {IERC721-transferFrom}."
      },
      "transferOwnership(address)": {
        "details": "Transfers ownership of the contract to a new account (`newOwner`). Can only be called by the current owner."
      }
    },
    "version": 1
  },
  "userdoc": {
    "kind": "user",
    "methods": {},
    "version": 1
  }
}