{
  "contractName": "FundSplit",
  "abi": [
    {
      "inputs": [],
      "stateMutability": "nonpayable",
      "type": "constructor"
    },
    {
      "anonymous": false,
      "inputs": [
        {
          "indexed": false,
          "internalType": "address",
          "name": "from",
          "type": "address"
        },
        {
          "indexed": false,
          "internalType": "address",
          "name": "to",
          "type": "address"
        },
        {
          "indexed": false,
          "internalType": "uint256",
          "name": "amount",
          "type": "uint256"
        }
      ],
      "name": "Transf",
      "type": "event"
    },
    {
      "inputs": [],
      "name": "_ashAddress",
      "outputs": [
        {
          "internalType": "address",
          "name": "",
          "type": "address"
        }
      ],
      "stateMutability": "view",
      "type": "function"
    },
    {
      "inputs": [],
      "name": "_ashBalance",
      "outputs": [
        {
          "internalType": "uint256",
          "name": "",
          "type": "uint256"
        }
      ],
      "stateMutability": "view",
      "type": "function"
    },
    {
      "stateMutability": "payable",
      "type": "receive"
    },
    {
      "inputs": [
        {
          "internalType": "address",
          "name": "ashAddress",
          "type": "address"
        }
      ],
      "name": "setAshAddress",
      "outputs": [],
      "stateMutability": "nonpayable",
      "type": "function"
    },
    {
      "inputs": [
        {
          "internalType": "address",
          "name": "wallet",
          "type": "address"
        }
      ],
      "name": "manageAdmins",
      "outputs": [],
      "stateMutability": "nonpayable",
      "type": "function"
    },
    {
      "inputs": [
        {
          "internalType": "address[]",
          "name": "beneficiaries",
          "type": "address[]"
        },
        {
          "internalType": "uint256[]",
          "name": "split",
          "type": "uint256[]"
        }
      ],
      "name": "setSplit",
      "outputs": [],
      "stateMutability": "nonpayable",
      "type": "function"
    },
    {
      "inputs": [
        {
          "internalType": "address",
          "name": "from",
          "type": "address"
        },
        {
          "internalType": "uint256",
          "name": "amount",
          "type": "uint256"
        }
      ],
      "name": "depositAsh",
      "outputs": [
        {
          "internalType": "bool",
          "name": "",
          "type": "bool"
        }
      ],
      "stateMutability": "nonpayable",
      "type": "function"
    },
    {
      "inputs": [],
      "name": "getAshBalance",
      "outputs": [
        {
          "internalType": "uint256",
          "name": "",
          "type": "uint256"
        }
      ],
      "stateMutability": "view",
      "type": "function"
    },
    {
      "inputs": [
        {
          "internalType": "uint256",
          "name": "amount",
          "type": "uint256"
        }
      ],
      "name": "splitAsh",
      "outputs": [],
      "stateMutability": "nonpayable",
      "type": "function"
    },
    {
      "inputs": [
        {
          "internalType": "uint256",
          "name": "amount",
          "type": "uint256"
        }
      ],
      "name": "splitEth",
      "outputs": [],
      "stateMutability": "nonpayable",
      "type": "function"
    },
    {
      "inputs": [
        {
          "internalType": "address",
          "name": "recipient",
          "type": "address"
        }
      ],
      "name": "withdrawAllEth",
      "outputs": [],
      "stateMutability": "nonpayable",
      "type": "function"
    },
    {
      "inputs": [
        {
          "internalType": "address",
          "name": "recipient",
          "type": "address"
        }
      ],
      "name": "withdrawAllAsh",
      "outputs": [],
      "stateMutability": "nonpayable",
      "type": "function"
    }
  ],
  "bytecode": "0x60806040527364d91f12ece7362f91a6f8e7940cd55f05060b92600460006101000a81548173ffffffffffffffffffffffffffffffffffffffff021916908373ffffffffffffffffffffffffffffffffffffffff16021790555034801561006557600080fd5b5060016000803373ffffffffffffffffffffffffffffffffffffffff1673ffffffffffffffffffffffffffffffffffffffff16815260200190815260200160002060006101000a81548160ff0219169083151502179055506000600281905550611cd4806100d46000396000f3fe6080604052600436106100a05760003560e01c8063a0d2300d11610064578063a0d2300d1461018f578063a3b15f2b146101ba578063ac246ee7146101e3578063aecd2cd01461020c578063d46d79bb14610237578063e7ac71fc14610260576100a7565b806326f73236146100ac5780634353845b146100e95780636b8ab36c1461011257806374ef39621461013d5780638e2425eb14610166576100a7565b366100a757005b600080fd5b3480156100b857600080fd5b506100d360048036038101906100ce9190611344565b610289565b6040516100e0919061139f565b60405180910390f35b3480156100f557600080fd5b50610110600480360381019061010b91906113ba565b610412565b005b34801561011e57600080fd5b50610127610625565b60405161013491906113f6565b60405180910390f35b34801561014957600080fd5b50610164600480360381019061015f91906113ba565b61062b565b005b34801561017257600080fd5b5061018d60048036038101906101889190611411565b6106fa565b005b34801561019b57600080fd5b506101a4610990565b6040516101b191906113f6565b60405180910390f35b3480156101c657600080fd5b506101e160048036038101906101dc91906113ba565b610a33565b005b3480156101ef57600080fd5b5061020a600480360381019061020591906114f9565b610b63565b005b34801561021857600080fd5b50610221610d02565b60405161022e9190611589565b60405180910390f35b34801561024357600080fd5b5061025e600480360381019061025991906113ba565b610d28565b005b34801561026c57600080fd5b5061028760048036038101906102829190611411565b610e30565b005b60008082116102cd576040517f08c379a00000000000000000000000000000000000000000000000000000000081526004016102c490611601565b60405180910390fd5b6000600460009054906101000a900473ffffffffffffffffffffffffffffffffffffffff1673ffffffffffffffffffffffffffffffffffffffff166323b872dd8530866040518463ffffffff1660e01b815260040161032e93929190611621565b6020604051808303816000875af115801561034d573d6000803e3d6000fd5b505050506040513d601f19601f820116820180604052508101906103719190611684565b90507fd0047213cda5e5b4eefb7cc2b8330a046dc63d530a75c14bb94f09641f06e2e13330856040516103a693929190611621565b60405180910390a1806103ee576040517f08c379a00000000000000000000000000000000000000000000000000000000081526004016103e5906116fd565b60405180910390fd5b8260026000828254610400919061174c565b92505081905550600191505092915050565b6000803373ffffffffffffffffffffffffffffffffffffffff1673ffffffffffffffffffffffffffffffffffffffff16815260200190815260200160002060009054906101000a900460ff1661049d576040517f08c379a0000000000000000000000000000000000000000000000000000000008152600401610494906117ee565b60405180910390fd5b600080600460009054906101000a900473ffffffffffffffffffffffffffffffffffffffff1673ffffffffffffffffffffffffffffffffffffffff166370a08231306040518263ffffffff1660e01b81526004016104fb9190611589565b602060405180830381865afa158015610518573d6000803e3d6000fd5b505050506040513d601f19601f8201168201806040525081019061053c9190611823565b9050600460009054906101000a900473ffffffffffffffffffffffffffffffffffffffff1673ffffffffffffffffffffffffffffffffffffffff1663a9059cbb84836040518363ffffffff1660e01b815260040161059b929190611850565b6020604051808303816000875af11580156105ba573d6000803e3d6000fd5b505050506040513d601f19601f820116820180604052508101906105de9190611684565b915081610620576040517f08c379a0000000000000000000000000000000000000000000000000000000008152600401610617906118c5565b60405180910390fd5b505050565b60025481565b6000803373ffffffffffffffffffffffffffffffffffffffff1673ffffffffffffffffffffffffffffffffffffffff16815260200190815260200160002060009054906101000a900460ff166106b6576040517f08c379a00000000000000000000000000000000000000000000000000000000081526004016106ad906117ee565b60405180910390fd5b80600460006101000a81548173ffffffffffffffffffffffffffffffffffffffff021916908373ffffffffffffffffffffffffffffffffffffffff16021790555050565b6000803373ffffffffffffffffffffffffffffffffffffffff1673ffffffffffffffffffffffffffffffffffffffff16815260200190815260200160002060009054906101000a900460ff16610785576040517f08c379a000000000000000000000000000000000000000000000000000000000815260040161077c906117ee565b60405180910390fd5b6000479050808211156107cd576040517f08c379a00000000000000000000000000000000000000000000000000000000081526004016107c490611931565b60405180910390fd5b6000600380548060200260200160405190810160405280929190818152602001828054801561085157602002820191906000526020600020905b8160009054906101000a900473ffffffffffffffffffffffffffffffffffffffff1673ffffffffffffffffffffffffffffffffffffffff1681526020019060010190808311610807575b505050505090506000808403610865578293505b60005b6003805490508110156109895782818151811061088857610887611951565b5b602002602001015173ffffffffffffffffffffffffffffffffffffffff166108fc6064600160008786815181106108c2576108c1611951565b5b602002602001015173ffffffffffffffffffffffffffffffffffffffff1673ffffffffffffffffffffffffffffffffffffffff16815260200190815260200160002054886109109190611980565b61091a9190611a09565b9081150290604051600060405180830381858888f19350505050915081610976576040517f08c379a000000000000000000000000000000000000000000000000000000000815260040161096d90611a86565b60405180910390fd5b808061098190611aa6565b915050610868565b5050505050565b6000600460009054906101000a900473ffffffffffffffffffffffffffffffffffffffff1673ffffffffffffffffffffffffffffffffffffffff166370a08231306040518263ffffffff1660e01b81526004016109ed9190611589565b602060405180830381865afa158015610a0a573d6000803e3d6000fd5b505050506040513d601f19601f82011682018060405250810190610a2e9190611823565b905090565b6000803373ffffffffffffffffffffffffffffffffffffffff1673ffffffffffffffffffffffffffffffffffffffff16815260200190815260200160002060009054906101000a900460ff16610abe576040517f08c379a0000000000000000000000000000000000000000000000000000000008152600401610ab5906117ee565b60405180910390fd5b6000808273ffffffffffffffffffffffffffffffffffffffff1673ffffffffffffffffffffffffffffffffffffffff16815260200190815260200160002060009054906101000a900460ff16156000808373ffffffffffffffffffffffffffffffffffffffff1673ffffffffffffffffffffffffffffffffffffffff16815260200190815260200160002060006101000a81548160ff02191690831515021790555050565b6000803373ffffffffffffffffffffffffffffffffffffffff1673ffffffffffffffffffffffffffffffffffffffff16815260200190815260200160002060009054906101000a900460ff16610bee576040517f08c379a0000000000000000000000000000000000000000000000000000000008152600401610be5906117ee565b60405180910390fd5b818190508484905014610c36576040517f08c379a0000000000000000000000000000000000000000000000000000000008152600401610c2d90611b3a565b60405180910390fd5b60036000610c4491906111c8565b838360039190610c559291906111e9565b5060005b82829050811015610cfb57828282818110610c7757610c76611951565b5b9050602002013560016000878785818110610c9557610c94611951565b5b9050602002016020810190610caa91906113ba565b73ffffffffffffffffffffffffffffffffffffffff1673ffffffffffffffffffffffffffffffffffffffff168152602001908152602001600020819055508080610cf390611aa6565b915050610c59565b5050505050565b600460009054906101000a900473ffffffffffffffffffffffffffffffffffffffff1681565b6000803373ffffffffffffffffffffffffffffffffffffffff1673ffffffffffffffffffffffffffffffffffffffff16815260200190815260200160002060009054906101000a900460ff16610db3576040517f08c379a0000000000000000000000000000000000000000000000000000000008152600401610daa906117ee565b60405180910390fd5b60008173ffffffffffffffffffffffffffffffffffffffff166108fc479081150290604051600060405180830381858888f19350505050905080610e2c576040517f08c379a0000000000000000000000000000000000000000000000000000000008152600401610e2390611ba6565b60405180910390fd5b5050565b6000803373ffffffffffffffffffffffffffffffffffffffff1673ffffffffffffffffffffffffffffffffffffffff16815260200190815260200160002060009054906101000a900460ff16610ebb576040517f08c379a0000000000000000000000000000000000000000000000000000000008152600401610eb2906117ee565b60405180910390fd5b6000600460009054906101000a900473ffffffffffffffffffffffffffffffffffffffff1673ffffffffffffffffffffffffffffffffffffffff166370a08231306040518263ffffffff1660e01b8152600401610f189190611589565b602060405180830381865afa158015610f35573d6000803e3d6000fd5b505050506040513d601f19601f82011682018060405250810190610f599190611823565b905080821115610f9e576040517f08c379a0000000000000000000000000000000000000000000000000000000008152600401610f9590611c12565b60405180910390fd5b6000600380548060200260200160405190810160405280929190818152602001828054801561102257602002820191906000526020600020905b8160009054906101000a900473ffffffffffffffffffffffffffffffffffffffff1673ffffffffffffffffffffffffffffffffffffffff1681526020019060010190808311610fd8575b505050505090506000808403611036578293505b60005b82518110156111c157600460009054906101000a900473ffffffffffffffffffffffffffffffffffffffff1673ffffffffffffffffffffffffffffffffffffffff1663a9059cbb84838151811061109357611092611951565b5b60200260200101516064600160008887815181106110b4576110b3611951565b5b602002602001015173ffffffffffffffffffffffffffffffffffffffff1673ffffffffffffffffffffffffffffffffffffffff16815260200190815260200160002054896111029190611980565b61110c9190611a09565b6040518363ffffffff1660e01b8152600401611129929190611850565b6020604051808303816000875af1158015611148573d6000803e3d6000fd5b505050506040513d601f19601f8201168201806040525081019061116c9190611684565b9150816111ae576040517f08c379a00000000000000000000000000000000000000000000000000000000081526004016111a590611c7e565b60405180910390fd5b80806111b990611aa6565b915050611039565b5050505050565b50805460008255906000526020600020908101906111e69190611289565b50565b828054828255906000526020600020908101928215611278579160200282015b8281111561127757823573ffffffffffffffffffffffffffffffffffffffff168260006101000a81548173ffffffffffffffffffffffffffffffffffffffff021916908373ffffffffffffffffffffffffffffffffffffffff16021790555091602001919060010190611209565b5b5090506112859190611289565b5090565b5b808211156112a257600081600090555060010161128a565b5090565b600080fd5b600080fd5b600073ffffffffffffffffffffffffffffffffffffffff82169050919050565b60006112db826112b0565b9050919050565b6112eb816112d0565b81146112f657600080fd5b50565b600081359050611308816112e2565b92915050565b6000819050919050565b6113218161130e565b811461132c57600080fd5b50565b60008135905061133e81611318565b92915050565b6000806040838503121561135b5761135a6112a6565b5b6000611369858286016112f9565b925050602061137a8582860161132f565b9150509250929050565b60008115159050919050565b61139981611384565b82525050565b60006020820190506113b46000830184611390565b92915050565b6000602082840312156113d0576113cf6112a6565b5b60006113de848285016112f9565b91505092915050565b6113f08161130e565b82525050565b600060208201905061140b60008301846113e7565b92915050565b600060208284031215611427576114266112a6565b5b60006114358482850161132f565b91505092915050565b600080fd5b600080fd5b600080fd5b60008083601f8401126114635761146261143e565b5b8235905067ffffffffffffffff8111156114805761147f611443565b5b60208301915083602082028301111561149c5761149b611448565b5b9250929050565b60008083601f8401126114b9576114b861143e565b5b8235905067ffffffffffffffff8111156114d6576114d5611443565b5b6020830191508360208202830111156114f2576114f1611448565b5b9250929050565b60008060008060408587031215611513576115126112a6565b5b600085013567ffffffffffffffff811115611531576115306112ab565b5b61153d8782880161144d565b9450945050602085013567ffffffffffffffff8111156115605761155f6112ab565b5b61156c878288016114a3565b925092505092959194509250565b611583816112d0565b82525050565b600060208201905061159e600083018461157a565b92915050565b600082825260208201905092915050565b7f496e76616c6964206465706f73697420616d6f756e7400000000000000000000600082015250565b60006115eb6016836115a4565b91506115f6826115b5565b602082019050919050565b6000602082019050818103600083015261161a816115de565b9050919050565b6000606082019050611636600083018661157a565b611643602083018561157a565b61165060408301846113e7565b949350505050565b61166181611384565b811461166c57600080fd5b50565b60008151905061167e81611658565b92915050565b60006020828403121561169a576116996112a6565b5b60006116a88482850161166f565b91505092915050565b7f436f756c64206e6f74206465706f7369742066756e6473000000000000000000600082015250565b60006116e76017836115a4565b91506116f2826116b1565b602082019050919050565b60006020820190508181036000830152611716816116da565b9050919050565b7f4e487b7100000000000000000000000000000000000000000000000000000000600052601160045260246000fd5b60006117578261130e565b91506117628361130e565b9250827fffffffffffffffffffffffffffffffffffffffffffffffffffffffffffffffff038211156117975761179661171d565b5b828201905092915050565b7f41646d696e206f6e6c7900000000000000000000000000000000000000000000600082015250565b60006117d8600a836115a4565b91506117e3826117a2565b602082019050919050565b60006020820190508181036000830152611807816117cb565b9050919050565b60008151905061181d81611318565b92915050565b600060208284031215611839576118386112a6565b5b60006118478482850161180e565b91505092915050565b6000604082019050611865600083018561157a565b61187260208301846113e7565b9392505050565b7f436f756c64206e6f7420776974686472617720616c6c20417368000000000000600082015250565b60006118af601a836115a4565b91506118ba82611879565b602082019050919050565b600060208201905081810360008301526118de816118a2565b9050919050565b7f436f6e747261637420646f65736e2774206861766520656e6f75676820457468600082015250565b600061191b6020836115a4565b9150611926826118e5565b602082019050919050565b6000602082019050818103600083015261194a8161190e565b9050919050565b7f4e487b7100000000000000000000000000000000000000000000000000000000600052603260045260246000fd5b600061198b8261130e565b91506119968361130e565b9250817fffffffffffffffffffffffffffffffffffffffffffffffffffffffffffffffff04831182151516156119cf576119ce61171d565b5b828202905092915050565b7f4e487b7100000000000000000000000000000000000000000000000000000000600052601260045260246000fd5b6000611a148261130e565b9150611a1f8361130e565b925082611a2f57611a2e6119da565b5b828204905092915050565b7f436f756c64206e6f742077697468647261772074686565204574680000000000600082015250565b6000611a70601b836115a4565b9150611a7b82611a3a565b602082019050919050565b60006020820190508181036000830152611a9f81611a63565b9050919050565b6000611ab18261130e565b91507fffffffffffffffffffffffffffffffffffffffffffffffffffffffffffffffff8203611ae357611ae261171d565b5b600182019050919050565b7f496e76616c69642076616c756573000000000000000000000000000000000000600082015250565b6000611b24600e836115a4565b9150611b2f82611aee565b602082019050919050565b60006020820190508181036000830152611b5381611b17565b9050919050565b7f4661696c656420746f2077697468647261772045746800000000000000000000600082015250565b6000611b906016836115a4565b9150611b9b82611b5a565b602082019050919050565b60006020820190508181036000830152611bbf81611b83565b9050919050565b7f436f6e747261637420646f65736e2774206861766520656e6f75676820417368600082015250565b6000611bfc6020836115a4565b9150611c0782611bc6565b602082019050919050565b60006020820190508181036000830152611c2b81611bef565b9050919050565b7f436f756c64206e6f742077697468647261772074686565204173680000000000600082015250565b6000611c68601b836115a4565b9150611c7382611c32565b602082019050919050565b60006020820190508181036000830152611c9781611c5b565b905091905056fea264697066735822122072d6d5144e0393afa260620558a56e318ba86b2e9ca52d9619299aca002d58bf64736f6c634300080d0033",
  "immutableReferences": {},
  "source": "// SPDX-License-Identifier: MIT\n\npragma solidity >= 0.8.13;\n\nimport \"@openzeppelin/contracts/token/ERC20/IERC20.sol\";\n\n\ncontract FundSplit {\n\n\n    mapping(address => bool) _isAdmin;\n    mapping(address => uint256) _split;\n    uint256 public _ashBalance;\n    address[] _beneficiaries;\n    address public _ashAddress= 0x64D91f12Ece7362F91A6f8E7940Cd55F05060b92;\n\n\n    event Transf(address from, address to, uint256 amount);\n    constructor(){\n        _isAdmin[msg.sender] = true;\n        _ashBalance = 0;\n    }\n\n    modifier adminOnly{\n        require(_isAdmin[msg.sender], \"Admin only\");\n        _;\n    }\n\n    receive() external payable {\n    }\n\n    function setAshAddress(address ashAddress) external adminOnly{\n        _ashAddress = ashAddress;\n    }\n\n    function manageAdmins(address wallet) external adminOnly{\n        _isAdmin[wallet] = !_isAdmin[wallet];\n    }\n\n\n    // @dev: split to be % *100 (e.g.: for 75%: put 75)\n    function setSplit(address[] calldata beneficiaries, uint256[]calldata split) external adminOnly{\n        require(beneficiaries.length == split.length,\"Invalid values\");\n        delete _beneficiaries;\n        _beneficiaries = beneficiaries;\n        for(uint256 i = 0; i < split.length; i++){\n            _split[beneficiaries[i]]= split[i];\n        }\n    }\n    \n    function depositAsh(address from, uint256 amount)external returns(bool){\n        require(amount >0, \"Invalid deposit amount\");\n        bool success;\n        success = IERC20(_ashAddress).transferFrom(from, address(this), amount);\n        emit Transf((msg.sender), address(this), amount);\n        require(success, \"Could not deposit funds\");\n        _ashBalance += amount;\n        return true;\n    }\n\n    function getAshBalance()external view returns(uint256){\n        return(IERC20(_ashAddress).balanceOf(address(this)));\n    }\n\n    // function splitAllAsh()external adminOnly{\n    //     address [] memory beneficiaries = _beneficiaries;\n    //     bool success;\n    //     uint256 ashBalance = IERC20(_ashAddress).balanceOf(address(this));\n    //     for(uint256 i =0 ; i < beneficiaries.length; i++){\n    //         success = IERC20(_ashAddress).transfer(beneficiaries[i], (ashBalance * _split[beneficiaries[i]])/100);\n    //         require(success, \"could not withdraw thee Ash\");\n    //     }\n    // }\n\n    // function splitAllEth()external adminOnly{\n    //     address [] memory beneficiaries = _beneficiaries;\n    //     bool success;\n    //     uint256 ethBalance =  address(this).balance;\n    //     for(uint256 i =0 ; i < _beneficiaries.length; i++){\n    //         success = payable(beneficiaries[i]).send((ethBalance * _split[beneficiaries[i]])/100);\n    //         require(success, \"could not withdraw thee Eth\");\n    //     }\n    // }\n\n    function splitAsh(uint256 amount)external adminOnly{\n        uint256 contractAshBalance = IERC20(_ashAddress).balanceOf(address(this));\n        require(amount <= contractAshBalance, \"Contract doesn't have enough Ash\");\n        address [] memory beneficiaries = _beneficiaries;\n        bool success;\n        if(amount == 0) amount = contractAshBalance;\n        for(uint256 i =0 ; i < beneficiaries.length; i++){\n            success = IERC20(_ashAddress).transfer(beneficiaries[i], (amount * _split[beneficiaries[i]])/100);\n            require(success, \"Could not withdraw thee Ash\");\n        }\n    }\n\n    function splitEth(uint256 amount)external adminOnly{\n        uint256 contractEthBalance =  address(this).balance;\n        require(amount <= contractEthBalance, \"Contract doesn't have enough Eth\");\n        address [] memory beneficiaries = _beneficiaries;\n        bool success;\n        if(amount == 0) amount = contractEthBalance;\n        for(uint256 i =0 ; i < _beneficiaries.length; i++){\n            success = payable(beneficiaries[i]).send((amount * _split[beneficiaries[i]])/100);\n            require(success, \"Could not withdraw thee Eth\");\n        }\n    }\n\n    function withdrawAllEth(address recipient) external adminOnly{\n        bool success;\n        success = payable(recipient).send(address(this).balance);\n        require(success, \"Failed to withdraw Eth\");\n    }\n\n    function withdrawAllAsh(address recipient)external adminOnly{\n        bool success;\n        uint256 ashBalance = IERC20(_ashAddress).balanceOf(address(this));\n        success = IERC20(_ashAddress).transfer(recipient, ashBalance);\n        require(success, \"Could not withdraw all Ash\");\n    }\n\n}",
  "sourcePath": "/Users/bct/Documents/Dev/NFT_dev/Anastasis/contracts/FundSplit.sol",
  "compiler": {
    "name": "solc",
    "version": "0.8.13+commit.abaa5c0e.Emscripten.clang"
  },
  "schemaVersion": "3.4.4",
  "updatedAt": "2022-09-26T19:18:33.385Z",
  "devdoc": {
    "kind": "dev",
    "methods": {},
    "version": 1
  },
  "userdoc": {
    "kind": "user",
    "methods": {},
    "version": 1
  }
}