{
  "contractName": "MultivariaMint",
  "abi": [
    {
      "inputs": [],
      "stateMutability": "nonpayable",
      "type": "constructor"
    },
    {
      "inputs": [],
      "name": "_ALMintOpened",
      "outputs": [
        {
          "internalType": "bool",
          "name": "",
          "type": "bool"
        }
      ],
      "stateMutability": "view",
      "type": "function"
    },
    {
      "inputs": [],
      "name": "_ALMintPrice",
      "outputs": [
        {
          "internalType": "uint256",
          "name": "",
          "type": "uint256"
        }
      ],
      "stateMutability": "view",
      "type": "function"
    },
    {
      "inputs": [
        {
          "internalType": "address",
          "name": "",
          "type": "address"
        }
      ],
      "name": "_ALTokensMinted",
      "outputs": [
        {
          "internalType": "uint256",
          "name": "",
          "type": "uint256"
        }
      ],
      "stateMutability": "view",
      "type": "function"
    },
    {
      "inputs": [
        {
          "internalType": "address",
          "name": "",
          "type": "address"
        }
      ],
      "name": "_isAdmin",
      "outputs": [
        {
          "internalType": "bool",
          "name": "",
          "type": "bool"
        }
      ],
      "stateMutability": "view",
      "type": "function"
    },
    {
      "inputs": [],
      "name": "_multivariaAddress",
      "outputs": [
        {
          "internalType": "address",
          "name": "",
          "type": "address"
        }
      ],
      "stateMutability": "view",
      "type": "function"
    },
    {
      "inputs": [],
      "name": "_publicMintOpened",
      "outputs": [
        {
          "internalType": "bool",
          "name": "",
          "type": "bool"
        }
      ],
      "stateMutability": "view",
      "type": "function"
    },
    {
      "inputs": [],
      "name": "_publicMintPrice",
      "outputs": [
        {
          "internalType": "uint256",
          "name": "",
          "type": "uint256"
        }
      ],
      "stateMutability": "view",
      "type": "function"
    },
    {
      "inputs": [],
      "name": "_publicTokenMintLimit",
      "outputs": [
        {
          "internalType": "uint256",
          "name": "",
          "type": "uint256"
        }
      ],
      "stateMutability": "view",
      "type": "function"
    },
    {
      "inputs": [
        {
          "internalType": "address",
          "name": "",
          "type": "address"
        }
      ],
      "name": "_publicTokenMinted",
      "outputs": [
        {
          "internalType": "uint256",
          "name": "",
          "type": "uint256"
        }
      ],
      "stateMutability": "view",
      "type": "function"
    },
    {
      "inputs": [],
      "name": "_recipient",
      "outputs": [
        {
          "internalType": "address",
          "name": "",
          "type": "address"
        }
      ],
      "stateMutability": "view",
      "type": "function"
    },
    {
      "inputs": [],
      "name": "_signer",
      "outputs": [
        {
          "internalType": "address",
          "name": "",
          "type": "address"
        }
      ],
      "stateMutability": "view",
      "type": "function"
    },
    {
      "inputs": [
        {
          "internalType": "uint256",
          "name": "publicMintPrice",
          "type": "uint256"
        }
      ],
      "name": "setPublicMintPrive",
      "outputs": [],
      "stateMutability": "nonpayable",
      "type": "function"
    },
    {
      "inputs": [
        {
          "internalType": "uint256",
          "name": "ALMintPrice",
          "type": "uint256"
        }
      ],
      "name": "setALMintPrive",
      "outputs": [],
      "stateMutability": "nonpayable",
      "type": "function"
    },
    {
      "inputs": [
        {
          "internalType": "address",
          "name": "signer",
          "type": "address"
        }
      ],
      "name": "setSigner",
      "outputs": [],
      "stateMutability": "nonpayable",
      "type": "function"
    },
    {
      "inputs": [
        {
          "internalType": "address",
          "name": "multivariaAddress",
          "type": "address"
        }
      ],
      "name": "setMultivariaAddress",
      "outputs": [],
      "stateMutability": "nonpayable",
      "type": "function"
    },
    {
      "inputs": [
        {
          "internalType": "address",
          "name": "recipient",
          "type": "address"
        }
      ],
      "name": "setRecipient",
      "outputs": [],
      "stateMutability": "nonpayable",
      "type": "function"
    },
    {
      "inputs": [],
      "name": "toggleALMintOpened",
      "outputs": [],
      "stateMutability": "nonpayable",
      "type": "function"
    },
    {
      "inputs": [],
      "name": "togglePublicMintOpened",
      "outputs": [],
      "stateMutability": "nonpayable",
      "type": "function"
    },
    {
      "inputs": [
        {
          "internalType": "uint8",
          "name": "v",
          "type": "uint8"
        },
        {
          "internalType": "bytes32",
          "name": "r",
          "type": "bytes32"
        },
        {
          "internalType": "bytes32",
          "name": "s",
          "type": "bytes32"
        },
        {
          "internalType": "uint256",
          "name": "quantity",
          "type": "uint256"
        }
      ],
      "name": "ALMint",
      "outputs": [],
      "stateMutability": "payable",
      "type": "function"
    },
    {
      "inputs": [
        {
          "internalType": "uint256",
          "name": "quantity",
          "type": "uint256"
        }
      ],
      "name": "publicMint",
      "outputs": [],
      "stateMutability": "payable",
      "type": "function"
    }
  ],
  "bytecode": "0x608060405266b1a2bc2ec5000060005567011c37937e0800006001556002805534801561002b57600080fd5b506001600660003373ffffffffffffffffffffffffffffffffffffffff1673ffffffffffffffffffffffffffffffffffffffff16815260200190815260200160002060006101000a81548160ff021916908315150217905550611d1c806100936000396000f3fe60806040526004361061011f5760003560e01c8063b6994071116100a0578063d4cca5f111610064578063d4cca5f11461037f578063dfa9ea7f146103aa578063e7d54c7c146103c1578063e9e43f1f146103fe578063ef3ef4e51461043b5761011f565b8063b6994071146102bb578063ba0ca15b146102e4578063c8fcb9b61461030f578063ca29e8c814610338578063cc96b05c146103635761011f565b80638315edc8116100e75780638315edc8146101d45780638c5835db146101fd5780638c72990c1461023a578063acb4f94114610265578063b551e366146102905761011f565b80630a20fea7146101245780632db115441461013b5780633bbed4a01461015757806362b07c83146101805780636c19e783146101ab575b600080fd5b34801561013057600080fd5b50610139610466565b005b610155600480360381019061015091906111d5565b61051e565b005b34801561016357600080fd5b5061017e60048036038101906101799190611260565b61083f565b005b34801561018c57600080fd5b5061019561090f565b6040516101a2919061129c565b60405180910390f35b3480156101b757600080fd5b506101d260048036038101906101cd9190611260565b610915565b005b3480156101e057600080fd5b506101fb60048036038101906101f69190611260565b6109e5565b005b34801561020957600080fd5b50610224600480360381019061021f9190611260565b610ab5565b604051610231919061129c565b60405180910390f35b34801561024657600080fd5b5061024f610acd565b60405161025c919061129c565b60405180910390f35b34801561027157600080fd5b5061027a610ad3565b60405161028791906112d2565b60405180910390f35b34801561029c57600080fd5b506102a5610ae6565b6040516102b2919061129c565b60405180910390f35b3480156102c757600080fd5b506102e260048036038101906102dd91906111d5565b610aec565b005b3480156102f057600080fd5b506102f9610b82565b60405161030691906112fc565b60405180910390f35b34801561031b57600080fd5b50610336600480360381019061033191906111d5565b610ba8565b005b34801561034457600080fd5b5061034d610c3e565b60405161035a91906112fc565b60405180910390f35b61037d60048036038101906103789190611386565b610c64565b005b34801561038b57600080fd5b50610394610ef5565b6040516103a191906112fc565b60405180910390f35b3480156103b657600080fd5b506103bf610f1b565b005b3480156103cd57600080fd5b506103e860048036038101906103e39190611260565b610fd3565b6040516103f5919061129c565b60405180910390f35b34801561040a57600080fd5b5061042560048036038101906104209190611260565b610feb565b60405161043291906112d2565b60405180910390f35b34801561044757600080fd5b5061045061100b565b60405161045d91906112d2565b60405180910390f35b600660003373ffffffffffffffffffffffffffffffffffffffff1673ffffffffffffffffffffffffffffffffffffffff16815260200190815260200160002060009054906101000a900460ff166104f2576040517f08c379a00000000000000000000000000000000000000000000000000000000081526004016104e99061144a565b60405180910390fd5b600560149054906101000a900460ff1615600560146101000a81548160ff021916908315150217905550565b60025481600860003373ffffffffffffffffffffffffffffffffffffffff1673ffffffffffffffffffffffffffffffffffffffff1681526020019081526020016000205461056c9190611499565b11156105ad576040517f08c379a00000000000000000000000000000000000000000000000000000000081526004016105a490611561565b60405180910390fd5b600560159054906101000a900460ff166105fc576040517f08c379a00000000000000000000000000000000000000000000000000000000081526004016105f3906115cd565b60405180910390fd5b8060015461060a91906115ed565b34101561064c576040517f08c379a000000000000000000000000000000000000000000000000000000000815260040161064390611693565b60405180910390fd5b600560009054906101000a900473ffffffffffffffffffffffffffffffffffffffff1673ffffffffffffffffffffffffffffffffffffffff166108fc8260015461069691906115ed565b9081150290604051600060405180830381858888f193505050501580156106c1573d6000803e3d6000fd5b50600360009054906101000a900473ffffffffffffffffffffffffffffffffffffffff1673ffffffffffffffffffffffffffffffffffffffff1663156e29f633600c846040518463ffffffff1660e01b8152600401610722939291906116f8565b600060405180830381600087803b15801561073c57600080fd5b505af1158015610750573d6000803e3d6000fd5b50505050600360009054906101000a900473ffffffffffffffffffffffffffffffffffffffff1673ffffffffffffffffffffffffffffffffffffffff1663156e29f633600d846040518463ffffffff1660e01b81526004016107b49392919061176a565b600060405180830381600087803b1580156107ce57600080fd5b505af11580156107e2573d6000803e3d6000fd5b5050505080600860003373ffffffffffffffffffffffffffffffffffffffff1673ffffffffffffffffffffffffffffffffffffffff16815260200190815260200160002060008282546108359190611499565b9250508190555050565b600660003373ffffffffffffffffffffffffffffffffffffffff1673ffffffffffffffffffffffffffffffffffffffff16815260200190815260200160002060009054906101000a900460ff166108cb576040517f08c379a00000000000000000000000000000000000000000000000000000000081526004016108c290611813565b60405180910390fd5b80600560006101000a81548173ffffffffffffffffffffffffffffffffffffffff021916908373ffffffffffffffffffffffffffffffffffffffff16021790555050565b60005481565b600660003373ffffffffffffffffffffffffffffffffffffffff1673ffffffffffffffffffffffffffffffffffffffff16815260200190815260200160002060009054906101000a900460ff166109a1576040517f08c379a00000000000000000000000000000000000000000000000000000000081526004016109989061187f565b60405180910390fd5b80600460006101000a81548173ffffffffffffffffffffffffffffffffffffffff021916908373ffffffffffffffffffffffffffffffffffffffff16021790555050565b600660003373ffffffffffffffffffffffffffffffffffffffff1673ffffffffffffffffffffffffffffffffffffffff16815260200190815260200160002060009054906101000a900460ff16610a71576040517f08c379a0000000000000000000000000000000000000000000000000000000008152600401610a6890611911565b60405180910390fd5b80600360006101000a81548173ffffffffffffffffffffffffffffffffffffffff021916908373ffffffffffffffffffffffffffffffffffffffff16021790555050565b60086020528060005260406000206000915090505481565b60025481565b600560159054906101000a900460ff1681565b60015481565b600660003373ffffffffffffffffffffffffffffffffffffffff1673ffffffffffffffffffffffffffffffffffffffff16815260200190815260200160002060009054906101000a900460ff16610b78576040517f08c379a0000000000000000000000000000000000000000000000000000000008152600401610b6f9061197d565b60405180910390fd5b8060008190555050565b600360009054906101000a900473ffffffffffffffffffffffffffffffffffffffff1681565b600660003373ffffffffffffffffffffffffffffffffffffffff1673ffffffffffffffffffffffffffffffffffffffff16815260200190815260200160002060009054906101000a900460ff16610c34576040517f08c379a0000000000000000000000000000000000000000000000000000000008152600401610c2b90611a0f565b60405180910390fd5b8060018190555050565b600460009054906101000a900473ffffffffffffffffffffffffffffffffffffffff1681565b610c708185858561101e565b610caf576040517f08c379a0000000000000000000000000000000000000000000000000000000008152600401610ca690611a7b565b60405180910390fd5b80600054610cbd91906115ed565b341015610cff576040517f08c379a0000000000000000000000000000000000000000000000000000000008152600401610cf690611693565b60405180910390fd5b600560009054906101000a900473ffffffffffffffffffffffffffffffffffffffff1673ffffffffffffffffffffffffffffffffffffffff166108fc82600054610d4991906115ed565b9081150290604051600060405180830381858888f19350505050158015610d74573d6000803e3d6000fd5b50600360009054906101000a900473ffffffffffffffffffffffffffffffffffffffff1673ffffffffffffffffffffffffffffffffffffffff1663156e29f633600c846040518463ffffffff1660e01b8152600401610dd5939291906116f8565b600060405180830381600087803b158015610def57600080fd5b505af1158015610e03573d6000803e3d6000fd5b50505050600360009054906101000a900473ffffffffffffffffffffffffffffffffffffffff1673ffffffffffffffffffffffffffffffffffffffff1663156e29f633600d846040518463ffffffff1660e01b8152600401610e679392919061176a565b600060405180830381600087803b158015610e8157600080fd5b505af1158015610e95573d6000803e3d6000fd5b5050505080600760003373ffffffffffffffffffffffffffffffffffffffff1673ffffffffffffffffffffffffffffffffffffffff1681526020019081526020016000206000828254610ee89190611499565b9250508190555050505050565b600560009054906101000a900473ffffffffffffffffffffffffffffffffffffffff1681565b600660003373ffffffffffffffffffffffffffffffffffffffff1673ffffffffffffffffffffffffffffffffffffffff16815260200190815260200160002060009054906101000a900460ff16610fa7576040517f08c379a0000000000000000000000000000000000000000000000000000000008152600401610f9e90611ae7565b60405180910390fd5b600560159054906101000a900460ff1615600560156101000a81548160ff021916908315150217905550565b60076020528060005260406000206000915090505481565b60066020528060005260406000206000915054906101000a900460ff1681565b600560149054906101000a900460ff1681565b6000600133600360009054906101000a900473ffffffffffffffffffffffffffffffffffffffff16600560149054906101000a900460ff16600289600760003373ffffffffffffffffffffffffffffffffffffffff1673ffffffffffffffffffffffffffffffffffffffff168152602001908152602001600020546110a39190611499565b11156040516020016110b89493929190611b97565b604051602081830303815290604052805190602001206040516020016110de9190611c5d565b60405160208183030381529060405280519060200120858585604051600081526020016040526040516111149493929190611ca1565b6020604051602081039080840390855afa158015611136573d6000803e3d6000fd5b5050506020604051035173ffffffffffffffffffffffffffffffffffffffff16600460009054906101000a900473ffffffffffffffffffffffffffffffffffffffff1673ffffffffffffffffffffffffffffffffffffffff16149050949350505050565b600080fd5b6000819050919050565b6111b28161119f565b81146111bd57600080fd5b50565b6000813590506111cf816111a9565b92915050565b6000602082840312156111eb576111ea61119a565b5b60006111f9848285016111c0565b91505092915050565b600073ffffffffffffffffffffffffffffffffffffffff82169050919050565b600061122d82611202565b9050919050565b61123d81611222565b811461124857600080fd5b50565b60008135905061125a81611234565b92915050565b6000602082840312156112765761127561119a565b5b60006112848482850161124b565b91505092915050565b6112968161119f565b82525050565b60006020820190506112b1600083018461128d565b92915050565b60008115159050919050565b6112cc816112b7565b82525050565b60006020820190506112e760008301846112c3565b92915050565b6112f681611222565b82525050565b600060208201905061131160008301846112ed565b92915050565b600060ff82169050919050565b61132d81611317565b811461133857600080fd5b50565b60008135905061134a81611324565b92915050565b6000819050919050565b61136381611350565b811461136e57600080fd5b50565b6000813590506113808161135a565b92915050565b600080600080608085870312156113a05761139f61119a565b5b60006113ae8782880161133b565b94505060206113bf87828801611371565b93505060406113d087828801611371565b92505060606113e1878288016111c0565b91505092959194509250565b600082825260208201905092915050565b7f4f6e6c792041646d696e732063616e20746f67676c6520414c204d696e740000600082015250565b6000611434601e836113ed565b915061143f826113fe565b602082019050919050565b6000602082019050818103600083015261146381611427565b9050919050565b7f4e487b7100000000000000000000000000000000000000000000000000000000600052601160045260246000fd5b60006114a48261119f565b91506114af8361119f565b9250827fffffffffffffffffffffffffffffffffffffffffffffffffffffffffffffffff038211156114e4576114e361146a565b5b828201905092915050565b7f5573657220616c7265616479206d696e74656420746865206d6178206e756d6260008201527f6572206f66207069656365730000000000000000000000000000000000000000602082015250565b600061154b602c836113ed565b9150611556826114ef565b604082019050919050565b6000602082019050818103600083015261157a8161153e565b9050919050565b7f5075626c6963206d696e742069732063757272656e746c7920636c6f73656400600082015250565b60006115b7601f836113ed565b91506115c282611581565b602082019050919050565b600060208201905081810360008301526115e6816115aa565b9050919050565b60006115f88261119f565b91506116038361119f565b9250817fffffffffffffffffffffffffffffffffffffffffffffffffffffffffffffffff048311821515161561163c5761163b61146a565b5b828202905092915050565b7f4e6f7420656e6f7567682066756e647300000000000000000000000000000000600082015250565b600061167d6010836113ed565b915061168882611647565b602082019050919050565b600060208201905081810360008301526116ac81611670565b9050919050565b6000819050919050565b6000819050919050565b60006116e26116dd6116d8846116b3565b6116bd565b61119f565b9050919050565b6116f2816116c7565b82525050565b600060608201905061170d60008301866112ed565b61171a60208301856116e9565b611727604083018461128d565b949350505050565b6000819050919050565b600061175461174f61174a8461172f565b6116bd565b61119f565b9050919050565b61176481611739565b82525050565b600060608201905061177f60008301866112ed565b61178c602083018561175b565b611799604083018461128d565b949350505050565b7f4f6e6c792041646d696e732063616e207365742074686520726563697069656e60008201527f7400000000000000000000000000000000000000000000000000000000000000602082015250565b60006117fd6021836113ed565b9150611808826117a1565b604082019050919050565b6000602082019050818103600083015261182c816117f0565b9050919050565b7f4f6e6c792041646d696e732063616e20736574207369676e6572000000000000600082015250565b6000611869601a836113ed565b915061187482611833565b602082019050919050565b600060208201905081810360008301526118988161185c565b9050919050565b7f4f6e6c792041646d696e732063616e20736574204d756c74697661726961204160008201527f6464726573730000000000000000000000000000000000000000000000000000602082015250565b60006118fb6026836113ed565b91506119068261189f565b604082019050919050565b6000602082019050818103600083015261192a816118ee565b9050919050565b7f4f6e6c792041646d696e732063616e207365742074686520414c207072696365600082015250565b60006119676020836113ed565b915061197282611931565b602082019050919050565b600060208201905081810360008301526119968161195a565b9050919050565b7f4f6e6c792041646d696e732063616e2073657420746865207075626c6963207060008201527f7269636500000000000000000000000000000000000000000000000000000000602082015250565b60006119f96024836113ed565b9150611a048261199d565b604082019050919050565b60006020820190508181036000830152611a28816119ec565b9050919050565b7f4d696e74206e6f7420616c6c6f77656400000000000000000000000000000000600082015250565b6000611a656010836113ed565b9150611a7082611a2f565b602082019050919050565b60006020820190508181036000830152611a9481611a58565b9050919050565b7f4f6e6c792041646d696e732063616e20746f67676c65206275726e204d696e74600082015250565b6000611ad16020836113ed565b9150611adc82611a9b565b602082019050919050565b60006020820190508181036000830152611b0081611ac4565b9050919050565b60008160601b9050919050565b6000611b1f82611b07565b9050919050565b6000611b3182611b14565b9050919050565b611b49611b4482611222565b611b26565b82525050565b60008160f81b9050919050565b6000611b6782611b4f565b9050919050565b6000611b7982611b5c565b9050919050565b611b91611b8c826112b7565b611b6e565b82525050565b6000611ba38287611b38565b601482019150611bb38286611b38565b601482019150611bc38285611b80565b600182019150611bd38284611b80565b60018201915081905095945050505050565b600081905092915050565b7f19457468657265756d205369676e6564204d6573736167653a0a333200000000600082015250565b6000611c26601c83611be5565b9150611c3182611bf0565b601c82019050919050565b6000819050919050565b611c57611c5282611350565b611c3c565b82525050565b6000611c6882611c19565b9150611c748284611c46565b60208201915081905092915050565b611c8c81611350565b82525050565b611c9b81611317565b82525050565b6000608082019050611cb66000830187611c83565b611cc36020830186611c92565b611cd06040830185611c83565b611cdd6060830184611c83565b9594505050505056fea2646970667358221220dcc30b938ca0d746c746876b3a966e05a9807a1e87536b2908d6a8fc4916f9de64736f6c634300080d0033",
  "immutableReferences": {},
  "source": "// SPDX-License-Identifier: MIT\n\npragma solidity >= 0.8.13;\n\nimport \"@openzeppelin/contracts/token/ERC1155/IERC1155.sol\";\nimport \"./Multivaria.sol\";\n\ncontract MultivariaMint{\n    uint256 public _ALMintPrice = 0.05*10**18;\n    uint256 public _publicMintPrice = 0.08*10**18;\n    uint256 public _publicTokenMintLimit = 2;\n\n    address public _multivariaAddress;\n    address public _signer;\n    address public _recipient;\n\n    bool public _ALMintOpened;\n    bool public _publicMintOpened;\n\n    mapping(address => bool) public _isAdmin;\n    mapping(address => uint256) public _ALTokensMinted;\n    mapping(address => uint256) public _publicTokenMinted;\n\n    constructor(){\n        _isAdmin[msg.sender]=true;\n    }\n\n    function setPublicMintPrive (uint256 publicMintPrice) external{\n        require(_isAdmin[msg.sender], \"Only Admins can set the public price\");\n        _publicMintPrice = publicMintPrice;\n    }\n\n    function setALMintPrive (uint256 ALMintPrice) external{\n        require(_isAdmin[msg.sender], \"Only Admins can set the AL price\");\n        _ALMintPrice = ALMintPrice;\n    }\n    \n    function setSigner (address signer) external{\n        require(_isAdmin[msg.sender], \"Only Admins can set signer\");\n        _signer = signer;\n    }\n\n    function setMultivariaAddress(address multivariaAddress) external{\n        require(_isAdmin[msg.sender], \"Only Admins can set Multivaria Address\");\n        _multivariaAddress = multivariaAddress;\n    }\n    function setRecipient(address recipient) external{\n        require(_isAdmin[msg.sender], \"Only Admins can set the recipient\");\n        _recipient = recipient;\n    }\n\n    function toggleALMintOpened() external{\n        require(_isAdmin[msg.sender], \"Only Admins can toggle AL Mint\");\n        _ALMintOpened = !_ALMintOpened;\n    }\n\n    function togglePublicMintOpened() external{\n        require(_isAdmin[msg.sender], \"Only Admins can toggle burn Mint\");\n        _publicMintOpened = !_publicMintOpened;\n    }\n\n    function mintAllowed(uint256 quantity, uint8 v, bytes32 r, bytes32 s)internal view returns(bool){\n        return(\n            _signer ==\n                ecrecover(\n                    keccak256(\n                        abi.encodePacked(\n                            \"\\x19Ethereum Signed Message:\\n32\",\n                            keccak256(\n                                abi.encodePacked(\n                                    msg.sender,\n                                    _multivariaAddress,\n                                    _ALMintOpened,\n                                    _ALTokensMinted[msg.sender] + quantity <= 2\n                                )\n                            )\n                        )\n                    )\n                , v, r, s)\n        );\n    }\n    function ALMint(\n        uint8 v,\n        bytes32 r, \n        bytes32 s,\n        uint256 quantity\n    ) external payable{\n        require(mintAllowed(quantity, v, r, s), \"Mint not allowed\");\n        require(msg.value >= _ALMintPrice * quantity, \"Not enough funds\");\n        payable(_recipient).transfer(_ALMintPrice * quantity);\n        Multivaria(_multivariaAddress).mint(msg.sender, 12, quantity);\n        Multivaria(_multivariaAddress).mint(msg.sender, 13, quantity);\n        _ALTokensMinted[msg.sender] += quantity;\n    }\n\n    function publicMint(uint256 quantity)external payable{\n        require(_publicTokenMinted[msg.sender] + quantity <= _publicTokenMintLimit, \"User already minted the max number of pieces\");\n        require(_publicMintOpened, \"Public mint is currently closed\");\n        require(msg.value >= _publicMintPrice * quantity, \"Not enough funds\");\n        payable(_recipient).transfer(_publicMintPrice * quantity);\n        Multivaria(_multivariaAddress).mint(msg.sender, 12, quantity);\n        Multivaria(_multivariaAddress).mint(msg.sender, 13, quantity);\n        _publicTokenMinted[msg.sender] += quantity;\n    }\n}",
  "sourcePath": "/Users/bct/Documents/Dev/NFT_dev/MULTIVARIA/contracts/MultivariaMint.sol",
  "compiler": {
    "name": "solc",
    "version": "0.8.13+commit.abaa5c0e.Emscripten.clang"
  },
  "schemaVersion": "3.4.4",
  "updatedAt": "2022-08-29T17:23:58.712Z",
  "devdoc": {
    "kind": "dev",
    "methods": {},
    "version": 1
  },
  "userdoc": {
    "kind": "user",
    "methods": {},
    "version": 1
  }
}