{
  "contractName": "Multivaria",
  "abi": [
    {
      "inputs": [],
      "stateMutability": "nonpayable",
      "type": "constructor"
    },
    {
      "anonymous": false,
      "inputs": [
        {
          "indexed": true,
          "internalType": "address",
          "name": "account",
          "type": "address"
        },
        {
          "indexed": true,
          "internalType": "address",
          "name": "sender",
          "type": "address"
        }
      ],
      "name": "AdminApproved",
      "type": "event"
    },
    {
      "anonymous": false,
      "inputs": [
        {
          "indexed": true,
          "internalType": "address",
          "name": "account",
          "type": "address"
        },
        {
          "indexed": true,
          "internalType": "address",
          "name": "sender",
          "type": "address"
        }
      ],
      "name": "AdminRevoked",
      "type": "event"
    },
    {
      "anonymous": false,
      "inputs": [
        {
          "indexed": true,
          "internalType": "address",
          "name": "account",
          "type": "address"
        },
        {
          "indexed": true,
          "internalType": "address",
          "name": "operator",
          "type": "address"
        },
        {
          "indexed": false,
          "internalType": "bool",
          "name": "approved",
          "type": "bool"
        }
      ],
      "name": "ApprovalForAll",
      "type": "event"
    },
    {
      "anonymous": false,
      "inputs": [
        {
          "indexed": true,
          "internalType": "address",
          "name": "previousOwner",
          "type": "address"
        },
        {
          "indexed": true,
          "internalType": "address",
          "name": "newOwner",
          "type": "address"
        }
      ],
      "name": "OwnershipTransferred",
      "type": "event"
    },
    {
      "anonymous": false,
      "inputs": [
        {
          "indexed": true,
          "internalType": "address",
          "name": "operator",
          "type": "address"
        },
        {
          "indexed": true,
          "internalType": "address",
          "name": "from",
          "type": "address"
        },
        {
          "indexed": true,
          "internalType": "address",
          "name": "to",
          "type": "address"
        },
        {
          "indexed": false,
          "internalType": "uint256[]",
          "name": "ids",
          "type": "uint256[]"
        },
        {
          "indexed": false,
          "internalType": "uint256[]",
          "name": "values",
          "type": "uint256[]"
        }
      ],
      "name": "TransferBatch",
      "type": "event"
    },
    {
      "anonymous": false,
      "inputs": [
        {
          "indexed": true,
          "internalType": "address",
          "name": "operator",
          "type": "address"
        },
        {
          "indexed": true,
          "internalType": "address",
          "name": "from",
          "type": "address"
        },
        {
          "indexed": true,
          "internalType": "address",
          "name": "to",
          "type": "address"
        },
        {
          "indexed": false,
          "internalType": "uint256",
          "name": "id",
          "type": "uint256"
        },
        {
          "indexed": false,
          "internalType": "uint256",
          "name": "value",
          "type": "uint256"
        }
      ],
      "name": "TransferSingle",
      "type": "event"
    },
    {
      "anonymous": false,
      "inputs": [
        {
          "indexed": false,
          "internalType": "string",
          "name": "value",
          "type": "string"
        },
        {
          "indexed": true,
          "internalType": "uint256",
          "name": "id",
          "type": "uint256"
        }
      ],
      "name": "URI",
      "type": "event"
    },
    {
      "inputs": [],
      "name": "_advancedCardShifted",
      "outputs": [
        {
          "internalType": "bool",
          "name": "",
          "type": "bool"
        }
      ],
      "stateMutability": "view",
      "type": "function"
    },
    {
      "inputs": [],
      "name": "_editionsLeft",
      "outputs": [
        {
          "internalType": "uint256",
          "name": "",
          "type": "uint256"
        }
      ],
      "stateMutability": "view",
      "type": "function"
    },
    {
      "inputs": [],
      "name": "_name",
      "outputs": [
        {
          "internalType": "string",
          "name": "",
          "type": "string"
        }
      ],
      "stateMutability": "view",
      "type": "function"
    },
    {
      "inputs": [],
      "name": "_shiftActivated",
      "outputs": [
        {
          "internalType": "bool",
          "name": "",
          "type": "bool"
        }
      ],
      "stateMutability": "view",
      "type": "function"
    },
    {
      "inputs": [],
      "name": "_test",
      "outputs": [
        {
          "internalType": "uint256",
          "name": "",
          "type": "uint256"
        }
      ],
      "stateMutability": "view",
      "type": "function"
    },
    {
      "inputs": [
        {
          "internalType": "address",
          "name": "admin",
          "type": "address"
        }
      ],
      "name": "approveAdmin",
      "outputs": [],
      "stateMutability": "nonpayable",
      "type": "function"
    },
    {
      "inputs": [
        {
          "internalType": "address",
          "name": "account",
          "type": "address"
        },
        {
          "internalType": "uint256",
          "name": "id",
          "type": "uint256"
        }
      ],
      "name": "balanceOf",
      "outputs": [
        {
          "internalType": "uint256",
          "name": "",
          "type": "uint256"
        }
      ],
      "stateMutability": "view",
      "type": "function"
    },
    {
      "inputs": [
        {
          "internalType": "address[]",
          "name": "accounts",
          "type": "address[]"
        },
        {
          "internalType": "uint256[]",
          "name": "ids",
          "type": "uint256[]"
        }
      ],
      "name": "balanceOfBatch",
      "outputs": [
        {
          "internalType": "uint256[]",
          "name": "",
          "type": "uint256[]"
        }
      ],
      "stateMutability": "view",
      "type": "function"
    },
    {
      "inputs": [],
      "name": "getAdmins",
      "outputs": [
        {
          "internalType": "address[]",
          "name": "admins",
          "type": "address[]"
        }
      ],
      "stateMutability": "view",
      "type": "function"
    },
    {
      "inputs": [
        {
          "internalType": "address",
          "name": "admin",
          "type": "address"
        }
      ],
      "name": "isAdmin",
      "outputs": [
        {
          "internalType": "bool",
          "name": "",
          "type": "bool"
        }
      ],
      "stateMutability": "view",
      "type": "function"
    },
    {
      "inputs": [
        {
          "internalType": "address",
          "name": "account",
          "type": "address"
        },
        {
          "internalType": "address",
          "name": "operator",
          "type": "address"
        }
      ],
      "name": "isApprovedForAll",
      "outputs": [
        {
          "internalType": "bool",
          "name": "",
          "type": "bool"
        }
      ],
      "stateMutability": "view",
      "type": "function"
    },
    {
      "inputs": [],
      "name": "owner",
      "outputs": [
        {
          "internalType": "address",
          "name": "",
          "type": "address"
        }
      ],
      "stateMutability": "view",
      "type": "function"
    },
    {
      "inputs": [],
      "name": "renounceOwnership",
      "outputs": [],
      "stateMutability": "nonpayable",
      "type": "function"
    },
    {
      "inputs": [
        {
          "internalType": "address",
          "name": "admin",
          "type": "address"
        }
      ],
      "name": "revokeAdmin",
      "outputs": [],
      "stateMutability": "nonpayable",
      "type": "function"
    },
    {
      "inputs": [
        {
          "internalType": "address",
          "name": "from",
          "type": "address"
        },
        {
          "internalType": "address",
          "name": "to",
          "type": "address"
        },
        {
          "internalType": "uint256[]",
          "name": "ids",
          "type": "uint256[]"
        },
        {
          "internalType": "uint256[]",
          "name": "amounts",
          "type": "uint256[]"
        },
        {
          "internalType": "bytes",
          "name": "data",
          "type": "bytes"
        }
      ],
      "name": "safeBatchTransferFrom",
      "outputs": [],
      "stateMutability": "nonpayable",
      "type": "function"
    },
    {
      "inputs": [
        {
          "internalType": "address",
          "name": "from",
          "type": "address"
        },
        {
          "internalType": "address",
          "name": "to",
          "type": "address"
        },
        {
          "internalType": "uint256",
          "name": "id",
          "type": "uint256"
        },
        {
          "internalType": "uint256",
          "name": "amount",
          "type": "uint256"
        },
        {
          "internalType": "bytes",
          "name": "data",
          "type": "bytes"
        }
      ],
      "name": "safeTransferFrom",
      "outputs": [],
      "stateMutability": "nonpayable",
      "type": "function"
    },
    {
      "inputs": [
        {
          "internalType": "address",
          "name": "operator",
          "type": "address"
        },
        {
          "internalType": "bool",
          "name": "approved",
          "type": "bool"
        }
      ],
      "name": "setApprovalForAll",
      "outputs": [],
      "stateMutability": "nonpayable",
      "type": "function"
    },
    {
      "inputs": [
        {
          "internalType": "address",
          "name": "newOwner",
          "type": "address"
        }
      ],
      "name": "transferOwnership",
      "outputs": [],
      "stateMutability": "nonpayable",
      "type": "function"
    },
    {
      "inputs": [
        {
          "internalType": "bytes4",
          "name": "interfaceId",
          "type": "bytes4"
        }
      ],
      "name": "supportsInterface",
      "outputs": [
        {
          "internalType": "bool",
          "name": "",
          "type": "bool"
        }
      ],
      "stateMutability": "view",
      "type": "function"
    },
    {
      "inputs": [],
      "name": "name",
      "outputs": [
        {
          "internalType": "string",
          "name": "",
          "type": "string"
        }
      ],
      "stateMutability": "view",
      "type": "function"
    },
    {
      "inputs": [],
      "name": "getPseudoRndTier",
      "outputs": [
        {
          "internalType": "uint256",
          "name": "",
          "type": "uint256"
        }
      ],
      "stateMutability": "nonpayable",
      "type": "function"
    },
    {
      "inputs": [
        {
          "internalType": "address",
          "name": "to",
          "type": "address"
        },
        {
          "internalType": "uint256",
          "name": "id",
          "type": "uint256"
        },
        {
          "internalType": "uint256",
          "name": "amount",
          "type": "uint256"
        }
      ],
      "name": "mint",
      "outputs": [],
      "stateMutability": "nonpayable",
      "type": "function"
    },
    {
      "inputs": [
        {
          "internalType": "address",
          "name": "to",
          "type": "address"
        },
        {
          "internalType": "uint256[]",
          "name": "ids",
          "type": "uint256[]"
        },
        {
          "internalType": "uint256[]",
          "name": "amounts",
          "type": "uint256[]"
        }
      ],
      "name": "mintBatch",
      "outputs": [],
      "stateMutability": "nonpayable",
      "type": "function"
    },
    {
      "inputs": [],
      "name": "toggleShiftActivated",
      "outputs": [],
      "stateMutability": "nonpayable",
      "type": "function"
    },
    {
      "inputs": [
        {
          "internalType": "uint256",
          "name": "multivariaId",
          "type": "uint256"
        },
        {
          "internalType": "uint256",
          "name": "shiftCardId",
          "type": "uint256"
        },
        {
          "internalType": "uint256",
          "name": "shiftedTier",
          "type": "uint256"
        }
      ],
      "name": "adminShift",
      "outputs": [],
      "stateMutability": "nonpayable",
      "type": "function"
    },
    {
      "inputs": [],
      "name": "shift",
      "outputs": [],
      "stateMutability": "nonpayable",
      "type": "function"
    },
    {
      "inputs": [
        {
          "internalType": "uint256",
          "name": "multivariaId",
          "type": "uint256"
        }
      ],
      "name": "uniqueShift",
      "outputs": [],
      "stateMutability": "nonpayable",
      "type": "function"
    },
    {
      "inputs": [
        {
          "internalType": "string",
          "name": "updatedURI",
          "type": "string"
        }
      ],
      "name": "setURI",
      "outputs": [],
      "stateMutability": "nonpayable",
      "type": "function"
    },
    {
      "inputs": [
        {
          "internalType": "uint256",
          "name": "tokenId",
          "type": "uint256"
        }
      ],
      "name": "uri",
      "outputs": [
        {
          "internalType": "string",
          "name": "",
          "type": "string"
        }
      ],
      "stateMutability": "view",
      "type": "function"
    },
    {
      "inputs": [
        {
          "internalType": "uint256",
          "name": "tokenId",
          "type": "uint256"
        },
        {
          "internalType": "uint256",
          "name": "quantity",
          "type": "uint256"
        }
      ],
      "name": "burn",
      "outputs": [],
      "stateMutability": "nonpayable",
      "type": "function"
    },
    {
      "inputs": [
        {
          "internalType": "uint256[]",
          "name": "ids",
          "type": "uint256[]"
        },
        {
          "internalType": "uint256[]",
          "name": "amounts",
          "type": "uint256[]"
        }
      ],
      "name": "burnBatch",
      "outputs": [],
      "stateMutability": "nonpayable",
      "type": "function"
    },
    {
      "inputs": [
        {
          "internalType": "address payable",
          "name": "_recipient",
          "type": "address"
        },
        {
          "internalType": "uint256",
          "name": "_royaltyPerCent",
          "type": "uint256"
        }
      ],
      "name": "setRoyalties",
      "outputs": [],
      "stateMutability": "nonpayable",
      "type": "function"
    },
    {
      "inputs": [
        {
          "internalType": "uint256",
          "name": "salePrice",
          "type": "uint256"
        }
      ],
      "name": "royaltyInfo",
      "outputs": [
        {
          "internalType": "address",
          "name": "",
          "type": "address"
        },
        {
          "internalType": "uint256",
          "name": "",
          "type": "uint256"
        }
      ],
      "stateMutability": "view",
      "type": "function"
    },
    {
      "inputs": [
        {
          "internalType": "address",
          "name": "recipient",
          "type": "address"
        }
      ],
      "name": "withdraw",
      "outputs": [],
      "stateMutability": "nonpayable",
      "type": "function"
    }
  ],
  "bytecode": "0x608060405260c86009556040518060400160405280600a81526020017f4d756c746976617269610000000000000000000000000000000000000000000081525060159080519060200190620000569291906200025e565b503480156200006457600080fd5b506040518060200160405280600081525062000095620000896200017660201b60201c565b6200017e60201b60201c565b620000a6816200024260201b60201c565b5033600660006101000a81548173ffffffffffffffffffffffffffffffffffffffff021916908373ffffffffffffffffffffffffffffffffffffffff160217905550600a8081905550604051806101400160405280600260ff168152602001600560ff168152602001600a60ff168152602001601460ff168152602001602360ff168152602001603760ff168152602001605060ff168152602001606e60ff168152602001609660ff16815260200160c860ff16815250600b90600a6200016f929190620002ef565b50620003bc565b600033905090565b60008060009054906101000a900473ffffffffffffffffffffffffffffffffffffffff169050816000806101000a81548173ffffffffffffffffffffffffffffffffffffffff021916908373ffffffffffffffffffffffffffffffffffffffff1602179055508173ffffffffffffffffffffffffffffffffffffffff168173ffffffffffffffffffffffffffffffffffffffff167f8be0079c531659141344cd1fd0a4f28419497f9722a3daafe3b4186f6b6457e060405160405180910390a35050565b80600390805190602001906200025a9291906200025e565b5050565b8280546200026c9062000387565b90600052602060002090601f016020900481019282620002905760008555620002dc565b82601f10620002ab57805160ff1916838001178555620002dc565b82800160010185558215620002dc579182015b82811115620002db578251825591602001919060010190620002be565b5b509050620002eb919062000339565b5090565b82600a810192821562000326579160200282015b8281111562000325578251829060ff1690559160200191906001019062000303565b5b50905062000335919062000339565b5090565b5b80821115620003545760008160009055506001016200033a565b5090565b7f4e487b7100000000000000000000000000000000000000000000000000000000600052602260045260246000fd5b60006002820490506001821680620003a057607f821691505b602082108103620003b657620003b562000358565b5b50919050565b6158e580620003cc6000396000f3fe608060405234801561001057600080fd5b50600436106102055760003560e01c8063715018a61161011a578063a6246d09116100ad578063d6a09c761161007c578063d6a09c7614610589578063d81d0a15146105a7578063e985e9c5146105c3578063f242432a146105f3578063f2fde38b1461060f57610205565b8063a6246d0914610500578063b390c0ab1461051e578063cef6d3681461053a578063d28d88521461056b57610205565b80638da5cb5b116100e95780638da5cb5b1461048a57806399fbb93d146104a85780639c8c8466146104c6578063a22cb465146104e457610205565b8063715018a61461042a5780637b021e221461043457806383ca4b6f146104525780638c7ea24b1461046e57610205565b80632d3456701161019d5780634e1273f41161016c5780634e1273f41461039c57806351cff8d9146103cc57806356e7e7eb146103e85780636d73e669146103f25780636e1c209a1461040e57610205565b80632d3456701461032a5780632eb2c2d61461034657806331ae450b146103625780633923047d1461038057610205565b80630e89341c116101d95780630e89341c146102a457806312fc41ca146102d4578063156e29f6146102de57806324d7806c146102fa57610205565b8062fdd58e1461020a57806301ffc9a71461023a57806302fe53051461026a57806306fdde0314610286575b600080fd5b610224600480360381019061021f9190613827565b61062b565b6040516102319190613876565b60405180910390f35b610254600480360381019061024f91906138e9565b6106f4565b6040516102619190613931565b60405180910390f35b610284600480360381019061027f91906139b1565b61078e565b005b61028e610834565b60405161029b9190613a97565b60405180910390f35b6102be60048036038101906102b99190613ab9565b6108c6565b6040516102cb9190613a97565b60405180910390f35b6102dc610950565b005b6102f860048036038101906102f39190613ae6565b610aa6565b005b610314600480360381019061030f9190613b39565b610b7c565b6040516103219190613931565b60405180910390f35b610344600480360381019061033f9190613b39565b610bd6565b005b610360600480360381019061035b9190613d59565b610c6a565b005b61036a610d0b565b6040516103779190613ee6565b60405180910390f35b61039a60048036038101906103959190613f08565b610ded565b005b6103b660048036038101906103b1919061401e565b610fbd565b6040516103c39190614154565b60405180910390f35b6103e660048036038101906103e19190613b39565b6110d6565b005b6103f06111b0565b005b61040c60048036038101906104079190613b39565b61126c565b005b61042860048036038101906104239190613ab9565b6112ff565b005b610432611463565b005b61043c611477565b6040516104499190613876565b60405180910390f35b61046c60048036038101906104679190614176565b61147d565b005b6104886004803603810190610483919061422c565b61148c565b005b610492611568565b60405161049f919061427b565b60405180910390f35b6104b0611591565b6040516104bd9190613931565b60405180910390f35b6104ce6115a4565b6040516104db9190613931565b60405180910390f35b6104fe60048036038101906104f991906142c2565b6115b7565b005b6105086115cd565b6040516105159190613876565b60405180910390f35b61053860048036038101906105339190614302565b6115d3565b005b610554600480360381019061054f9190613ab9565b6115e2565b604051610562929190614342565b60405180910390f35b61057361168e565b6040516105809190613a97565b60405180910390f35b61059161171c565b60405161059e9190613876565b60405180910390f35b6105c160048036038101906105bc919061436b565b61187d565b005b6105dd60048036038101906105d891906143f6565b611953565b6040516105ea9190613931565b60405180910390f35b61060d60048036038101906106089190614436565b6119e7565b005b61062960048036038101906106249190613b39565b611a88565b005b60008073ffffffffffffffffffffffffffffffffffffffff168373ffffffffffffffffffffffffffffffffffffffff160361069b576040517f08c379a00000000000000000000000000000000000000000000000000000000081526004016106929061453f565b60405180910390fd5b6001600083815260200190815260200160002060008473ffffffffffffffffffffffffffffffffffffffff1673ffffffffffffffffffffffffffffffffffffffff16815260200190815260200160002054905092915050565b60006106ff82611b0b565b8061070f575061070e82611b85565b5b8061077757507f2a55205a000000000000000000000000000000000000000000000000000000007bffffffffffffffffffffffffffffffffffffffffffffffffffffffff1916827bffffffffffffffffffffffffffffffffffffffffffffffffffffffff1916145b80610787575061078682611b0b565b5b9050919050565b3373ffffffffffffffffffffffffffffffffffffffff166107ad611568565b73ffffffffffffffffffffffffffffffffffffffff1614806107df57506107de336004611c6790919063ffffffff16565b5b61081e576040517f08c379a0000000000000000000000000000000000000000000000000000000008152600401610815906145d1565b60405180910390fd5b81816016919061082f92919061369c565b505050565b60606015805461084390614620565b80601f016020809104026020016040519081016040528092919081815260200182805461086f90614620565b80156108bc5780601f10610891576101008083540402835291602001916108bc565b820191906000526020600020905b81548152906001019060200180831161089f57829003601f168201915b5050505050905090565b60606001821480156108e55750601760019054906101000a900460ff16155b1561091d5760166108f6600e611c97565b60405160200161090792919061476d565b604051602081830303815290604052905061094b565b601661092883611c97565b60405160200161093992919061476d565b60405160208183030381529060405290505b919050565b601760009054906101000a900460ff1661099f576040517f08c379a0000000000000000000000000000000000000000000000000000000008152600401610996906147e8565b60405180910390fd5b60016109ac33600c61062b565b10156109ed576040517f08c379a00000000000000000000000000000000000000000000000000000000081526004016109e49061487a565b60405180910390fd5b60016109fa33600d61062b565b1015610a3b576040517f08c379a0000000000000000000000000000000000000000000000000000000008152600401610a32906148e6565b60405180910390fd5b6000610a4561171c565b9050610a5433600c6001611df7565b610a6133600d6001611df7565b610aa3338260016040518060400160405280600381526020017f307830000000000000000000000000000000000000000000000000000000000081525061203f565b50565b3373ffffffffffffffffffffffffffffffffffffffff16610ac5611568565b73ffffffffffffffffffffffffffffffffffffffff161480610af75750610af6336004611c6790919063ffffffff16565b5b610b36576040517f08c379a0000000000000000000000000000000000000000000000000000000008152600401610b2d906145d1565b60405180910390fd5b610b778383836040518060400160405280600381526020017f307830000000000000000000000000000000000000000000000000000000000081525061203f565b505050565b60008173ffffffffffffffffffffffffffffffffffffffff16610b9d611568565b73ffffffffffffffffffffffffffffffffffffffff161480610bcf5750610bce826004611c6790919063ffffffff16565b5b9050919050565b610bde6121f0565b610bf2816004611c6790919063ffffffff16565b15610c67573373ffffffffffffffffffffffffffffffffffffffff168173ffffffffffffffffffffffffffffffffffffffff167f7c0c3c84c67c85fcac635147348bfe374c24a1a93d0366d1cfe9d8853cbf89d560405160405180910390a3610c6581600461226e90919063ffffffff16565b505b50565b610c7261229e565b73ffffffffffffffffffffffffffffffffffffffff168573ffffffffffffffffffffffffffffffffffffffff161480610cb85750610cb785610cb261229e565b611953565b5b610cf7576040517f08c379a0000000000000000000000000000000000000000000000000000000008152600401610cee90614978565b60405180910390fd5b610d0485858585856122a6565b5050505050565b6060610d1760046125ca565b67ffffffffffffffff811115610d3057610d2f613b66565b5b604051908082528060200260200182016040528015610d5e5781602001602082028036833780820191505090505b50905060005b610d6e60046125ca565b811015610de957610d898160046125df90919063ffffffff16565b828281518110610d9c57610d9b614998565b5b602002602001019073ffffffffffffffffffffffffffffffffffffffff16908173ffffffffffffffffffffffffffffffffffffffff16815250508080610de1906149f6565b915050610d64565b5090565b3373ffffffffffffffffffffffffffffffffffffffff16610e0c611568565b73ffffffffffffffffffffffffffffffffffffffff161480610e3e5750610e3d336004611c6790919063ffffffff16565b5b610e7d576040517f08c379a0000000000000000000000000000000000000000000000000000000008152600401610e74906145d1565b60405180910390fd5b600c8311158015610e8e5750600183115b610ecd576040517f08c379a0000000000000000000000000000000000000000000000000000000008152600401610ec490614a8a565b60405180910390fd5b600d821480610edc5750600e82145b610f1b576040517f08c379a0000000000000000000000000000000000000000000000000000000008152600401610f1290614af6565b60405180910390fd5b600c8110610f5e576040517f08c379a0000000000000000000000000000000000000000000000000000000008152600401610f5590614b62565b60405180910390fd5b610f6a33846001611df7565b610f7633836001611df7565b610fb8338260016040518060400160405280600381526020017f307830000000000000000000000000000000000000000000000000000000000081525061203f565b505050565b60608151835114611003576040517f08c379a0000000000000000000000000000000000000000000000000000000008152600401610ffa90614bf4565b60405180910390fd5b6000835167ffffffffffffffff8111156110205761101f613b66565b5b60405190808252806020026020018201604052801561104e5781602001602082028036833780820191505090505b50905060005b84518110156110cb5761109b85828151811061107357611072614998565b5b602002602001015185838151811061108e5761108d614998565b5b602002602001015161062b565b8282815181106110ae576110ad614998565b5b602002602001018181525050806110c4906149f6565b9050611054565b508091505092915050565b3373ffffffffffffffffffffffffffffffffffffffff166110f5611568565b73ffffffffffffffffffffffffffffffffffffffff1614806111275750611126336004611c6790919063ffffffff16565b5b611166576040517f08c379a000000000000000000000000000000000000000000000000000000000815260040161115d906145d1565b60405180910390fd5b8073ffffffffffffffffffffffffffffffffffffffff166108fc479081150290604051600060405180830381858888f193505050501580156111ac573d6000803e3d6000fd5b5050565b3373ffffffffffffffffffffffffffffffffffffffff166111cf611568565b73ffffffffffffffffffffffffffffffffffffffff1614806112015750611200336004611c6790919063ffffffff16565b5b611240576040517f08c379a0000000000000000000000000000000000000000000000000000000008152600401611237906145d1565b60405180910390fd5b601760009054906101000a900460ff1615601760006101000a81548160ff021916908315150217905550565b6112746121f0565b611288816004611c6790919063ffffffff16565b6112fc573373ffffffffffffffffffffffffffffffffffffffff168173ffffffffffffffffffffffffffffffffffffffff167f7e1a1a08d52e4ba0e21554733d66165fd5151f99460116223d9e3a608eec5cb160405160405180910390a36112fa8160046125f990919063ffffffff16565b505b50565b601760009054906101000a900460ff1661134e576040517f08c379a0000000000000000000000000000000000000000000000000000000008152600401611345906147e8565b60405180910390fd5b600c8110801561135f575060028110155b61139e576040517f08c379a000000000000000000000000000000000000000000000000000000000815260040161139590614c86565b60405180910390fd5b60016113aa338361062b565b10156113eb576040517f08c379a00000000000000000000000000000000000000000000000000000000081526004016113e290614cf2565b60405180910390fd5b60016113f833600161062b565b1015611439576040517f08c379a000000000000000000000000000000000000000000000000000000000815260040161143090614d84565b60405180910390fd5b6001601760016101000a81548160ff02191690831515021790555061146033826001611df7565b50565b61146b6121f0565b6114756000612629565b565b60095481565b6114883383836126ed565b5050565b3373ffffffffffffffffffffffffffffffffffffffff166114ab611568565b73ffffffffffffffffffffffffffffffffffffffff1614806114dd57506114dc336004611c6790919063ffffffff16565b5b61151c576040517f08c379a0000000000000000000000000000000000000000000000000000000008152600401611513906145d1565b60405180910390fd5b81600660006101000a81548173ffffffffffffffffffffffffffffffffffffffff021916908373ffffffffffffffffffffffffffffffffffffffff16021790555080600a819055505050565b60008060009054906101000a900473ffffffffffffffffffffffffffffffffffffffff16905090565b601760019054906101000a900460ff1681565b601760009054906101000a900460ff1681565b6115c96115c261229e565b83836129bd565b5050565b60185481565b6115de338383611df7565b5050565b600080600073ffffffffffffffffffffffffffffffffffffffff16600660009054906101000a900473ffffffffffffffffffffffffffffffffffffffff1673ffffffffffffffffffffffffffffffffffffffff161461168157600660009054906101000a900473ffffffffffffffffffffffffffffffffffffffff166064600a548561166e9190614da4565b6116789190614e2d565b91509150611689565b600080915091505b915091565b6015805461169b90614620565b80601f01602080910402602001604051908101604052809291908181526020018280546116c790614620565b80156117145780601f106116e957610100808354040283529160200191611714565b820191906000526020600020905b8154815290600101906020018083116116f757829003601f168201915b505050505081565b600080600090506000600b600a806020026040519081016040528092919082600a801561175e576020028201915b81548152602001906001019080831161174a575b50505050509050600080600954905060008144423360405160200161178593929190614ec7565b6040516020818303038152906040528051906020012060001c6117a89190614f04565b905060005b6001600a6117bb9190614f35565b8111611843578481600a81106117d4576117d3614998565b5b6020020151821080156117e75750600084145b1561180057600195506002816117fd9190614f69565b93505b8515611830578481600a811061181957611818614998565b5b60200201805180919061182b90614fbf565b815250505b808061183b906149f6565b9150506117ad565b50818061184f90614fbf565b92505083600b90600a611863929190613722565b508160098190555082601881905550829550505050505090565b3373ffffffffffffffffffffffffffffffffffffffff1661189c611568565b73ffffffffffffffffffffffffffffffffffffffff1614806118ce57506118cd336004611c6790919063ffffffff16565b5b61190d576040517f08c379a0000000000000000000000000000000000000000000000000000000008152600401611904906145d1565b60405180910390fd5b61194e8383836040518060400160405280600381526020017f3078300000000000000000000000000000000000000000000000000000000000815250612b29565b505050565b6000600260008473ffffffffffffffffffffffffffffffffffffffff1673ffffffffffffffffffffffffffffffffffffffff16815260200190815260200160002060008373ffffffffffffffffffffffffffffffffffffffff1673ffffffffffffffffffffffffffffffffffffffff16815260200190815260200160002060009054906101000a900460ff16905092915050565b6119ef61229e565b73ffffffffffffffffffffffffffffffffffffffff168573ffffffffffffffffffffffffffffffffffffffff161480611a355750611a3485611a2f61229e565b611953565b5b611a74576040517f08c379a0000000000000000000000000000000000000000000000000000000008152600401611a6b90614978565b60405180910390fd5b611a818585858585612d56565b5050505050565b611a906121f0565b600073ffffffffffffffffffffffffffffffffffffffff168173ffffffffffffffffffffffffffffffffffffffff1603611aff576040517f08c379a0000000000000000000000000000000000000000000000000000000008152600401611af69061505a565b60405180910390fd5b611b0881612629565b50565b60007f553e757e000000000000000000000000000000000000000000000000000000007bffffffffffffffffffffffffffffffffffffffffffffffffffffffff1916827bffffffffffffffffffffffffffffffffffffffffffffffffffffffff19161480611b7e5750611b7d82611b85565b5b9050919050565b60007fd9b67a26000000000000000000000000000000000000000000000000000000007bffffffffffffffffffffffffffffffffffffffffffffffffffffffff1916827bffffffffffffffffffffffffffffffffffffffffffffffffffffffff19161480611c5057507f0e89341c000000000000000000000000000000000000000000000000000000007bffffffffffffffffffffffffffffffffffffffffffffffffffffffff1916827bffffffffffffffffffffffffffffffffffffffffffffffffffffffff1916145b80611c605750611c5f82612ff4565b5b9050919050565b6000611c8f836000018373ffffffffffffffffffffffffffffffffffffffff1660001b61305e565b905092915050565b606060008203611cde576040518060400160405280600181526020017f30000000000000000000000000000000000000000000000000000000000000008152509050611df2565b600082905060005b60008214611d10578080611cf9906149f6565b915050600a82611d099190614e2d565b9150611ce6565b60008167ffffffffffffffff811115611d2c57611d2b613b66565b5b6040519080825280601f01601f191660200182016040528015611d5e5781602001600182028036833780820191505090505b5090505b60008514611deb57600182611d779190614f35565b9150600a85611d869190614f04565b6030611d929190614f69565b60f81b818381518110611da857611da7614998565b5b60200101907effffffffffffffffffffffffffffffffffffffffffffffffffffffffffffff1916908160001a905350600a85611de49190614e2d565b9450611d62565b8093505050505b919050565b600073ffffffffffffffffffffffffffffffffffffffff168373ffffffffffffffffffffffffffffffffffffffff1603611e66576040517f08c379a0000000000000000000000000000000000000000000000000000000008152600401611e5d906150ec565b60405180910390fd5b6000611e7061229e565b90506000611e7d84613081565b90506000611e8a84613081565b9050611eaa838760008585604051806020016040528060008152506130fb565b60006001600087815260200190815260200160002060008873ffffffffffffffffffffffffffffffffffffffff1673ffffffffffffffffffffffffffffffffffffffff16815260200190815260200160002054905084811015611f42576040517f08c379a0000000000000000000000000000000000000000000000000000000008152600401611f399061517e565b60405180910390fd5b8481036001600088815260200190815260200160002060008973ffffffffffffffffffffffffffffffffffffffff1673ffffffffffffffffffffffffffffffffffffffff16815260200190815260200160002081905550600073ffffffffffffffffffffffffffffffffffffffff168773ffffffffffffffffffffffffffffffffffffffff168573ffffffffffffffffffffffffffffffffffffffff167fc3d58168c5ae7397731d063d5bbf3d657854427343f4c083240f7aacaa2d0f62898960405161201092919061519e565b60405180910390a461203684886000868660405180602001604052806000815250613103565b50505050505050565b600073ffffffffffffffffffffffffffffffffffffffff168473ffffffffffffffffffffffffffffffffffffffff16036120ae576040517f08c379a00000000000000000000000000000000000000000000000000000000081526004016120a590615239565b60405180910390fd5b60006120b861229e565b905060006120c585613081565b905060006120d285613081565b90506120e3836000898585896130fb565b846001600088815260200190815260200160002060008973ffffffffffffffffffffffffffffffffffffffff1673ffffffffffffffffffffffffffffffffffffffff16815260200190815260200160002060008282546121439190614f69565b925050819055508673ffffffffffffffffffffffffffffffffffffffff16600073ffffffffffffffffffffffffffffffffffffffff168473ffffffffffffffffffffffffffffffffffffffff167fc3d58168c5ae7397731d063d5bbf3d657854427343f4c083240f7aacaa2d0f6289896040516121c192919061519e565b60405180910390a46121d883600089858589613103565b6121e78360008989898961310b565b50505050505050565b6121f861229e565b73ffffffffffffffffffffffffffffffffffffffff16612216611568565b73ffffffffffffffffffffffffffffffffffffffff161461226c576040517f08c379a0000000000000000000000000000000000000000000000000000000008152600401612263906152a5565b60405180910390fd5b565b6000612296836000018373ffffffffffffffffffffffffffffffffffffffff1660001b6132e2565b905092915050565b600033905090565b81518351146122ea576040517f08c379a00000000000000000000000000000000000000000000000000000000081526004016122e190615337565b60405180910390fd5b600073ffffffffffffffffffffffffffffffffffffffff168473ffffffffffffffffffffffffffffffffffffffff1603612359576040517f08c379a0000000000000000000000000000000000000000000000000000000008152600401612350906153c9565b60405180910390fd5b600061236361229e565b90506123738187878787876130fb565b60005b845181101561252757600085828151811061239457612393614998565b5b6020026020010151905060008583815181106123b3576123b2614998565b5b6020026020010151905060006001600084815260200190815260200160002060008b73ffffffffffffffffffffffffffffffffffffffff1673ffffffffffffffffffffffffffffffffffffffff16815260200190815260200160002054905081811015612455576040517f08c379a000000000000000000000000000000000000000000000000000000000815260040161244c9061545b565b60405180910390fd5b8181036001600085815260200190815260200160002060008c73ffffffffffffffffffffffffffffffffffffffff1673ffffffffffffffffffffffffffffffffffffffff16815260200190815260200160002081905550816001600085815260200190815260200160002060008b73ffffffffffffffffffffffffffffffffffffffff1673ffffffffffffffffffffffffffffffffffffffff168152602001908152602001600020600082825461250c9190614f69565b9250508190555050505080612520906149f6565b9050612376565b508473ffffffffffffffffffffffffffffffffffffffff168673ffffffffffffffffffffffffffffffffffffffff168273ffffffffffffffffffffffffffffffffffffffff167f4a39dc06d4c0dbc64b70af90fd698a233a518aa5d07e595d983b8c0526c8f7fb878760405161259e92919061547b565b60405180910390a46125b4818787878787613103565b6125c28187878787876133f6565b505050505050565b60006125d8826000016135cd565b9050919050565b60006125ee83600001836135de565b60001c905092915050565b6000612621836000018373ffffffffffffffffffffffffffffffffffffffff1660001b613609565b905092915050565b60008060009054906101000a900473ffffffffffffffffffffffffffffffffffffffff169050816000806101000a81548173ffffffffffffffffffffffffffffffffffffffff021916908373ffffffffffffffffffffffffffffffffffffffff1602179055508173ffffffffffffffffffffffffffffffffffffffff168173ffffffffffffffffffffffffffffffffffffffff167f8be0079c531659141344cd1fd0a4f28419497f9722a3daafe3b4186f6b6457e060405160405180910390a35050565b600073ffffffffffffffffffffffffffffffffffffffff168373ffffffffffffffffffffffffffffffffffffffff160361275c576040517f08c379a0000000000000000000000000000000000000000000000000000000008152600401612753906150ec565b60405180910390fd5b80518251146127a0576040517f08c379a000000000000000000000000000000000000000000000000000000000815260040161279790615337565b60405180910390fd5b60006127aa61229e565b90506127ca818560008686604051806020016040528060008152506130fb565b60005b83518110156129195760008482815181106127eb576127ea614998565b5b60200260200101519050600084838151811061280a57612809614998565b5b6020026020010151905060006001600084815260200190815260200160002060008973ffffffffffffffffffffffffffffffffffffffff1673ffffffffffffffffffffffffffffffffffffffff168152602001908152602001600020549050818110156128ac576040517f08c379a00000000000000000000000000000000000000000000000000000000081526004016128a39061517e565b60405180910390fd5b8181036001600085815260200190815260200160002060008a73ffffffffffffffffffffffffffffffffffffffff1673ffffffffffffffffffffffffffffffffffffffff168152602001908152602001600020819055505050508080612911906149f6565b9150506127cd565b50600073ffffffffffffffffffffffffffffffffffffffff168473ffffffffffffffffffffffffffffffffffffffff168273ffffffffffffffffffffffffffffffffffffffff167f4a39dc06d4c0dbc64b70af90fd698a233a518aa5d07e595d983b8c0526c8f7fb868660405161299192919061547b565b60405180910390a46129b781856000868660405180602001604052806000815250613103565b50505050565b8173ffffffffffffffffffffffffffffffffffffffff168373ffffffffffffffffffffffffffffffffffffffff1603612a2b576040517f08c379a0000000000000000000000000000000000000000000000000000000008152600401612a2290615524565b60405180910390fd5b80600260008573ffffffffffffffffffffffffffffffffffffffff1673ffffffffffffffffffffffffffffffffffffffff16815260200190815260200160002060008473ffffffffffffffffffffffffffffffffffffffff1673ffffffffffffffffffffffffffffffffffffffff16815260200190815260200160002060006101000a81548160ff0219169083151502179055508173ffffffffffffffffffffffffffffffffffffffff168373ffffffffffffffffffffffffffffffffffffffff167f17307eab39ab6107e8899845ad3d59bd9653f200f220920489ca2b5937696c3183604051612b1c9190613931565b60405180910390a3505050565b600073ffffffffffffffffffffffffffffffffffffffff168473ffffffffffffffffffffffffffffffffffffffff1603612b98576040517f08c379a0000000000000000000000000000000000000000000000000000000008152600401612b8f90615239565b60405180910390fd5b8151835114612bdc576040517f08c379a0000000000000000000000000000000000000000000000000000000008152600401612bd390615337565b60405180910390fd5b6000612be661229e565b9050612bf7816000878787876130fb565b60005b8451811015612cb157838181518110612c1657612c15614998565b5b602002602001015160016000878481518110612c3557612c34614998565b5b6020026020010151815260200190815260200160002060008873ffffffffffffffffffffffffffffffffffffffff1673ffffffffffffffffffffffffffffffffffffffff1681526020019081526020016000206000828254612c979190614f69565b925050819055508080612ca9906149f6565b915050612bfa565b508473ffffffffffffffffffffffffffffffffffffffff16600073ffffffffffffffffffffffffffffffffffffffff168273ffffffffffffffffffffffffffffffffffffffff167f4a39dc06d4c0dbc64b70af90fd698a233a518aa5d07e595d983b8c0526c8f7fb8787604051612d2992919061547b565b60405180910390a4612d4081600087878787613103565b612d4f816000878787876133f6565b5050505050565b600073ffffffffffffffffffffffffffffffffffffffff168473ffffffffffffffffffffffffffffffffffffffff1603612dc5576040517f08c379a0000000000000000000000000000000000000000000000000000000008152600401612dbc906153c9565b60405180910390fd5b6000612dcf61229e565b90506000612ddc85613081565b90506000612de985613081565b9050612df98389898585896130fb565b60006001600088815260200190815260200160002060008a73ffffffffffffffffffffffffffffffffffffffff1673ffffffffffffffffffffffffffffffffffffffff16815260200190815260200160002054905085811015612e91576040517f08c379a0000000000000000000000000000000000000000000000000000000008152600401612e889061545b565b60405180910390fd5b8581036001600089815260200190815260200160002060008b73ffffffffffffffffffffffffffffffffffffffff1673ffffffffffffffffffffffffffffffffffffffff16815260200190815260200160002081905550856001600089815260200190815260200160002060008a73ffffffffffffffffffffffffffffffffffffffff1673ffffffffffffffffffffffffffffffffffffffff1681526020019081526020016000206000828254612f489190614f69565b925050819055508773ffffffffffffffffffffffffffffffffffffffff168973ffffffffffffffffffffffffffffffffffffffff168573ffffffffffffffffffffffffffffffffffffffff167fc3d58168c5ae7397731d063d5bbf3d657854427343f4c083240f7aacaa2d0f628a8a604051612fc592919061519e565b60405180910390a4612fdb848a8a86868a613103565b612fe9848a8a8a8a8a61310b565b505050505050505050565b60007f01ffc9a7000000000000000000000000000000000000000000000000000000007bffffffffffffffffffffffffffffffffffffffffffffffffffffffff1916827bffffffffffffffffffffffffffffffffffffffffffffffffffffffff1916149050919050565b600080836001016000848152602001908152602001600020541415905092915050565b60606000600167ffffffffffffffff8111156130a05761309f613b66565b5b6040519080825280602002602001820160405280156130ce5781602001602082028036833780820191505090505b50905082816000815181106130e6576130e5614998565b5b60200260200101818152505080915050919050565b505050505050565b505050505050565b61312a8473ffffffffffffffffffffffffffffffffffffffff16613679565b156132da578373ffffffffffffffffffffffffffffffffffffffff1663f23a6e6187878686866040518663ffffffff1660e01b8152600401613170959493929190615599565b6020604051808303816000875af19250505080156131ac57506040513d601f19601f820116820180604052508101906131a99190615608565b60015b613251576131b8615642565b806308c379a00361321457506131cc615664565b806131d75750613216565b806040517f08c379a000000000000000000000000000000000000000000000000000000000815260040161320b9190613a97565b60405180910390fd5b505b6040517f08c379a000000000000000000000000000000000000000000000000000000000815260040161324890615766565b60405180910390fd5b63f23a6e6160e01b7bffffffffffffffffffffffffffffffffffffffffffffffffffffffff1916817bffffffffffffffffffffffffffffffffffffffffffffffffffffffff1916146132d8576040517f08c379a00000000000000000000000000000000000000000000000000000000081526004016132cf906157f8565b60405180910390fd5b505b505050505050565b600080836001016000848152602001908152602001600020549050600081146133ea5760006001826133149190614f35565b905060006001866000018054905061332c9190614f35565b905081811461339b57600086600001828154811061334d5761334c614998565b5b906000526020600020015490508087600001848154811061337157613370614998565b5b90600052602060002001819055508387600101600083815260200190815260200160002081905550505b856000018054806133af576133ae615818565b5b6001900381819060005260206000200160009055905585600101600086815260200190815260200160002060009055600193505050506133f0565b60009150505b92915050565b6134158473ffffffffffffffffffffffffffffffffffffffff16613679565b156135c5578373ffffffffffffffffffffffffffffffffffffffff1663bc197c8187878686866040518663ffffffff1660e01b815260040161345b959493929190615847565b6020604051808303816000875af192505050801561349757506040513d601f19601f820116820180604052508101906134949190615608565b60015b61353c576134a3615642565b806308c379a0036134ff57506134b7615664565b806134c25750613501565b806040517f08c379a00000000000000000000000000000000000000000000000000000000081526004016134f69190613a97565b60405180910390fd5b505b6040517f08c379a000000000000000000000000000000000000000000000000000000000815260040161353390615766565b60405180910390fd5b63bc197c8160e01b7bffffffffffffffffffffffffffffffffffffffffffffffffffffffff1916817bffffffffffffffffffffffffffffffffffffffffffffffffffffffff1916146135c3576040517f08c379a00000000000000000000000000000000000000000000000000000000081526004016135ba906157f8565b60405180910390fd5b505b505050505050565b600081600001805490509050919050565b60008260000182815481106135f6576135f5614998565b5b9060005260206000200154905092915050565b6000613615838361305e565b61366e578260000182908060018154018082558091505060019003906000526020600020016000909190919091505582600001805490508360010160008481526020019081526020016000208190555060019050613673565b600090505b92915050565b6000808273ffffffffffffffffffffffffffffffffffffffff163b119050919050565b8280546136a890614620565b90600052602060002090601f0160209004810192826136ca5760008555613711565b82601f106136e357803560ff1916838001178555613711565b82800160010185558215613711579182015b828111156137105782358255916020019190600101906136f5565b5b50905061371e9190613762565b5090565b82600a8101928215613751579160200282015b82811115613750578251825591602001919060010190613735565b5b50905061375e9190613762565b5090565b5b8082111561377b576000816000905550600101613763565b5090565b6000604051905090565b600080fd5b600080fd5b600073ffffffffffffffffffffffffffffffffffffffff82169050919050565b60006137be82613793565b9050919050565b6137ce816137b3565b81146137d957600080fd5b50565b6000813590506137eb816137c5565b92915050565b6000819050919050565b613804816137f1565b811461380f57600080fd5b50565b600081359050613821816137fb565b92915050565b6000806040838503121561383e5761383d613789565b5b600061384c858286016137dc565b925050602061385d85828601613812565b9150509250929050565b613870816137f1565b82525050565b600060208201905061388b6000830184613867565b92915050565b60007fffffffff0000000000000000000000000000000000000000000000000000000082169050919050565b6138c681613891565b81146138d157600080fd5b50565b6000813590506138e3816138bd565b92915050565b6000602082840312156138ff576138fe613789565b5b600061390d848285016138d4565b91505092915050565b60008115159050919050565b61392b81613916565b82525050565b60006020820190506139466000830184613922565b92915050565b600080fd5b600080fd5b600080fd5b60008083601f8401126139715761397061394c565b5b8235905067ffffffffffffffff81111561398e5761398d613951565b5b6020830191508360018202830111156139aa576139a9613956565b5b9250929050565b600080602083850312156139c8576139c7613789565b5b600083013567ffffffffffffffff8111156139e6576139e561378e565b5b6139f28582860161395b565b92509250509250929050565b600081519050919050565b600082825260208201905092915050565b60005b83811015613a38578082015181840152602081019050613a1d565b83811115613a47576000848401525b50505050565b6000601f19601f8301169050919050565b6000613a69826139fe565b613a738185613a09565b9350613a83818560208601613a1a565b613a8c81613a4d565b840191505092915050565b60006020820190508181036000830152613ab18184613a5e565b905092915050565b600060208284031215613acf57613ace613789565b5b6000613add84828501613812565b91505092915050565b600080600060608486031215613aff57613afe613789565b5b6000613b0d868287016137dc565b9350506020613b1e86828701613812565b9250506040613b2f86828701613812565b9150509250925092565b600060208284031215613b4f57613b4e613789565b5b6000613b5d848285016137dc565b91505092915050565b7f4e487b7100000000000000000000000000000000000000000000000000000000600052604160045260246000fd5b613b9e82613a4d565b810181811067ffffffffffffffff82111715613bbd57613bbc613b66565b5b80604052505050565b6000613bd061377f565b9050613bdc8282613b95565b919050565b600067ffffffffffffffff821115613bfc57613bfb613b66565b5b602082029050602081019050919050565b6000613c20613c1b84613be1565b613bc6565b90508083825260208201905060208402830185811115613c4357613c42613956565b5b835b81811015613c6c5780613c588882613812565b845260208401935050602081019050613c45565b5050509392505050565b600082601f830112613c8b57613c8a61394c565b5b8135613c9b848260208601613c0d565b91505092915050565b600080fd5b600067ffffffffffffffff821115613cc457613cc3613b66565b5b613ccd82613a4d565b9050602081019050919050565b82818337600083830152505050565b6000613cfc613cf784613ca9565b613bc6565b905082815260208101848484011115613d1857613d17613ca4565b5b613d23848285613cda565b509392505050565b600082601f830112613d4057613d3f61394c565b5b8135613d50848260208601613ce9565b91505092915050565b600080600080600060a08688031215613d7557613d74613789565b5b6000613d83888289016137dc565b9550506020613d94888289016137dc565b945050604086013567ffffffffffffffff811115613db557613db461378e565b5b613dc188828901613c76565b935050606086013567ffffffffffffffff811115613de257613de161378e565b5b613dee88828901613c76565b925050608086013567ffffffffffffffff811115613e0f57613e0e61378e565b5b613e1b88828901613d2b565b9150509295509295909350565b600081519050919050565b600082825260208201905092915050565b6000819050602082019050919050565b613e5d816137b3565b82525050565b6000613e6f8383613e54565b60208301905092915050565b6000602082019050919050565b6000613e9382613e28565b613e9d8185613e33565b9350613ea883613e44565b8060005b83811015613ed9578151613ec08882613e63565b9750613ecb83613e7b565b925050600181019050613eac565b5085935050505092915050565b60006020820190508181036000830152613f008184613e88565b905092915050565b600080600060608486031215613f2157613f20613789565b5b6000613f2f86828701613812565b9350506020613f4086828701613812565b9250506040613f5186828701613812565b9150509250925092565b600067ffffffffffffffff821115613f7657613f75613b66565b5b602082029050602081019050919050565b6000613f9a613f9584613f5b565b613bc6565b90508083825260208201905060208402830185811115613fbd57613fbc613956565b5b835b81811015613fe65780613fd288826137dc565b845260208401935050602081019050613fbf565b5050509392505050565b600082601f8301126140055761400461394c565b5b8135614015848260208601613f87565b91505092915050565b6000806040838503121561403557614034613789565b5b600083013567ffffffffffffffff8111156140535761405261378e565b5b61405f85828601613ff0565b925050602083013567ffffffffffffffff8111156140805761407f61378e565b5b61408c85828601613c76565b9150509250929050565b600081519050919050565b600082825260208201905092915050565b6000819050602082019050919050565b6140cb816137f1565b82525050565b60006140dd83836140c2565b60208301905092915050565b6000602082019050919050565b600061410182614096565b61410b81856140a1565b9350614116836140b2565b8060005b8381101561414757815161412e88826140d1565b9750614139836140e9565b92505060018101905061411a565b5085935050505092915050565b6000602082019050818103600083015261416e81846140f6565b905092915050565b6000806040838503121561418d5761418c613789565b5b600083013567ffffffffffffffff8111156141ab576141aa61378e565b5b6141b785828601613c76565b925050602083013567ffffffffffffffff8111156141d8576141d761378e565b5b6141e485828601613c76565b9150509250929050565b60006141f982613793565b9050919050565b614209816141ee565b811461421457600080fd5b50565b60008135905061422681614200565b92915050565b6000806040838503121561424357614242613789565b5b600061425185828601614217565b925050602061426285828601613812565b9150509250929050565b614275816137b3565b82525050565b6000602082019050614290600083018461426c565b92915050565b61429f81613916565b81146142aa57600080fd5b50565b6000813590506142bc81614296565b92915050565b600080604083850312156142d9576142d8613789565b5b60006142e7858286016137dc565b92505060206142f8858286016142ad565b9150509250929050565b6000806040838503121561431957614318613789565b5b600061432785828601613812565b925050602061433885828601613812565b9150509250929050565b6000604082019050614357600083018561426c565b6143646020830184613867565b9392505050565b60008060006060848603121561438457614383613789565b5b6000614392868287016137dc565b935050602084013567ffffffffffffffff8111156143b3576143b261378e565b5b6143bf86828701613c76565b925050604084013567ffffffffffffffff8111156143e0576143df61378e565b5b6143ec86828701613c76565b9150509250925092565b6000806040838503121561440d5761440c613789565b5b600061441b858286016137dc565b925050602061442c858286016137dc565b9150509250929050565b600080600080600060a0868803121561445257614451613789565b5b6000614460888289016137dc565b9550506020614471888289016137dc565b945050604061448288828901613812565b935050606061449388828901613812565b925050608086013567ffffffffffffffff8111156144b4576144b361378e565b5b6144c088828901613d2b565b9150509295509295909350565b7f455243313135353a2061646472657373207a65726f206973206e6f742061207660008201527f616c6964206f776e657200000000000000000000000000000000000000000000602082015250565b6000614529602a83613a09565b9150614534826144cd565b604082019050919050565b600060208201905081810360008301526145588161451c565b9050919050565b7f41646d696e436f6e74726f6c3a204d757374206265206f776e6572206f72206160008201527f646d696e00000000000000000000000000000000000000000000000000000000602082015250565b60006145bb602483613a09565b91506145c68261455f565b604082019050919050565b600060208201905081810360008301526145ea816145ae565b9050919050565b7f4e487b7100000000000000000000000000000000000000000000000000000000600052602260045260246000fd5b6000600282049050600182168061463857607f821691505b60208210810361464b5761464a6145f1565b5b50919050565b600081905092915050565b60008190508160005260206000209050919050565b6000815461467e81614620565b6146888186614651565b945060018216600081146146a357600181146146b4576146e7565b60ff198316865281860193506146e7565b6146bd8561465c565b60005b838110156146df578154818901526001820191506020810190506146c0565b838801955050505b50505092915050565b60006146fb826139fe565b6147058185614651565b9350614715818560208601613a1a565b80840191505092915050565b7f2e6a736f6e000000000000000000000000000000000000000000000000000000600082015250565b6000614757600583614651565b915061476282614721565b600582019050919050565b60006147798285614671565b915061478582846146f0565b91506147908261474a565b91508190509392505050565b7f53686966742064697361626c6564000000000000000000000000000000000000600082015250565b60006147d2600e83613a09565b91506147dd8261479c565b602082019050919050565b60006020820190508181036000830152614801816147c5565b9050919050565b7f4d756c746976617269612054696572203132206d697373696e6720666f72207460008201527f6865207368696674000000000000000000000000000000000000000000000000602082015250565b6000614864602883613a09565b915061486f82614808565b604082019050919050565b6000602082019050818103600083015261489381614857565b9050919050565b7f53686966742063617264206d697373696e6720666f7220746865207368696674600082015250565b60006148d0602083613a09565b91506148db8261489a565b602082019050919050565b600060208201905081810360008301526148ff816148c3565b9050919050565b7f455243313135353a2063616c6c6572206973206e6f7420746f6b656e206f776e60008201527f6572206e6f7220617070726f7665640000000000000000000000000000000000602082015250565b6000614962602f83613a09565b915061496d82614906565b604082019050919050565b6000602082019050818103600083015261499181614955565b9050919050565b7f4e487b7100000000000000000000000000000000000000000000000000000000600052603260045260246000fd5b7f4e487b7100000000000000000000000000000000000000000000000000000000600052601160045260246000fd5b6000614a01826137f1565b91507fffffffffffffffffffffffffffffffffffffffffffffffffffffffffffffffff8203614a3357614a326149c7565b5b600182019050919050565b7f496e636f7272656374204d756c74697661726961496400000000000000000000600082015250565b6000614a74601683613a09565b9150614a7f82614a3e565b602082019050919050565b60006020820190508181036000830152614aa381614a67565b9050919050565b7f496e636f72726563742053686966744361726449640000000000000000000000600082015250565b6000614ae0601583613a09565b9150614aeb82614aaa565b602082019050919050565b60006020820190508181036000830152614b0f81614ad3565b9050919050565b7f496e636f72726563742073686966746564546965720000000000000000000000600082015250565b6000614b4c601583613a09565b9150614b5782614b16565b602082019050919050565b60006020820190508181036000830152614b7b81614b3f565b9050919050565b7f455243313135353a206163636f756e747320616e6420696473206c656e67746860008201527f206d69736d617463680000000000000000000000000000000000000000000000602082015250565b6000614bde602983613a09565b9150614be982614b82565b604082019050919050565b60006020820190508181036000830152614c0d81614bd1565b9050919050565b7f41204d756c7469766172696120546965722032206e6565647320746f2062652060008201527f6275726e7420666f722074686973207368696674000000000000000000000000602082015250565b6000614c70603483613a09565b9150614c7b82614c14565b604082019050919050565b60006020820190508181036000830152614c9f81614c63565b9050919050565b7f4d756c74697661726961206d697373696e6720666f7220746865207368696674600082015250565b6000614cdc602083613a09565b9150614ce782614ca6565b602082019050919050565b60006020820190508181036000830152614d0b81614ccf565b9050919050565b7f416476616e6365642053686966742063617264206d697373696e6720666f722060008201527f7468652073686966740000000000000000000000000000000000000000000000602082015250565b6000614d6e602983613a09565b9150614d7982614d12565b604082019050919050565b60006020820190508181036000830152614d9d81614d61565b9050919050565b6000614daf826137f1565b9150614dba836137f1565b9250817fffffffffffffffffffffffffffffffffffffffffffffffffffffffffffffffff0483118215151615614df357614df26149c7565b5b828202905092915050565b7f4e487b7100000000000000000000000000000000000000000000000000000000600052601260045260246000fd5b6000614e38826137f1565b9150614e43836137f1565b925082614e5357614e52614dfe565b5b828204905092915050565b6000819050919050565b614e79614e74826137f1565b614e5e565b82525050565b60008160601b9050919050565b6000614e9782614e7f565b9050919050565b6000614ea982614e8c565b9050919050565b614ec1614ebc826137b3565b614e9e565b82525050565b6000614ed38286614e68565b602082019150614ee38285614e68565b602082019150614ef38284614eb0565b601482019150819050949350505050565b6000614f0f826137f1565b9150614f1a836137f1565b925082614f2a57614f29614dfe565b5b828206905092915050565b6000614f40826137f1565b9150614f4b836137f1565b925082821015614f5e57614f5d6149c7565b5b828203905092915050565b6000614f74826137f1565b9150614f7f836137f1565b9250827fffffffffffffffffffffffffffffffffffffffffffffffffffffffffffffffff03821115614fb457614fb36149c7565b5b828201905092915050565b6000614fca826137f1565b915060008203614fdd57614fdc6149c7565b5b600182039050919050565b7f4f776e61626c653a206e6577206f776e657220697320746865207a65726f206160008201527f6464726573730000000000000000000000000000000000000000000000000000602082015250565b6000615044602683613a09565b915061504f82614fe8565b604082019050919050565b6000602082019050818103600083015261507381615037565b9050919050565b7f455243313135353a206275726e2066726f6d20746865207a65726f206164647260008201527f6573730000000000000000000000000000000000000000000000000000000000602082015250565b60006150d6602383613a09565b91506150e18261507a565b604082019050919050565b60006020820190508181036000830152615105816150c9565b9050919050565b7f455243313135353a206275726e20616d6f756e7420657863656564732062616c60008201527f616e636500000000000000000000000000000000000000000000000000000000602082015250565b6000615168602483613a09565b91506151738261510c565b604082019050919050565b600060208201905081810360008301526151978161515b565b9050919050565b60006040820190506151b36000830185613867565b6151c06020830184613867565b9392505050565b7f455243313135353a206d696e7420746f20746865207a65726f2061646472657360008201527f7300000000000000000000000000000000000000000000000000000000000000602082015250565b6000615223602183613a09565b915061522e826151c7565b604082019050919050565b6000602082019050818103600083015261525281615216565b9050919050565b7f4f776e61626c653a2063616c6c6572206973206e6f7420746865206f776e6572600082015250565b600061528f602083613a09565b915061529a82615259565b602082019050919050565b600060208201905081810360008301526152be81615282565b9050919050565b7f455243313135353a2069647320616e6420616d6f756e7473206c656e6774682060008201527f6d69736d61746368000000000000000000000000000000000000000000000000602082015250565b6000615321602883613a09565b915061532c826152c5565b604082019050919050565b6000602082019050818103600083015261535081615314565b9050919050565b7f455243313135353a207472616e7366657220746f20746865207a65726f20616460008201527f6472657373000000000000000000000000000000000000000000000000000000602082015250565b60006153b3602583613a09565b91506153be82615357565b604082019050919050565b600060208201905081810360008301526153e2816153a6565b9050919050565b7f455243313135353a20696e73756666696369656e742062616c616e636520666f60008201527f72207472616e7366657200000000000000000000000000000000000000000000602082015250565b6000615445602a83613a09565b9150615450826153e9565b604082019050919050565b6000602082019050818103600083015261547481615438565b9050919050565b6000604082019050818103600083015261549581856140f6565b905081810360208301526154a981846140f6565b90509392505050565b7f455243313135353a2073657474696e6720617070726f76616c2073746174757360008201527f20666f722073656c660000000000000000000000000000000000000000000000602082015250565b600061550e602983613a09565b9150615519826154b2565b604082019050919050565b6000602082019050818103600083015261553d81615501565b9050919050565b600081519050919050565b600082825260208201905092915050565b600061556b82615544565b615575818561554f565b9350615585818560208601613a1a565b61558e81613a4d565b840191505092915050565b600060a0820190506155ae600083018861426c565b6155bb602083018761426c565b6155c86040830186613867565b6155d56060830185613867565b81810360808301526155e78184615560565b90509695505050505050565b600081519050615602816138bd565b92915050565b60006020828403121561561e5761561d613789565b5b600061562c848285016155f3565b91505092915050565b60008160e01c9050919050565b600060033d11156156615760046000803e61565e600051615635565b90505b90565b600060443d106156f15761567661377f565b60043d036004823e80513d602482011167ffffffffffffffff8211171561569e5750506156f1565b808201805167ffffffffffffffff8111156156bc57505050506156f1565b80602083010160043d0385018111156156d95750505050506156f1565b6156e882602001850186613b95565b82955050505050505b90565b7f455243313135353a207472616e7366657220746f206e6f6e204552433131353560008201527f526563656976657220696d706c656d656e746572000000000000000000000000602082015250565b6000615750603483613a09565b915061575b826156f4565b604082019050919050565b6000602082019050818103600083015261577f81615743565b9050919050565b7f455243313135353a204552433131353552656365697665722072656a6563746560008201527f6420746f6b656e73000000000000000000000000000000000000000000000000602082015250565b60006157e2602883613a09565b91506157ed82615786565b604082019050919050565b60006020820190508181036000830152615811816157d5565b9050919050565b7f4e487b7100000000000000000000000000000000000000000000000000000000600052603160045260246000fd5b600060a08201905061585c600083018861426c565b615869602083018761426c565b818103604083015261587b81866140f6565b9050818103606083015261588f81856140f6565b905081810360808301526158a38184615560565b9050969550505050505056fea2646970667358221220050df88adb12b92c3484b4ffe6a3c5e5321b7380b40a81f8c721359aa799a1aa64736f6c634300080d0033",
  "immutableReferences": {},
  "source": "// SPDX-License-Identifier: MIT\n\npragma solidity >= 0.8.13;\n\nimport \"@openzeppelin/contracts/token/ERC1155/ERC1155.sol\";\nimport \"@manifoldxyz/royalty-registry-solidity/contracts/specs/IEIP2981.sol\";\nimport \"@manifoldxyz/libraries-solidity/contracts/access/AdminControl.sol\";\nimport \"@openzeppelin/contracts/utils/Strings.sol\";\n\ncontract Multivaria is ERC1155, AdminControl {\n    \n    address payable  private _royalties_recipient;\n    mapping (uint256 => uint256) _tokenMaxSupply;\n    mapping (uint256 => uint256) _tokenTier;\n    uint256 public _editionsLeft = 200;\n    uint256 private _royaltyAmount; //in % \n    uint256 [10] _ubs;\n    string public _name = \"Multivaria\";\n    string _uri;\n    bool public _shiftActivated;\n    bool public _advancedCardShifted;\n\n    uint256 public _test;\n\n    // Token IDs:\n    // Tier12: 12\n    // Tier11: 11\n    // Tier10: 10\n    // Tier9: 9\n    // Tier8: 8\n    // Tier7: 7\n    // Tier6: 6\n    // Tier5: 5\n    // Tier4: 4\n    // Tier3: 3\n    // Tier2: 2\n    // Tier1//AdvancedShiftCard: 1\n\n    // ShiftCard: 13\n\n    // uint256 ub1 =2;\n    // uint256 ub2 =5;\n    // uint256 ub3 =10;\n    // uint256 ub4 =20;\n    // uint256 ub5 =35;\n    // uint256 ub6 = 55;\n    // uint256 ub7 = 80;\n    // uint256 ub8 = 110;\n    // uint256 ub9 = 150;\n    // uint256 ub10 = 200;\n\n    \n    constructor () ERC1155(\"\") {\n        _royalties_recipient = payable(msg.sender);\n        _royaltyAmount = 10;\n        _ubs = [2,5,10,20,35,55,80,110,150,200];\n    } \n\n    function supportsInterface(bytes4 interfaceId)\n        public\n        view\n        virtual\n        override(ERC1155, AdminControl)\n        returns (bool)\n    {\n        return\n        AdminControl.supportsInterface(interfaceId) ||\n        ERC1155.supportsInterface(interfaceId) ||\n        interfaceId == type(IEIP2981).interfaceId ||\n        super.supportsInterface(interfaceId);\n    }\n\n    function name() public view returns (string memory) {\n        return _name;\n    }\n\n    function getPseudoRndTier() public returns (uint256){    \n        bool tierFound = false;\n        uint [10] memory  ubs = _ubs;\n        uint256 tier=0;\n        uint256 editionsLeft = _editionsLeft;\n        uint256 rnd = uint256(keccak256(abi.encodePacked(block.difficulty, block.timestamp, msg.sender))) % editionsLeft;\n        \n        for(uint256 i=0; i<= ubs.length-1; i++){\n            if(rnd < ubs[i] && tier == 0){\n                tierFound = true;\n                tier = i+2;\n            }\n            if(tierFound){\n                ubs[i]--;\n            }\n        }\n        editionsLeft--;\n        _ubs = ubs;\n        _editionsLeft = editionsLeft;\n        _test = tier;\n        return tier;   \n    }\n\n    function mint( \n        address to,\n        uint256 id,\n        uint256 amount\n    ) external adminRequired{\n        _mint(to, id, amount, \"0x0\");\n    }\n\n    function mintBatch(\n        address to,\n        uint256[] memory ids,\n        uint256[] memory amounts\n    )external adminRequired{\n        _mintBatch(to, ids, amounts, \"0x0\");\n    }\n\n    function toggleShiftActivated()external adminRequired{\n        _shiftActivated = !_shiftActivated;\n    }\n\n    function adminShift(uint256 multivariaId, uint256 shiftCardId, uint256 shiftedTier) external adminRequired{\n        require(multivariaId <= 12 && multivariaId > 1, \"Incorrect MultivariaId\");\n        require(shiftCardId == 13 || shiftCardId == 14, \"Incorrect ShiftCardId\");\n        require(shiftedTier < 12 , \"Incorrect shiftedTier\");\n\n        _burn(msg.sender, multivariaId, 1);\n        _burn(msg.sender, shiftCardId, 1);\n        _mint(msg.sender, shiftedTier, 1, \"0x0\");\n    }\n\n    function shift() external {\n        require(_shiftActivated, \"Shift disabled\");\n        require(ERC1155.balanceOf(msg.sender, 12)>=1,\"Multivaria Tier 12 missing for the shift\");\n        require(ERC1155.balanceOf(msg.sender, 13)>=1,\"Shift card missing for the shift\");\n\n        uint256 shiftedTier = getPseudoRndTier();\n        _burn(msg.sender, 12, 1);\n        _burn(msg.sender, 13, 1);\n        _mint(msg.sender, shiftedTier, 1, \"0x0\");\n    }\n\n    function uniqueShift(uint256 multivariaId) external {\n        require(_shiftActivated, \"Shift disabled\");\n        require(multivariaId < 12 && multivariaId >=2, \"A Multivaria Tier 2 needs to be burnt for this shift\");\n        require(ERC1155.balanceOf(msg.sender, multivariaId) >= 1,\"Multivaria missing for the shift\");\n        require(ERC1155.balanceOf(msg.sender, 1)>=1,\"Advanced Shift card missing for the shift\");\n        _advancedCardShifted = true;\n        _burn(msg.sender, multivariaId, 1);\n        // Need to iterate on the token 1\n    }\n\n    // function getUBS(uint256 index) external views returns(uint256 value){\n    //     return _ubs[index];\n    // }\n\n    function setURI(\n        string calldata updatedURI\n    ) external adminRequired{\n        _uri = updatedURI;\n    }\n\n    function uri(uint256 tokenId) public view virtual override returns (string memory) {\n        if(tokenId == 1 && !_advancedCardShifted){\n            return string(abi.encodePacked(_uri, Strings.toString(14), \".json\"));\n        }\n        return string(abi.encodePacked(_uri, Strings.toString(tokenId), \".json\"));\n    }\n\n    function burn(uint256 tokenId, uint256 quantity) public {\n        _burn(msg.sender, tokenId, quantity);\n    }\n\n    function burnBatch(\n        uint256[] memory ids,\n        uint256[] memory amounts\n    )external{\n        _burnBatch(msg.sender, ids, amounts);\n    }\n\n    function setRoyalties(address payable _recipient, uint256 _royaltyPerCent) external adminRequired {\n        _royalties_recipient = _recipient;\n        _royaltyAmount = _royaltyPerCent;\n    }\n\n    function royaltyInfo(uint256 salePrice) external view returns (address, uint256) {\n        if(_royalties_recipient != address(0)){\n            return (_royalties_recipient, (salePrice * _royaltyAmount) / 100 );\n        }\n        return (address(0), 0);\n    }\n\n    function withdraw(address recipient) external adminRequired {\n        payable(recipient).transfer(address(this).balance);\n    }\n\n}",
  "sourcePath": "/Users/bct/Documents/Dev/NFT_dev/MULTIVARIA/contracts/Multivaria.sol",
  "compiler": {
    "name": "solc",
    "version": "0.8.13+commit.abaa5c0e.Emscripten.clang"
  },
  "schemaVersion": "3.4.4",
  "updatedAt": "2022-08-29T17:23:58.658Z",
  "devdoc": {
    "kind": "dev",
    "methods": {
      "approveAdmin(address)": {
        "details": "See {IAdminControl-approveAdmin}."
      },
      "balanceOf(address,uint256)": {
        "details": "See {IERC1155-balanceOf}. Requirements: - `account` cannot be the zero address."
      },
      "balanceOfBatch(address[],uint256[])": {
        "details": "See {IERC1155-balanceOfBatch}. Requirements: - `accounts` and `ids` must have the same length."
      },
      "getAdmins()": {
        "details": "See {IAdminControl-getAdmins}."
      },
      "isAdmin(address)": {
        "details": "See {IAdminControl-isAdmin}."
      },
      "isApprovedForAll(address,address)": {
        "details": "See {IERC1155-isApprovedForAll}."
      },
      "owner()": {
        "details": "Returns the address of the current owner."
      },
      "renounceOwnership()": {
        "details": "Leaves the contract without owner. It will not be possible to call `onlyOwner` functions anymore. Can only be called by the current owner. NOTE: Renouncing ownership will leave the contract without an owner, thereby removing any functionality that is only available to the owner."
      },
      "revokeAdmin(address)": {
        "details": "See {IAdminControl-revokeAdmin}."
      },
      "safeBatchTransferFrom(address,address,uint256[],uint256[],bytes)": {
        "details": "See {IERC1155-safeBatchTransferFrom}."
      },
      "safeTransferFrom(address,address,uint256,uint256,bytes)": {
        "details": "See {IERC1155-safeTransferFrom}."
      },
      "setApprovalForAll(address,bool)": {
        "details": "See {IERC1155-setApprovalForAll}."
      },
      "transferOwnership(address)": {
        "details": "Transfers ownership of the contract to a new account (`newOwner`). Can only be called by the current owner."
      }
    },
    "version": 1
  },
  "userdoc": {
    "kind": "user",
    "methods": {},
    "version": 1
  }
}